:020000040009F1
:280000000108006999994204204EB1FD0400FFFFFFFF4006000000A0027020020A00280009000000000000001D
:FB002800411A0042726F6164636F6D20426C7565746F6F746820446576696365004C30003003420043004D00390032003000370030003200200042006C007500650074006F006F0074006800200034002E003000980100035C0100017206000300000800019304002000000068040012000C006A3600030012000000B0000000A0000000431008045310020180000000900000006310040273100402C1000000D00000002000000030000000690200A0035D0C000A64E6B000008898425A33435F09003C280100040004F70C0A6F0098160800C600F3025D0066033000C900E10268005C033600C300E2026A0053033C00C200E1026C004E034100C500D6026B
:FB01230072004A034300C300CE02790042034800C500C00283003A034E00C800BF0282003B034E00C900BC028400370352000808070707070707060606060505050502C0F00094FC0E00FFFF00005E02000030FC0E00FFFF0F006304000000FD0E00FFFF00006602000088FC0E00FFFF0000000400002CFC0E00FFFF00004904000070FC0E00FFFF00000B09000074FC0E00FFFF00002E010000D8FF0E00FFFF000062190000D0FC0E00FFFF000020C90000C8FC0E00FFFF000038850000DCFC0E00FFFF00001CC80000CCFD0E00FFFF0000048000005CFC0E00FFFF00000200000020FC0E00FFFF000019210000E0FC0E000080000000000000C0FC0E00FF3C
:FB021E00FF000022000000948F0800FFFFFFFF00100010988F0800FFFF0000001000009C8F080000FFFFFF000A0A0ACCFC0E00FFFF00002B450000D07B0001040A08FC0E00FFFF00002E3600000CFC0E00FFFF00002CAE000010FC0E00FFFF00002AAC000014FC0E00FFFF0000A222000018FC0E00FFFF00001D2000001CFC0E00FFFF00000D15000020FC0E00FFFF0000858D000024FC0E00FFFF00008311000028FC0E00FFFF00000001000098FF0E00FFFF00003E410000C3160012691419310870047836042430607180764A3108290ACF0900100F0C6EF0B009F060D10900010403036B1420206B1A2400FF0108080A10060E020CFE0AFA08F606F20484
:FB031900EE020A10060E020CFE0AFA08F606F204EE020301000182D600040602020A233C5A6E7D80008000800080008000800080028002800280028002800214FF19880AFF610000000000000000000000000014FF19820AFF610000000000000000000000000014FF19000AFF610000000000000000000000000014FF19080AFF610000000000000000000000000014FF190B0AFF610000000000000000000000000014FF19100AFF610000000000000000000000000040FFFF68027B0000000040FFFF68027B0000000040FFFF68027B0000000040FFFF68027B0000000040FFFF69027B0000000040FFFF69027B0000000082D600FF0602020A233C5A6E95
:FB0414007D80008000800080008000800080028002800280028002800214FF19880AFF200000000000000000000000000014FF19820AFF430000000000000000000000000014FF19000AFF660000000000000000000000000014FF19080AFF660000000000000000000000000014FF190B0AFF430000000000000000000000000014FF19100AFF200000000000000000000000000041000000007B0000000041000000007B0000000041000000007B0000000041000000007B0000000041000000007B0000000041000000007B000000008612000413004008000040130001000180FF000113C15E0044041422A244041422A23B04B104B204B304B404B504EF
:FB050F00B604B704B804B904BA04BB04BC04BD04BE04BF04C004C104C204C304C404C504C604C704C804C904CA04CB04CC04CD04CE04CF04D004D104D204D304D404D504D604D704D8280C000A0800800208002C012C010B0400144C09000B0400EC4C09000B0400824E090008250000B0DB010078F06EFC160090640900281CFEF733FF281C5F3000210170391C321D87F787FB080F000184E0000030BD00B50000000000000817000288E0000087F098F90800BC53090000F002F800BD0000081D0003C46200008FF0A9FB0E001A5A090001B4FFF769FF01BC70F759FC000008150004586600008FF0DCF90600145A0900FFF796FF30BD0B0400BA5B0900F5
:FB060A000B0400E45B090008150005C08400008DF050FE060064610900FFF7A6FF30BD082D0006B47702006EF0D9FC1E006A61090002B461684907C90F301C91F7A5FC02BC002902D0F06991F71AFB91F71CFB080F000724B500000FE0C046000000000000080F0008C44F000010E0C046000000000000086700091CF0030057F0B4F858008861090070B5061C0C1C151C002B21D104A8008840281DD105A80088202819D15A2917D8081C15D004F038FB002811D1032D0FD02204121408210748002304F035FB002806D1221C291C301CA8F7E3FF012000E0002070BD18650800080F000A988000005808042B0000000000000817000B680C040055F0BAFA49
:FB0705000800E061090000F002F870BD00000819000C64D4000088F03EFF0A00E4620900281CFEF7E3FF77F7D0F80813000D08D6000088F071FE0400EE62090077F78EF9080F000E80DA0000C046C0460000000000000815000F2452000091F065F80600F262090000F001F8F0BD0B04005464090008190010845C020070F00FFC0A00A66409009B005859EF188FF7ECFB0817001164F8000086F024FE0800B064090000F002F8F0BD0000081700123CF5000087F024F808008865090000F002F830BD0000082F0013C4F6010076F09EFF200004660900054B30B4054CE57949190C06211630BC195489F757F8C046903408008C03080008170014487C020001
:FB0800006EF0ECFC08002466090000F002F870BD0000082B0015D4BA00008AF0E2FD1C009C6609000AB4201C311C00F009F80ABC012803D0042B01D175F712FA75F713FA081F00162CF0000087F051FB1000D266090001B483F7EFFB01BC00F024F878F7A7FC08250017E4A203005CF0FDF91600E2660900002806D100F007F8002802D10120A3F724FEA3F7FAFD08170018C06A02006FF03AFE08003867090000F002F830BD000008230019C47202006FF0D8FA14007868090008B4301C0122012300F004F808BC90F721FD0000920600A300800014190817001A2848020072F0EAF80800006A090000F069FA8DF76DFF0817001BB473020070F04AFD08001F
:FB08FB004C7E0900FFF75DFE8FF741FB080F001C34C40100C046201C0000000000000817001D2447020072F070F90800086A090000F0F7F98DF79FFE0817001E6847020072F052F90800106A090000F009FA8DF7B7FE0817001F0C4D020071F084FE0800186A090000F099FA8EF78EF908170020404D020071F06EFE0800206A090000F0AFFA8EF7A8F9081700217C4D020071F054FE0800286A090000F007FC8EF7BCF9081700227854020072F0D8FC08002C7E0900FFF758FD8DF733FB081700230C57020072F092FB0800347E0900FFF7B4FD8DF7B6FC081900244472010080F0F3FF0A002E820900FFF7F5FF7FF70AF80000081700254C58020072F0F64B
:FB09F600FA08003C7E0900FFF724FF8DF71DFE081700265C46020073F0FAFB0800547E0900FEF774FE8CF70FFC081700270865010080F092FA0800306A090000F0FDFD7FF782FD0817002834AE01007DF0C6FA0800C483090002B0FFF757FF70BD08170029086E000094F06AFF0800E0BC0900FFF78EFF6BF7CCF8087F012AA444000094F09AF87001DC85090000B528490B6826490B6024490B6822490B601E490B682D490B60434B43490B6034490B680120C00303430B6040490B78002B04D02F490B68400303430B602D4A13685B085B0013603A4B3B4A1360B0F796FEB1F7BFFAB1F70EFEB1F7B4FF0D21364802F017F9364A9068002803D098F7BFFF3F
:FB0AF100B0F75BFD2448244A11684160244A60E0C046C0B00800FFF2011AE8AA0900848FB002D08B0E00A0800E00ECAA0900148B0E00F0AA09006CE50500F4AA09008C150800C3840900F3840900CD85090049850900B58509005C000F0094830E00FF00FFFF608B0E0040230001E08A0E00E02C0800A4860E0088B2080005000080850000801C800E0014800E00848F080004830E00108B0E00C8FC0E00C42C0800CC2C0800D02C0800C82C0800D42C0800D4FF0E00BC8B0E00AD020000CC8B0E001CCD080010325476D48B0E00009D0800ECCC080011684161054A11688160054A13680360044A1368044A136000BDC046D02C0800C82C0800D42C0800D4EA
:FB0BEC00FF0E000861002B0044000093F0E4FF5200CC83090010B5A448002383700423437001230370A14BA2480360A24BA24C2360A24C2368A24C2360A24C2368A24C23602C22A249A248BCF7C1FAA148A14C2060A149C160A1494162A1490161A14B8361A14BC36110BD080F002CD0B80400A5F809E00000000000000817002D20BA04004DF04CF90800BC8C0900FFF7D4FF30BD00000817002E3069040052F0D0FA0800D48E0900FFF7C4FFADF748FD0819002F545D040053F0C2F80A00DC8E0900B3F7C0FFFFF7B2FF30BD08190030E0A504004EF081FC0A00E68E090000F003F803B0F0BD000008170031E882040050F050FE08008C8F090000F002F89E
:FB0CE70030BD000008170032B0B104004DF06AFF08008890090000F002F830BD0000082B0033DCC004004DF036F81C004C910900FF233D3343430448C0189F300078002800D101207047C046349D0800081B003494AC04004EF072FA0C007C910900201C00F003F8B1F78AFD0000081B0035ACAC04004EF0B2FA0C0014920900201C00F003F8B1F74AFD0000082300363CC104004DF014F814006891090029187F231B02FF339D4200D35D1EFF23B2F7E2FF08170037981B030067F0B4FB080004930900FFF7D2FF30BD0000082B00381C7B040051F00EFC1C003C93090004910FB4301CFFF7E3FF012802D10FBC05B0F0BD0FBC062DAEF7E4FB081F003918D9
:FB0DE200AC04004EF0DAFB1000D093090003D1FFF7C1FFB1F722FCB1F721FC0000080F003A1C730400C046C0460000000000000817003B807A040051F066FD0800509509000420AEF7A0FE10BD0817003C9882040051F05EF9080058950900FFF7CAFF30BD00000817003D6CA804004EF02CFF0800C8960900FFF74AFFF0BD00000815003E94A304004FF038FB0600089A0900FFF7E8FF10BD080F003F0CA3040000F01DF8000000000000082300404894000090F0E1FA14000E9A0900012B02D10020287001E06FF722FD62686FF75EFD081D0041A4CC04004CF0BDFE0E00229A09002878B2F7BFF8201C00F001F830BD080F0042C4A904005E4A2068000089
:FB0EDD0000000000080F0043A4630400FE23F533000000000000081F0044D472000092F0B6FB1000449A0900301C049900F004F8009988426DF742FC081700459897040050F082F90800A09A0900FFF79FFEF0BD000008170046E49D040050F04EF80800849E090000F002F8F0BD000008150047D099010080F0A2FB060018A10900FFF7B2FF00BD0815004868E901007BF0D9FB06001EA10900FFF7C2FF00BD08230049A4E901007BF0BEFB140024A109000FB4301CFFF7C6FF0FBC0A22311C84F739FC00000877004A7461030063F0E0FF680038A1090010B500248BF7C0FF012803D309D0022820D102E09EF70AFC01E0A3F772FF041C18E00D490B780007
:FB0FD8002B14D00C4A106803680B4A13600B4A1378002B0BD08B784978002B03D04B00FF21013101E04B00802199400160201C10BD481B0800E40A0800AC5808003A010800080F004B7C640200131C03600000000000000857004CB462020073F074FF4800A0A1090000B50D490868002804D003280FD0052811D104E009480378002B0CD007E0084B18680122002199F7DCFA9BF7AEFE05490B680120186000BDB0C80800D1CA0800F40A0800E40A0800081B004DC0B903005EF012FC0C00E8A10900211C00F00BF8061CA1F7EAFB081F004EB49D030060F01EFA1000F4A1090002B400F015F802BC0C68E3069FF7DAFD0819004F7847000095F0E8FE0A0076
:FB10D3004CA50900381CFAF7ABFC6AF714F908190050AC47000095F0D3FE0A0056A50900281CFAF7C4FC6AF72DF9081B00513CDB00008CF010FD0C0060A5090081B000F003F873F74EFB000008270052405B010084F08AFB180058A20900002E02D00020E05504E0E35D002B01D0013BE3557BF781FC081B005350A704004EF0C4FE0C00DC940900381CFFF7F4F902B0B1F736F90817005458A704004EF0C6FE0800E8940900FFF712FAB1F743F908210055B03C010086F0D2FC120058A6090001B4301C00F010F801BC74F72FFD79F725FB081D00565CB503005FF085F80E006AA6090001B400F00FF820BC6B01A0F774FF08170057A8A0030060F0E6FA08C5
:FB11CE000078A6090000F015F89FF730FD082B0058CCB203005FF002FA1C00D4A609001378002B07D103B400F008F8012803BC01D1A0F7F4FDA0F7FEFD0000081B005974B403005FF048F90C0008A7090000232B7500F02CF8A0F7B2FE081D005A1C69020073F0FAFE0E0014A7090003D100F027F8A2F765F88CF700F90827005B30BB03005EF0F7FD180022A70900012D03D1002E01D100F05BF8A068A1F780FF0021A1F7FEF90827005C0862020074F097FA18003AA70900201C08B4019900F01BF808BC9C4201D08BF75FFD8BF769FD0825005D9CBC03005EF059FD160052A709001B0705D400F049F8002801D1A1F79FFAA1F7CAFA00000A05002DCB08C8
:0512C9000001FE000021
:FB4B0000F0B5494C494B4A4803604A4B4A48036001F044FF00F0E8FB00F0F8F900F0A8FB00234648037000F003FB00F015FB03F0BCFE434A151CE435424B2B60424E336802263343404E33604048036880218B43036000233E4E33703E490B1C23333E4E33603E4B3E4E33603E4B3F4E33600B1C12333E4E33603E4B3E4E33603E483F4B3F4E3360031C0E333E4E336012233E4E33700B1C11333D4E33603D4B3D4E33603D4B3E4E33603E4E31603E4B3E4E33603E4E33683E4E33603E4B3F4E33603F4B6B673F4B061C071DC8C40E363D4FC8C4991C0E30061CC2C43B4BD36200233B4E336004F0EBFE3A4B6B65E4209EF73AFB0007000F042805D13F20C01F
:FB4BFB0043354A5073000A9073002334490B703448E862F0BC08BC184700B532483249086032480849C86400F039F900BDA0A9090031530900BCC8080035530900F0C4080015AD0900A0190800E55309006C010F0040150800FD0708001E450000FCA9090020C9000000AA09001CC8000004AA090008AA0900388500000CAA09005E04000044050000881308008C13080090130800781308000EC90000801308000AC800007C130800841308002685000074130800D8FF0E0010AA09006216000014AA0900995909004205000062190000E1930900F8A90900ED650900B813080060AB0900CD9F0900014B0900900008001964090070B500200F49104B4B612C
:FB4CF60014E06B099C00EB06DB0E01259D400B592B430B5143004C69C50052195268012632432725AD03AA1A1A530130054AC3009D58922DE5D370BDC0464C1B080050AB090090A809000020704700207047002801D0002000E0012070470020704710B5037814490B700620A9F75BFD041E10D00E230370042343700023437101238370F723C370FC230371A9F775FD201CA9F74CFD012010BC08BC18478105890D030AFC201840FC2803D1F72901D1034800E000207047C04660AB0900554D090004280AD106480378002B06D0054803785B065B0E0370012000E000207047C04660AB090039C3080030B582781202437813439A05920D1B0AFC252B400C39
:FB4DF1002B05D1032A40D105F06FFA01203DE00124FC2B32D1B52A15D0B62A16D0C22A17D0C32A18D0C62A2CD318D0C82A19D31BD0CB2A1CD9E62A02D0F52A22D11AE003F08CFC1FE001F09FFEDFE701F0D2FEDCE701F001FFD9E701F047FFD6E705F076FAD3E705F0B0FAD0E705F0EDFACDE796F7E6FCCAE703F0E7F9C7E7202B04D0042B02D10024201C00E0002030BC08BC18470248024908607047C046DD4D090018C90800002070470148024988607047954E0900201A080030B5051C7AF70AF9041C281C8AF799F98749201C2830062205F09EFC00280BD1844C2560012363717F21C943A01D072205F09AFC00232371002030BD10B5041C0120A04094
:FB4EEC00C1437C4803680B40036089F7CDF878480368A34203D1FF2303600023437110BD75487649C8607047F0B583B0041C012906D164300023C372251C9435AB73EB736F4803689B079B0F032B02D071F7D8F9C8E00023A381E07B484000D1B6E070F773FC002803D1674803691B0101D5012100E00021271C64373E1CFB6880208343C8010343F3600C365F4A1078431006D0C3071B0E31688020814319433160594803691B0102D4381C94F750F9BB69002B02D03B681B063BD4338868460380E37B012B0DD0251C94356B7B002B10D02B88042B0DD3EB7C022B0AD3AB7D002B07D1A72303201855009B78208343002106E00121E974009B782083430873
:FB4FE7002003431F20800283438802034300931B041B0C3F4A1360012030723B4A13691B0152D400984006010F00231A1C012094F730FB45E0E07B002802D1A72301221A55012804D1E37C042B01D072F723FCF37A002B06D00023F372336801204002434033600121B172251C9435A97326480369DB0002D5201C87F733FD338824490B60B0884860381C70F753FC30684006030F2048C05C3072431EA381E37B002B0FD10121387F81401C4A1068084008D1E37C042B05D019480378AB7519480378EB75114803691B010FD5201C94F789FE0BE0271C64373B727B7270F7E1FB636C002B02D05A231B5BA38103B0F0BC08BC184709C1080018AA09000004FE
:FB50E2000800154F090000020800188B0E0054200800DCC80800CC8A0E009EBB0500B4010800F5010800F601080030B50D1C041C75F727FE6B075B0F012B05D1E37B002B02D1A07B9CF766FD30BC08BC184700B52C2204490548BFF724FC034804494161044B186000BD0CBD050028AA09000D510900E402080010B53F4C3F4B1C602C223F49201CBFF70DFC3E48606210BDF0B5041C051C876A28353B4B42331878002866D1201C012172F781F9061E4BDD022804DB201C77F7FBF9002859D1618C8B1F9E4223DA304A13689C420BD0391CAB310878013800D30870731C5910201C76F788FF30E0731C5810E37B002B05D07B6C002B02D06B7F002B25D02FD6
:FB51DD0089B84222D36A89002A06D1A389002B03D1201C71F78FFD18E0BA4200DA3A1C904201D90C2310E04B23A27C1B5D9A420CD102280AD36B7F002B05D014480378994201D9282300E03823A374211C4D31087800280FD00238087000060BD1E37B012B02D0237D0C2B05D0321C201C0523022177F7E4F8F0BC08BC184754AA09000003080074BD0500715109006C210800F402080000B52C2216491748BFF784FB1548164B18601649016100BD30B50D1C041C77F7CCFF022D09D16B23185D002805D0201C87F7B5FA201C87F7EDFA30BC08BC184700B5011C6831CB78002B07D04B7A002B04D18B78002B01D087F7C4FA00BDC0462CBE050080AA090010
:E452D800300308008952090000B57CF702FA00BD00B52C220B490C48BFF748FB0A4B0B48036000BD0A49CB6ADB0007D5094AD3885B00418C8B4201DC012100E000215A3001707047B0CB0500ACAA0900F403080054200800942008000020704730B5041C00292BD0012925D140051BD426E0174D291C1748B7F777FF2988281C262902D103F0ABFD0EE0042902D17CF7C2F909E00F2902D104F09CFB04E089000D4A8958C6F79DFA0A48B7F776FF0028DFD00A4B1C4003E0022901D17BF77BFF201C30BC08BC18470548064908607047F4440800284508009CBE0500FFFBFFFF35530900F0C40800E8
:FB53C40000B5431E04490B6004490B78032B01D1BFF798FF00BDC046E08A0E0038080800F0B587B0061C0491081C00210391A34C2064211C4431009100238B70A0488568002D00D16EE2AB7D002B09D0012203920023AB756361237810208343237006E06069002803D0012E01D970F7B1FE22691D27FF03002A50D0607A012803D19389002B4AD047E08F4B1B5C002B43D1BB68DB0742D4137D092B3DD204281AD1012E18D196756261237810200343237023683B6085490B687233187802282DD0002382490B608249086882490B6803600B68036022E002280AD1012E08D196756261237810200343237023683B6015E0032803D179498B78022B0FD0066C
:FB54BF002801D0032805D1012E03D1BB689B0600D5C0E1122803D0102801D070F7DBFD6A4B985D029000287DD00123DB07334301936B4B6C490868986301236B490B606B490B689B0C9B040B600B6869490868034366490B6001230099CB7066490B6866490B6066490B6866490B60287C1A281DD164490B6864490B6064490B6864490B6064490B6864490B6064490B6864490B6064490B6864490B6064490B6850490B60634908686349086063492DE063490B6855490B6062490B6855490B6061490B6855490B6060490B6855490B605F490B6855490B6019280ED1FF2017302B562A3309DD5B490B683E490B605A49086851490860594908E059490B6891
:FB55BA0039490B60584908684C4908605749086857490860A87B2318042801D3187800E0205C6F2290431870C2E0A87B225C0F218A433107090F0A43225423180428049802D38107101C01E081071878490E6022904308431870234B464908689863009AD378002B00D1A1E022490B689B0C9B040B600B684049086803431D490B600023D3703D490B681D490B603C490B681D490B603B490B681D490B603A490B6821490B6039490B681B490B6038490B681B490B6037490B681D490B6036490B6809490B6035496BE0642C08006C210800ECBB0500DC02080060000F00AC2C080044020800882B08002CFC0E0060020800E08A0E00B88A0E005C0208006CDA
:FB56B500130800D8FC0E0070130800E0FC0E00FCA90900CCFC0E0004AA0900DCFC0E0000AA0900D0FC0E000CAA0900C8FC0E0008AA0900D4FF0E00B8A90900BCA9090030FC0E00C0A90900781308007C130800801308007413080084130800A0A90900A4A90900A8A90900ACA90900B0A90900B4A90900D8FF0E00B82C080048020800BC2C0800C02C0800C42C0800C82C0800CC2C0800D02C0800D42C0800D82C0800DC2C080008689349086093490B6893490B60002101912868826A281C0021C6F79DF8002810D026231A5C002A0CD08368002B09D00298002804D0802301981843019001E0012200E00022237880208343D001034323702020049908406B
:FB57B00001D00120C0037F4908600499090704D47D490B68802083430B600499880801214140A27880208243C8010243A2702868826A281C0321C6F763F874490B78012B01D077F703F805A9714A13687020034018099CF750F82369002B14D0637A032B11D188F7B1FB002806D16A480368032B02D00368062B06D12B7C122B03D101230098837058E005988007800F06D003280ED1069B60490888834209D30398012800D1656170F71EFC012300994B7043E00820B860A87B786223683B603B1C1833221D03929207920F02D1039909680FE00399891A0391D2000968D140049120218A1A03994968914001B40598014301BC1960BA69331C103B042B0DFA
:FB58AB00D2474B1340FF22013282401343BB61102E07D1444908684449086002E040481040B8610198002800D07861E5602672002300990B704B70281C8CF765FC012007B0F0BC08BC1847394B3949087A185C39490B68002814D00120800303430B60364A136836480340364A117849020B43354A1360354A1368302083431020184308E0324803400B602C490B682E490B602E4908682F490860704710B5254C234B607A185C002802D070F70FFF15E06069002801D070F719FC27490868637A012B01D1254A00E0254A13680360116801600023234A136070F724FE002322490B60E3602361637244340120207010BD002803D103480368034803600020EF
:6E59A600704730FC0E0010AA0900D8FF0E00648B0E00A4860E00D4C1080024860E001C840E00E4B60800FFF0FFFF9406080064FC0E00ECBB0500642C0800808B0E00B02C0800FFC1FFFF9013080088FC0E00B42C0800FFBFFFFFCCFD0E00AC2C0800400208004402080060000F0018800E00DF
:FB5A280070B582B0061C65480168890602D5022072F7CFFB624C2568A3682360002D26D0002E18D19EF7A4F9002814D0C30703D52A68916900290BD1430703D52A68D169002905D1830706D52A68116A002902D0281CC5F71CFF9EF7A8F9011C2A685269002A04D0002802D0281CC5F70DFFA0680026A84218D0002D21D02A681269002A03D0281C0521C5F7FFFEAE8123699D4200D126612B7D092B11D3281C73F798FD281C73F71DF90AE0002808D06369984205D166613B4800220121B7F7CDFE3A48C16E002904D0A368002B01D1C5F7DFFE70F766FBA06800284BD08681037D092B20D26369984205D166612E4800220121B7F7B2FEA068A84206D10107
:FB5B2300684968002902D00523037508E0017D032901D0042905D101684968002901D0C5F7B8FEA0680223037501680A69002A02D00221C5F7ABFEA068807B1D4A136870210B401909884216D169469BF79AFE70F710FC002801D0174800E01748028800998907890F04D0032905D1019B934202D33F2301201855A0688CF790F901208CF7A0F9A66066603C3426716671012002B070BC08BC18470948044988617047C046C4C408006C2108000C2D0800201A080024860E006602080064020800295A09009F48A0498865704700B59F4A9007800F01D1116808E0121AC0001368C3402021081A516881401943C90F98480170984A1068002817D0974A026006
:FB5C1E00974A8260974AC2600123964A13700023964A1360964A1360964A1360012902D100F007F802E04068C5F735FE08BC1847000000B500F003F808BC1847000010B564238C48037000238C4803608C4803608C4C236000F04FF87D4A9007800F01D1116808E0121AC0001368C3402021081A51688140194301204007014015D081490B68001403430B6080490B68804803400B6004390B680120800303430B607C4B7D490B6003037C490B60684A9007800F01D1116808E0121AC0001368C3402021081A516881401943C90011D5744C2368002B02D0201CB7F7B5FB7149201C00231A1CB7F790FB6F480168201CB7F796FB8EF712FA10BD10B56C4C2389
:FB5D190068012423436A4C236001239B03694C2360504A9007800F01D1116808E0121AC0001368C3402021081A516881401943090105D55E480368022003435C4803605D4800218160F421C16020210161E8218161E9214161102141624021C161016205239B04036010BDF0B582B0071C01910C1C0022009201235B0250490B604E490E68360C3604211C242903D0151C25291CD102E008240A210AE070300078022802D10824464801E0012446480278012123010D031D4313071B0D1E43FB7B002B00D1E4E00123DB031E43E0E0019B5B003D481C5A3D498C4211D18023DA5D3C48135C1B013B4818188388002B07D0374C1034837A012B06D1344C20344A
:FB5E140003E0002C01D1251CC3E0381C8CF74CFB002800D0402431480368002B07D0602C01D1E02464E0702C08D1D02460E00198042801D0022801D101252D04302C4FD17023D85D00284BD0214C703450E0C046ED5B0900A0190800C005080030C8080044060800515C0900815D0900B55F0900B805080034C8080038C808003CC80800D005080040C8080048C808004CC808009C800E0010800E00FFBFFFFFFF030000BC820E0010000C0068500800673D0200D405080070010F005C000F0074820E000C800E009806080090060800D8050800100100009005080024500800D4C40800502C05D13B6FDB0502D501235B041D432543FF23113370339C4203E6
:FB5F0F00D023095D48C15C0091302C0BD17023D85D002807D1381C2830037D807A19180906090E0091009803031D43FB7B002B02D00123DB031E43FB7C032B04D1788CC306180F03021E43402C25D14C480378002B06D0381C8DF724FE03071B0A1D431AE00123DB041D43B87B9BF7AFFC4008444A1060444A11689BF743FC434A1060434A1368984204D2381C8DF7EAFD002802D001233A4803703E480560466002B0F0BC08BC1847F0B582B00F1C051C0022009201908CF77BFA364E002844D034682F48017800291AD1A87B9BF77FFC40082C4A10602C4A11689BF713FC2B4A10602B4A1368984204D2281C8DF7BAFD00281BD0012322480370274B1C407F
:FB600A0015E06B6E1B0612D4012910D1281C8DF7AAFD00280BD1A87B9BF75AFC41081A4A11600023174A13700123DB041C4314480378002B03D001988CF7E4FE0090174B1C40009803071B0A1C433460042F01D0022F05D13368012109040B43012107E010480378002B06D033680E490B40002133600B48017002B0F0BC08BC184724060800B805080038C8080034C808003CC80800CC05080070820E00FFFFF7FFFFFF0FFF45C80800FFFFFEFF30B5041CC37C032B27D1037D0C2B24D11830437B002B20D121490B699C4202D18B68002B13D0418900680B1858010509A07B9BF7F8FB854201D3281A03E0431B01200007C01A831F1648834205D3201C731D
:5F610500F778FA201C72F706FF237D022B03D0032B01D0042B07D10F480379002B16D0201C70F74FFD12E00C480369002B02D0201C6FF7E4FF06494123585C012804D0002804D10B689C4201D172F772FA30BD6C210800FBFFFF07A42C0800642C080030
:FB61E80070B5041C00253848436912219B0708D5364A1068364A106050304079122800D8011C43209DF71CF8324BA360324B2361201C0830AAF7BDFE2168086063681D60AAF726FF201C1030AAF7B3FE216808600420AAF735FF6061062801DAAAF718FF201C0830AAF7A5FE216808606368002018600420AAF724FFE060201C1030AAF798FE216808606368002018600420AAF717FF6061E368C61A301CAAF767FF042817DD01350C2D14D0301C042E08DDAAF75DFF8100081A2169081802382061CFE7AAF754FF8100081AA168081A0230A060C6E7A16820690B1AE3614018C30F18184310236270BDC046181B0800D4CC0800DCAC0900FF03000001FCFF36
:0162E300FFBB
:FB62F800F0B5444D2B68987B9BF7EBFA46082B68996C301C9BF780FA041C2868011C94314A88002A10D094420ED9037D0B2B0BD00D2B09D070F74FFB2B686433197F012000037BF721F864E00B7D002B06D0CB88F31A1B041B0C9C4200D81C1CC36F6430002B06D00B89F31A1B041B0C9C4200D81C1C8A88B31A1A04120C944200D8141C0B881F1FBA4204D3CB7C022B01D30023CB74214E33889C4204D80020BA422ED303202CE073889C4201D8042228E0B3889C420BD9007F74F771FE002814D0037C112B11D115494B889C4203D829689431052215E08B889C420DD82968943106224A745E2383740CE0F3889C4203D829689431062204E0296894310713
:9D63F3002200E0021C4A740B7E012B04D1531F012B01D804234B74F0BDB421080034020800EC02080010B5A3F783FB0B494B699B070FD50A48036801200343084803600A249BF700FD013CFBD1044803685B085B00036010BC08BC1847181B0800F0FC0E0010B5094C2C220949201CBEF791FA0849E160084B1C6010BDC27B4A4002D0838C05490B607047C046E0AC090034CC05006D64090010040800CC8A0E0010
:D064B800F0B581B0041C00210091C56D8726F600002D04D1301C9BF756F8051E03D0301C9BF751F80090264F3B68002B08D1301C08309BF748F83860311C0831BEF768FD20480368002B0DD1301C08309BF73BF81C4A1060311C0831BEF75AFD19480368002B07D03B68002B04D0002D02D00098002817D1E02300201851E565E4210B59DB0208D46358104803430B515022206807217DF786FA0D480368002B0DD19BF71EF80AE0E5656060E4221359064883431351206807217DF795FA002001B0F0BD444408009C440800000010006003080038
:7465900030B5E4221358012109058B431350051C79F7DAF90024002800D0EC65E86D002802D09BF70BF8EC656868002802D09BF705F86C60074D2868002802D09AF7FEFF2C60054D2868002802D09AF7F7FF2C6030BDC046444408009C44080000231360012805D10123DB040B6007239B031360704700006E
:70662C00B0B503685B011948C21880270F404906490E9068002827D00568281C041C002F06D0437B8B4201D0002300E0012306E0037B5B088B4201D0002300E00123002B0FD0A84205D1137C002B02D1D37F022B0AD0111C08319BF76CFD201C9AF75AFF02E00068A842D9D1B0BDC0467C290800CA
:1A66B80010B5002907D0041C70F748F9201C6EF7B3F8012000E0081C10BDFD
:4066F80000B50D48B6F7B7FD00BD30B5051C00240A49A300C818C378AB4204D1A300C8180421BEF755FC0134082CF1D330BD00B50068FFF7EAFF00BDB8520800504708000B
:FB67400030B5104D0D24281C0022111C90F7D0F9281C90F7C3F92035013CF4D130236343094818182C23195C022904D1406A002801D09AF72BFF0134022CEFD390F778F930BDC0467C29080080590800F0B582B0051C0E1C041CB0346946207B9BF783F82C482D4A1178431AF6000198991940182A4B984201D3032005E00121284B984200D30221081C009943185808031D5808860176092188301C9BF71AF86788391C77F796FA381A4308AB80831958014009A0601422291C1B4804F022F802B0F0BD10B5041C184908680007000F01280BD80B683F2000020340190A144A906EFFF7B5FF134A9378A37410BC08BC184710B5041CB3F767F80F498B780080
:3D683B002B07D1A37C0B498878834202D0201CB3F737FE10BC08BC18470E020000C4A90900A90300007102000000980E00A88B0E0038B0080074150800AC21080027
:FB688C00F0B584B0061C181C01AB07C300252C1C03F0D8FF00902F1C0199002918D0F37F022B15D1337C351C002B01D00C3500E008352A68101E00D01068002A07D01168914201D12C6001E00B6813600C6014E0357412E00A6801928A4201D1F76001E013680B6001990F60002C04D0236813602260141C01E0141C1260F1680029E9D115E01A680193111C9A4201D1B76004E0136801B40298036001BC0F60002C04D0236813602260141C01E0141C1260B368002BE6D1002D0BD02A68002A05D0136803602B681860286007E02860006004E0F37F022B01D10323F377009803F07AFF12E02068051CA04201D1002401E0036823602F600399002904D0028A
:796987009900229CF7E1FD01E09AF7D6FD002CEAD104B0F0BD0A480B4908600B480B4908600B480C4908600C4B0C490B600C4B0D490B600D4B0D490B600D4B0E490B6070476971090064C80800C36F090068C808008976090080C80800B96A090054C80800A96D090070C808000977090078C80800F0A80900B0060800D7
:FB6A380070B5051C7CF705F8011C041CEA691204D20F2273032363730C34414B186800090226800706D5F42043599B0702D5A6703C480660F4204359DB0601D4002A01D1002000E038484860281C90F796FC0023364A137070BD30B5041C0D1C7BF7D9FF33494B681A7BD207D20F0273052343738573304A4260011C201C90F77EFC30BD10B5041C0321FFF7E6FF294A5368987B244A1060201C8DF780FF10BC08BC184770B5041C7BF7B5FF011CE2691204D20F027304234373F8231D59837B0126B34335402B438373F8263559AD07ED0F0226B3436D002B4383730C30002A0CD1164A537815785B199578EB18D578EB181579EB185279D31800E00023C3B6
:FB6B3300700F484860201C90F73AFC70BD00B5094A5168897B8B07DA0FC907C90F8DF77CFF00BDC046641B080088500800D34902005CC80800F44408002B720900E8500800094A020010B5041C6D4A1068C00702D4112323702BE008790002C9780843012178F71FF8002803D0F8221158490701D51223EEE7C169090403D4F4210B589B060DD55F4B19684906490FF42212589207920F914203D15B490B78002B01D00C23D7E701230B7028342370FFF72BFF10BD30B5051C0C1C031C28330120187001F0F4FA002801D10C2022E020790002E1780843012177F7E5FF00280BD0F8221158490701D40B2013E0F43003685B0601D40E200DE042490868400658
:FB6C2E00400F022808D1414A1188601D01F040FA002801D10D20287030BD30B58A7B002A01D1122340E0374CCB7820680225002B06D0012318432060364803682B4305E001239843206032480368AB43036031480B7903704B7943708B7983702F48CB79202B02D12E4B186002E02D48402BF9D0487A00020B7A184340102A4B1860C0006080C87A00028B7A1843204B1880487B00020B7B1843244B188024480280CB7B244803700B7C2348037030BD164A1168C907C90F817317490B78C3734B7803748B784374164A1168090A8174164A11684900C174090A01750D4A11884175090A8175114A1188C175090A017610490B8843760F490B7883760F490B11
:FB6D290078C3760E23C3707047C046641B08005CC80800ECA90900301B0800A80608001E200000940608003A40000090060800EEA90900F0A909000DAD09000EAD090010B5041CFF20052193F729FF002806D016238370C470210A017193F7ABFE10BD10B5041CFF20052193F719FF002806D018238370C470210A017193F79BFE10BD10B50024201C00F0F0FB0134042CF9D31821AB48BEF704F901F04CF8A9480268D10708D55106490F022904D1A64A116872230B4313600023A4490B70A4490B704088C010A3490860A3490B7010BC08BC184730B5051C00244E2363439F481818811C281C062203F0F7FC002803D1201C00F0BBFB02E00134042CEDD3CF
:FB6E240030BD00B500214E204843954A8218507800021278104302D08DF788FC07E001310429F0D300238F490B708DF7B8FD00BDF0B5061C04250024894F4E206043C019811C301C2830062203F0C8FC002801D1251C02E00134042CEED3042D0DD100244E206043C119487800020978084301D1251C02E00134042CF2D3042D18D24E236B43DC19311C2831A01C0622BDF768FD5C20805B2070000A6070311C201C083000F0F6F9311C28316F480622BDF758FDF0BDF0B5041C0F1C00264E207043684BC518A91C381C062203F088FC002803D00136042EF1D326E0201C78F72EFA291C0831201C00F085FAE0690F21C9050843E061201C0F2303863030867D
:FB6F1F008D69780C022A781443A64205D0584A0121B14013688B431360554A0123A3401168194311608485012000E00020F0BD10B582B006224F496846BDF714FD002469460623634340481818062203F049FC002801D0012003E00134042CF0D3002002B010BDF0B582B0071C062243496846BDF7F9FC0024344E0622151C65436946A81903F02EFC002806D1391CA8190622BDF7E9FC012003E00134042CEBD3002002B0F0BDF0B5041C0E1C171C344DFF2001302058002801D0B6F744FAF8210859C00700D491E0002E00D18EE0002F00D1A5E00859800700D4A1E0201C6DF773FCE069F821884340210843E061F822105904229043F8221051201C90F7CD
:FB701A002DFD206800216DF79BFC164A1378002B0AD0E06900043CD41B4880791B4A1178014001D1002832D1261C5C36318800231A1C181C94F752F83088FFF798FE00232B70084803701048037022E0C04661AB0900641B0800301B08005CC808005DC80800900608000DAD090079AB0900BFC10800B7C10800D0200800E0A80900E8A809000CAD0900D8AA09000EAD090001232B70201C28308DF737FBE069000414D48DF754FB8DF724FE012801D18DF743FB98210859C00008D5E06C032189068843E064201C012181F72FF80023B9490B70A36B1B072FD5E06900042CD4B6494B681B0528D5201C01218DF7E9FD23E0B2490868800715D5F822105908E8
:FB71150021084310518021E069000400D44900AC4A11600120000778F7C6FD002E0DD1201C8DF772FC09E0E069000403D5201C8DF71EFD02E00123A34803700120F0BC08BC184700B5FC300068002801D0B6F77EF900BD70B59D4D03685B019C49CE18041CFFF76DFEE069000403D4201C00218DF7A8FD20687CF75FFC201CFFF7E2FFE0690006C00E0A2817D1012120688140904803688B430360201C74F771FCE069F821884340210843E061206883F794FF201CA030042103F051FB211C301C01228FF78CFCE069F821884318210843E061F82108590721084340218843F8210851206801218140CA437B490B6813400B606DF7BEFAE069000402D42B7848
:FB721000012B04D05C342088FFF7A6FD01E000232B70012070BC08BC184700B5011C1D2078F7B8FD08BC18470000F0B5071C00246B4E0622151C6543391CA81903F0D8FA002805D1A8190621BDF7B6FE012003E00134042CECD30020F0BD70B5061C00254E236B435F481C18A11C301C062203F0BFFA002803D00135042DF1D310E0221C25329107890F01D1106808E0521AC9001368CB402020411A50688840184300E0002070BDF0B5002900D1ABE0041C00D1A8E0C8694005400F2070C8698004400F6070486BA21C93079B0F01D1106006E01070000A5070000A9070000AD070886BA21D93079B0F01D1106006E01070000A5070000A9070000AD070C810
:FB730B006B221C0A3293079B0F01D1106006E01070000A5070000A9070000AD070086C221C0E3293079B0F01D1106006E01070000A5070000A9070000AD0700D1C50352888A074000AE074AB782375EB786375CB7BA3758B7EE375CB7E237624480378637698204058400FA076E889E076000A20770F1C9C37B86D221C1D3293079B0F01D1106006E01070000A5070000A9070000AD070261C2036C86C4001C00F7070C86C0001C00FB070C86CC000C00FF070C86C8000C00F30711022291C1031701D17E05CC80800181B0800641B0800D45008005DC808000CAD09007C290800E4C70800B4C4080061AB090079AB0900C8A90900BDF7C2FA1022291C20315E
:FB740600301C1530BDF7BBFA4534F8782070F0BDF0B5002800D1B8E00C1C00D1B5E04978CB0022785207520F1343C2693F2109028A439906890C0A43C261A31C9A07920F01D1196808E09B1AD2001D68D54020218A1A5968914029434163A31D9A07920F01D1196808E09B1AD2001D68D54020218A1A5968914029438163231C0A339A07920F01D1196808E09B1AD2001D68D54020218A1A596891402943C163231C0E339A07920F01D1196808E09B1AD2001D68D54020218A1A5968914029430164061C5036E17C0902A27C11433180637DF370237DB370A37DC373E37D8376237EC376A37E98210A58D200D208191C1D2349070A4398210A50217F0902E27E
:FB7501007E1143F181071C9C37221C1D329107890F01D1156808E0521AC9001368CB402025691A55688D401D43BD65251C20356B78002B04D0C16C012292061143C164AB78002B04D0C16C0122D2061143C164EB78002B04D0C16C012212071143C1642B79002B04D0C16C012252071143C1641022691D301C1030BDF704FA1022291C1531301C2030BDF7FDF945342078F870F0BD10B5042810D24E21414334484418002020706070A01C0621BDF70DFD314A1188201C0830BDF707FD10BD70B5FF230133C458002C03D0201CB5F74AFF0CE0061CC518142099F79DFF041E0ED02860321C25490023B5F71DFF244A11682448BDF704FE011C201CB5F71FFFD5
:FB75FC0070BD10B5041E13D0F830006840070FD5201C28308DF787F81B490B68FF2B01D08DF7A3F8E069F821884340210843E06110BD10B5041CFFF7E4FF13225C23195B002093F7FEFBE0690006C00E0A2803D10A21201C79F735F8201C7FF70AF8201C7FF735F9201C7FF721F8206877F77DFC10BDC04679AB0900CAA90900F3450200CCA90900D43000008C06080010B5AC4AAC4900780302AC4C20680004184308601078C3020868184308606068000423681B0C18434860507888600020C860012010BC08BC184710B5041C00290AD18DF7A3FD70342078042815D19C484379012B11D10EE0022906D15030407F76F7CDFC0023A38107E0052905D10006
:FB76F700F0E7F8002801D18DF769FB10BC08BC184770B5904D2B68FF2B56D1002077F790FA2860FF2850D001238B4803608B4803708B4C0323E3748B480168201C6FF7CDF825232374022363743323A374201C7030042303700023437023632384824803685B006384242000230355E3818EF721F8286877F723FD7D4E30607368802003437360286877F7A2FC211C503103680B77C269C8680726B0433240104301225202104380221043C8600023CB750B6813430B6001238B7702234B776D496D488DF758FB201C6FF70CF8012070BC08BC184770B5061C041C0023674803605F480378002B04D140235C490B60980527E04B0704D570342078042867D184
:FB77F20044E08B0724D5351C70352B78022B5FD16978564802685A4803684B43301C934213D95300638418360123737304232B703323A37400236B706FF772FA2023474E3360D80578F741FA42E0013169701EE0CB073DD5351C70352878022838D315D0042817D334D147490868430E47490B6047488DF7F4FA02232B704823A37440490B685B006384183401236373301C6FF747FA1DE0102331480360180678F715FA334803685B00638418340123637304232B7000236B70301C6FF790F835493548062202F0A4FF002802D133486FF786F870BC08BC184731498868002805D0007C2438012801D8012000E00020704700B51D211C4802F0C3FF1921270D
:FB78ED004802F0BFFFFF23274A1360144A13600023264A1370FF23254A13608DF764FA00BD10B583B0041C0C22E92109036846BDF732F8694600200A7801312254174B1A5401300628F7D34B78A37103B010BD0DAD0900B8890E0038800E00A42C08008C060800D4500800BEC10800F0500800B00608009006080000820E00D85008006400080018800E009806080098830E00E4500800E0500800B1AC0900E8500800645108006C21080088060800BFC10800DCA9090000B5002346490B7046490B7046486FF74DF846490868FF2804D077F7D4FAFF2342490B6001234248036042480378012B04D18DF732FE00233E490B7000BD10B5041C70342378022B1C
:FB79E80024D13B4B1968043B1A68CB0717D4530315D54B0313D50723DB040B400FD153061A0F032A0BD18B05DA0E082A01D00C2A05D13048FFF777FF0323237006E0CB0704D46378013363706FF76FF910BC08BC184730B582B0041C27490B7E002B39D126490B68702003401D09A37BAB4231D023490B68FE20034000D00123002B26D10020B2F785FE002821D11E490B689B061DD48BF7BBFD002819D16946281C9AF720F868466FF7A7FE68469AF74DF800209AF7ADF81448002343628362009B9B089B00416B59180B011B09436302E0A07B9AF79DF802B030BD5CC80800BEC10800F05008008C060800D4500800BFC108002C8B0E00D8AA09002C2D0822
:FB7AE3000024860E00B4C4080008800E006C210800037B0C30FF2B04D14378202B01D1002000E001207047F0B582B00C1C01D10420A3E0051C52480268002A08D0281CC3F7C5FE002803D0FF300006000E95E0F82148590007800F01282DD1E86900042AD4237B5B0827D047490868800723D5201CFFF7CEFF00281ED0281C28308DF7EDF8F822505902229043F8225051201C99F7E5FC0821281C7EF739FC8CF720FF0123394A1370394A1168281C8CF707FF281C8DF743F8BBE72F687B0135481E18F37F012B55D0237B5B080ED1637B052B02D1304900910DE030490091042B09D0DB002E48C218009204E0201C0C307AF70AFD009000990B79637700236D
:FB7BDE00236002F036FE01900099486840010BD4B068002805D003682360B3681C60B46011E0B46024600EE0F068002805D003682360F3681C60F46001E0F4602460211C281C90F73CF80123BB401649086818430860019802F015FEE8690006C00E0A2803D1381C73F755FF09E0082807D1381C6CF708FE03E0201C99F773FC5AE7002002B0F0BDC046BCC80800641B0800BFC10800885008007C290800D0A80900D8A809006CCF05007429080070B582B0002301935F490868202800D1B6E010285AD15D49086877F70FFA051C5B4E301C76F732FF002811D0041CF822135801221343F8221350EB69C06907210B4088431843E061286877F748F90CE02C81
:FB7CD9001C311C281C28300622BCF74FFEF820435902208343F8204351311C201C8CF795FD002805D0F820035901200343F8200351201CFFF756FC02F09EFD012321688B40404A11681943116002F09DFD20686CF7A9FCE369F820834310200343E361206801216CF70DFE201C8FF749FE201CFEF7C6FEFF233148036059E0FF23013398424AD12E4876F7D9FE041E50D077F745FBE369012000068343F820834310200343E361E36C5B005B08E364EC210B59000683430B51201C00217BF7BDFB201C00217BF714FC6B4601AA211C4C31201C283096F714FA002806D0019B002B03D0201C7BF70CF803E0211C002077F7EEFFFF231248036014480368012B9E
:587DD40018D1E3691B0415D411480368002B03D1104803680E4803608CF7B0FC0AE0402802D18DF788FC05E001235B02984201D18DF719FC012002B070BDC046D45008008C060800E8500800B4C4080088C8080088500800D4A909008A
:087E4400FFF7F9FD6FF71AF8D2
:FB7E5C009F48002303608360704770B59D490B68180A9D4A402803D19C49D1609C4906E09C490143D160030219189B4BC9189B4D29609B4C9B4963685B0E2468E407E40F634009D0402807D17F2464020B68964D2B400125ED0406E0FD2424020B68924D2B400325AD040B600B682B430B6000238E4E336003040B21090459182143032631438B4E31600F30106070BD10B57C4A1368002B05D0612101220A546EF70BFF05E0041C6EF765FD201C00F0B0F810BC08BC184710B5041C7E48416A002902D1836A022B09D9032904D1836AFF203630834202D2201C6EF7A7FF60237648195D405C80210143754A11606D480368744A13604368172080060343534C
:B37F570060FFF785FFA37B704A136000236F4A1360082113206DF717FE10BD30B5041C002927D1FFF7C9FF6A4D61342178694A0023D056012907D17DF765FF0006010C2868654A104006E07DF75DFF0006000E2968090A0902084328604A4A11685F484143494A1068000A0430BDF71CF95C4A106014E0022907D101235A490B604034607F76F755F80AE0052908D1002355490B60FFF76EFC002801D18CF7F0FE30BC08BC184700B5374A011C1368002B0DD09368002B4B
:FB800A000AD19389936060310A780023022A00D2531C0B706EF778FE08BC184700002C49037D022B07D10868431E00D30B608868431E00D38B60704710B5037D092B0CD13D4C3D4A106877F7B0F8206060688021884360603A4AD078206210BC08BC184770B583B00024364E4E256543AB19991C3548062202F0BFFB002803D00134042CF1D305E0A919487800020978084300E0002001A9C8700821000A02AA1070012301A883706846831D2848032292F7BDFF03B070BDF0B5061C0F1C054C6368FF2B45D1012076F7B3FD6060FF283FD100207FE0D8A9090094060800C8890E0040C07DC0447E000000D07DC0043E00008C800E00E0AA0900B88A0E00FFE3
:FB810500FFC3FF94830E0098830E006C210800A8060800A4860E0040820E0000830E00F8800E0004830E0092030800FF00FFFF710200009C830E00F0FC0E0000820E00DCA90900B1AC090079AB0900B7C10800B6FC00002A4D0123EB742169281C6EF7B6FB2760A389A3602649794326480068000A0430BDF740F82449086024232B7402236B743123AB74281C6030002303700123437000238370C3702B625D2002234355606877F704F8A8730123EB73184F391C301C8CF757FE606876F7F9FF391C6EF7FAF9311C13480622BCF7D9FB2169281C6EF78BFB0120F0BD09480368002B00D00123002B09D0007D002806D0072801D0002000E00120002800D03E
:2E820000012070476451080071020000940608009C830E00E0AA0900B1AC090000B5F8210B585B0702D4042180F7D0FA00BDF4
:FB82380030B5051C041C08790002C9780843012176F7C5FC002802D112232B700EE00834F42109584907490F00D00121A1715C300088E071000A20720323EB7030BD000070B582B0051C0024200123181B0145481E18F821885940071AD4306876F78EFF6968884214D1301C77F7B4F800280FD03D4B69460B8002238B705C23985BC870000A01A90870394A6946301C81F73AF801340B2CD8D30123354A1376686872F7E2FD686873F7F6FA6868B2F723F9696830486EF7D8FD69682F486EF7D4FD69682E486EF7D0FD69682D486EF7CCFD6C68002C45D10C2363432A481D18A87A022831D304280ED32ED1281C82F7B4FE061C288000236B72E87976F7C816
:91833300FEA03006810C3028E0281C82F7A6FE288000236B72EB7999005B189B011B495E18311CB831487100230B71C436B379002B15D073792B80B3796B8033796B72281C82F78BFE7071301D07E0002807D0281C82F783FE2880281C09300023037001340E2CB9D302B070BD88380800530C000043720100CC2F0800B42E0800682E08001C2E0800D037080040490800140B080088
:FB841E00F0B5051C13235B049F4F3B60082105206DF7B6FB9D4F3B689D4803403B603B68C00703433B608B4F3B6802273B43894F3B60974C984820620123974F3B60974FB868606278686065A8692430C17880220A43934F3A60934E8378B07B002B0ED1924D0021B0F7DFF8B169081C243042781302007B18430022B0F7ECFA09E00121B0F7D1F88A4D8A4A13680120400603431360884805608848838A8848036000232360F0BD0523838183692633187801280FD10021CB4382490B6000234B607D490B68802003430B607A490B68800403430B60704700B5C369002B23D013235B04694A13605F4A13685D4A13605B4A1368594A1360554A1368644A13C8
:C3851900607248724A11684160724A11684161714A11688160714A13680360704A1368704A136061486EF7BFFA08BC1847000030B5052383816C4A116806220A40062A02D181692A3108E08B0702D481692C3103E04B0704D481692E310B8801330B8013235B0449490B605049CB69002B12D1524C2568C37B012B0CD12368802083432360022099F7F7FB80231D43A06899040843A060256030BC08BC184713235B043A4803604148C369002B02D1434803680360704700B5002901D1FFF724FF08BC18470000FE
:FB874C00F0B581B0051C0C1C08790002C978084352D00020ADF748FBFF2801D109234CE0071CADF702FB0023038121790902E27811438186C186051C83F74BF82E1CB03673885808E8806379252B0ED2394800900521BCF713FC6179C8084907490F01228A40009B195C11431954B07BFF233D334343314819180091281CAFF7FEFC2F4885662521281CFDF7DBFF307B0021AFF733FF0523AB80381CAFF77EFD00999E3101200870381C002100F035F8A279E179381C00F005F801E012232B7001B0F0BDF0B50C1C171CADF7B0FA061C201DB4F78FFB051E1ED0B18D0B051B0D012040031843210408432B1CA907890F01D1186006E01870000A5870000A9865
:FB88470070000AD8703A06120E2104090C281D91F70BF9281CB2F7FAFEF0BD30B50C1CFF233D3343430548C51801F0EEFFA2352C8001F0F2FF30BDC046F44E0800349D080038B0080000B5C37B012B05D1A9490B78002B01D101230B70B2F709FA08BC1847000000B52C22A449A448BCF767F8A348A34B1860A3494160A3498161A349C16100BD30B5041CBE342178FF233D334B439F495918FF2208328B18FF2119709D493C30062201F088FF00280CD19A4D23782B6002236B717F21C943A81D072201F083FF00232B7130BD30B5041CBE342078FF233D3343438E495D18203082F7E2FB281C6EF78FF885F7B1FB8B48036821788B4203D1FF230360002326
:FB894200437130BD00B5017D032901D0042902D1B2F714FA09E0037D062B02D100F008F803E0092B01D1B2F73AFA08BC1847000070B582B0051C041C8034E37A002B08D0036DBE3319780820AEF779FC0023A376E3726378032B28D0A87B98F79DFF4008218C431A1E04360C618C00291DD08E421BD36078012806D1688CBCF746FC062803D13E2002E0042803D008202B6DAF33187003236370281C6DF7F8FF2B6DBE3319780520AEF74BFC31E06068002808D00090002301936946A87B99F7BFF8002363606378032B11D0FF201930285A864209D8A87B85F7DFFA002804D1281CB2F719FD002802D04E49C8780CE06378002B07D14C4BA87B185C0328023C
:FB8A3D00D24949887801E047494878A874281CB2F7F5FB02B070BD70B5041C0E1C384D2878002802D0013828702878012804D83F4A13683F490B401360002816D0201C9830C378002B02D18188CA060ED58379002B11D0311C201CB0F743F92B78012B0AD9311C201CB0F70FF905E0201CAFF7D4FD201CB2F77DFB70BDF0B581B0041C051C80350027AF81EF76FF230533C618F37D0133F375C37B012B13D17378002B19D1254803689B0715D5A07B98F7F7FE80084100A06981420DD098F78BFE4000686008E00123737017480378A3740123DB07B361B77018480068009083075DD516490B685B0602D40098430732D5A07B98F7D5FE400828846B78012BA6
:FB8B380020E0C046FDCC080078E4050020AB09007815080047890900B78A09008D880900349D080009C1080018AA090074150800E3C008001C800E00FFBFFFFFBC8B0E004015080008D102236B70236D588900016884201CB2F7FAF9F37D012B07D17DF759F9011C201CAEF7F0FB01F0EFF92C484379022B14D1236DBE330068197888420ED17DF747F9264B991D1A7988541879411C0720BCF752FB214B1871214B1F707DF738F9B074009906220A40062A1ED1236DBE33187885F724FA201C00F0A6F8F078012804D8184980000B5C01330B54E37B0099201C002B02D1FFF71FFF01E000F054F8201CAFF71AFDAF7214E0B7758B070AD5A87A0D490B789887
:898C33004205D2E37B002B02D00130A87206E02B7E002B00D02F76201CB2F7AFFA01B0F0BC08BC184718AA090086030800ECB008001CCD0800F0B5061E20D00768002F1DD0407CADF77EF8051C707C182141430C484418786890F71DFD98F79EFC381C98F755FC00233360217A01312172217A05480278A88D90F752FC00232372F0BDC046F4B008007C15080027
:FB8CC40070B5051C0E1C041C8034A37F002B1ED0B0F723F8184A537C012B09D9E37E002B02D1A08BC10603D5311C281CAFF7E8FFCD23585D00280AD0FF230533E818837D002B04D04378002B01D1012383700B490B681B070FD56378022B0CD1FF201630285C002807D0A0898004800E0023002800D10123237670BDECCC0800E02C0800F0B5041C051C3A4806689835A8880712F306D90FE9707307D90F0307DA0F002F04D0344803685B0300D5111CFF231533E0184378002B03D1002901D0012343708A4216D0AB79002B15D1002F08D0D0231859C168C91BC16002D48368DB1983600122AA71201CB2F73DFB201CAFF730FB01E0002383713307DA0FA87B
:FB8DBF00884307D90F8A4234D11C4F397C0A0702D5B304990E2DD1184A13689B0303D5B3079B0F032B25D004214840A880251C5035AE87B304980E1CD020221149BB68181D01F01EFDCC342078800712D50D490B68012080030340580B0BD02B68BE331878ACF7A9FFAF303D210170012028870023AB87F0BDA88B0E00E02C0800ECCC080080980E00BC8B0E0010B51F4C2068002805D08008800098F773FB0023236010BDF0B5051CC668B469002C16D0B0F7E7F8002812D1154F3A1C211C1331E01CAFF7BFFF381C00F00AF80023AB60EB60A008800098F755FB0023B361F0BD00B582B0262369460B800190081C76F7D9FE02B000BD00B54368002B04D01D
:1A8EBA0010220448002192F7B8F800BDC046E49C0800C2AC090017200000CD
:9C8EF000F0B583B00291FF233D3343432248C618356D01F0A5FC371C90372C1CB0348E239A5B02998A1A1204120C638853433A6FD21851014909019101F09AFCF37B012B0ED16B8B5B000093288B4000019A101841014909181CBCF775F9A0800098E080281C82F764FCF37B002B0ED1E68870086883A188019898F753FCE288011C101CBCF760F9301A400828830298431E3B800123BB7203B0F0BD349D080061
:F48F9400F0B581B00090ACF7ECFE041C0027364E336BDB071FD5B4421DD0251C2C354223A97D9A5D914216D1291C1031301C3C30062201F01BFC00280DD101F03FFC051CBE36307800F036F8281C01F03FFC3078AFF7A2F903E0C03601370F2FD8DB0098B2F7F3FA251C0123EB852C35201C80F7DBFD00980021ADF7DBFF1C4A13681021DB0603D5A971201CB3F767F9201CB1F725FBBE342178FF223D325143144BC9187F23FF2023300B54A623FF2017300B5401B0F0BD10B5FF233D3343430C48C418201C80304178012907D1418C608CBCF7F3F8062803D13E2002E0042903D00820236DAF33187010BD2890080040150800349D08004B
:BC909000F0B5061C046D2B4803689E4201D1B0F73BF8301CAFF777FE351C8035288901380ED32881288904236B70002808D1301C6DF785FCBE3421780520AEF7D9F838E0687800281FD1B07B98F7FFFB4008B034A16898F795FB01239B0698420CD267883B1859014909381CBCF780F87843A168081840014009A060A06800236B700223F374B06112E0022810D1AB7E002B0DD0E889298A431A1804000C074B984205D2EB7A002B02D1301CB1F7CFFF301C6DF7E8FDF0BD6C210800FF7F00002F
:8C918800F0B5051C1F49FF230533C418E378980000230B544318581C00230370AF692B6D1889421C267C688C5043B04063681B1858014009381A01239B06984220D2B31D20789840A368D901EB7B002B00D15143E268824200D3101CBCF70CF8011C802800D980219F352970074803789E4202D2701C207404E000230434191C381C0BC4F0BDC046ECB008006F1508002F
:E4922000F0B5061C071C9C373888102101401D490BD01D4BF518EB7898000A5C9301AA68D218AA604318597811E0174BF518EB7898004118487800280DD08C78097861438901BBF7CBFFA9680918A960211C8B01E868C018E8602B7C002B11D1E86800280ED0AB68D901F37B002B03D1336D1A8901325143BBF7B2FF802800D98020F870F0BDC046ECB0080004010000F0B50D1C114C20600B68DB0701D598F7A8FA0F4E0020706637680E483840306098F7B4FD98F7B2FD2868E0606868A0600220706698F7AAFD98F7A8FD98F7A6FD37600020E060A060F0BDC04600820E001C800E00FFFFFFFDE5
:30930C0000B54068084A13681979002909D1074A13681B0605D4002801D098F70BF9012000E0002000BDC046C04F0800E02C080011
:7893580030B5041C80304378002B1BD10323E374252101230B55837E002B07D0236DD98B09014184A36903840123C372618CA06974F7C2FC238C984204D02084216DB03188800880FF230133E158E518A06998F733FA216DB2310A88011C101CBBF722FF011C201CB1F776FFA3692B60201CAFF784FE00236B7130BD31
:FB93E000F0B581B02F4806682F4805682F480378002B52D12E480368AB4203D12D480368B3424AD02C4C2D4FFE20284007D1002D03D02B480368DB0301D5002E1CD063681B071B0F022B02D0022098F789FD25480078606324480078A06366F707FF01F01FFA822141432068642250436430BBF7D5FE431C3B6018E063681B0702D0002098F76EFD00206063A063184A13680093174A1088392109014143181CBBF7BEFE386014490098BBF7B9FE134908603868A06107490D6007490E6001B0F0BC08BC1847C04614CD0800B4C4080008C30800B8CA0800F8A909000C000F00DC5E0800FC0A080009C308000AC30800C02D0800E80A080020CF01009C000FEC
:7594DB0000381CFFF7F4F902B0B1F736F9FFF712FAB1F743F930B5041C13490B685D78B0F7A3FE022C01D0042C16D1281C203081F7EFFD042C07D10D4800231A1C191C91F78BFD022102E0022C03D10821281CADF74BFD281CACF7C8FC05490B689879012801D1ACF72AFD30BDC49C08000E200000C89C0800EB
:FB956000F0B5041C00216DF792FF002803DA01234E4843716FE0061C251C7835687A00280DD1A07B98F7A9F94008236DB833196898F745F9002804DC687A002805D0002E03DD201CB1F703FE55E0E37B012B03D1002801D101236B72A878802101433C4A1160082105206CF7EAFA384A5379002B41D1AFF7A1FD374F381C052101F048F903233B74201C00F037F8AFF752FDEB8A002B0AD1FF201630205C002805D1AFF78BFD3B7C082003433B740023AB74FF230533E6180023F375201CB1F7CEFE264A13780021002B00D101211170F078FF2806D16B7A022B03D1081CF070A3697360012805D8F1708B001C48C0187B7C8370201CAEF7F3FEF0BD30B58464
:6D965B007C18490B788374051C012200216DF7AFFDAC742C6DB223195B0239884200DB081C11494143E5208000BBF7BAFDFF210531695C884200D3081C32342178490701D5012801D8002800D101200349487430BDA42C0800A4860E00ECCC08006C150800ECB008007415080071020000F1
:FB96D000F0B583B0012100910027C0237B431A481C18206BC00729D5251CBC356B78002B24D1261CE38D2C36002B1FD0B379002B02D00021009119E0211C0C310F48052201F076F8002811D00223B371201CB2F770FD01A9201CB2F758FD01A9A878B1F7F2FD082201A9A878B2F774FE01370F2FCBD3009803B0F0BD28900800004F080010B5002912D140498B79002B0BD03F490B69834207D13E4C2368DB0603D54631012008700EE0AFF797FE0BE0022909D1011C48318A880B7E9B18013383814B889B1A4B8010BC08BC184730B5314A11680B06D90F884218D12F4D2C68ACF7DEFBC1780B02817819430279130419434279130619438C4208D12A1F139E
:FB97CB00681A0C41780B0200781843824201D0002000E0012030BDF0B583B0051C00910026041C58342379002B2CD0012601A8B0F769F9071C6379002B13D0E378012B07D13023585DFFF7C3FF002801D1061C19E02835AB79012B04D101A9381CB0F707F8061C0F480378002B0CD0012F0AD1029B03208003034001208003834202D1012300980360301C03B0F0BDC046AC210800642C080008800E00A88B0E0088980E006C9C0800F0B50D1C041C002D14D14B488379002B0CD04A480369A34208D1494A1368DB0604D5031C46330120187036E0201CB0F7FBFC32E0FFF754FF022D2ED1414A131C5421085B0004271C52373988084318644433251C56355E
:FB98C600A807800F01D12E6808E02D1AC0002968C1402026301A6E6886400E431E60A36B002B0CD1A06EC16B91603C30457908212D0200792843D06013680B431360A06E806A9064F0BC08BC1847F0B582B0041C051CAFF7A1FF58352B79002B31D0EB78012B10D1201C28308379012B0BD16B79002B08D1007AFFF72DFF002803D1201C6CF7DCFB1DE0EB78012B1AD8A66E6846B0F7BBF86B79002B0CD1071C6946301C3C300622BBF70BF8423637706C340120207012E02E231B5D012B02D16946AFF759FFA37C0B498878834202D1201CB0F7AEFD201C0121AFF758FE02B0F0BC08BC1847AC210800642C080008800E00808B0E0074150800034B0448037C
:4799C10060044B044803607047C04648A909005015080074A909006415080010B5041C6CF78FFB201C6CF7F2FF4A23002018536523195D0220ADF743FCA36EBC3318780021AEF71FFE10BD99
:149A300000B5011C32310B78FB2213400B70AEF72BF800BDFA
:4C9A5400F0B5061C0F1C104D2C68A07B97F73BFF80084300991C608CA26983185801400997F7CCFE041C002F0BD0B17B2B68987B6DF701FF002804D1032C01D8002400E0033C201CF0BDC0466C210800C8
:FB9AA800F0B586B0061C4568039581780A07120F0092C07802908F0943191A79059200200490C04A13681879002804D1BE490B681B0600D4C9E10098062800D9CAE10598002808D0122806D0301CAEF7C9F9002800D1BAE1BEE1B54C2378B5490879834202D3201CADF7B8F9B1484188002923D00378002B10D06378002B04D0AD4898F7A3FA002818D000236370A370A84A508850214143A74805E02378A648002B04D15022514398F745FA06E098F78DFA002802D0201CADF790F920782923191C41430191E11C8807800F01D10A6808E0091AC0000B68C3402022101A4A6882401A430198954B0099C95C815480180099032901D0052957D18C4A13681B0A
:FB9BA3000600D44EE1477002998B1F0372291C09300622BAF7E5FE0635E11C8807800F01D10A6808E0091AC0000B68C3402022101A4A6882401A43019880180230291C0622BAF7CEFE0098052817D10635E11C8807800F01D10B6808E0091AC0000A68C2402023181A4B68834013430199C8180F30029A0C3A291CBAF7B3FEE11C8807800F01D10B6808E0091AC0000A68C2402023181A4B68834013430199C8182830F17872688918C9780170FEE0FF07FF0F0098042806D05C4A1368F17870680818C078587259490868C379012B18D1391C281CADF736FC009A042A05D1ADF753FC002800D1E4E04CE0FF2803D1391C281CADF77CFCADF75CFC002800D15B
:FB9C9E00D8E040E050490B78002B3CD0009A042A17D14D480490291C1030062200F0A1FD002800D0C6E00499887D03071B0FBB4200D0BFE08023034000D1BBE04006400E1FE00922835601200856834200DAB1E03E480490291C1030062200F082FD002806D10499887D03071B0FBB4200D1A1E0291C049810300622BAF735FE8023381C18430499887501210491E11C8807800F01D10A6808E0091AC0000B68C3402022101A4A6882401A43019880184770291C02300622BAF717FE20480378002B19D0E11C8807800F01D10A6808E0091AC0000B68C3402022101A4A6882401A4301998818F17872688918ADF71DFD0006000EFF285FD106350298FA3000A6
:EB9D990006000E02900098E11C012822D18807800F01D10B6808E0091AC0000A68C2402023181A4B68834013430199C8180021017225E0C04F0800E02C08005DC30800BC9C080093C3080014E3050068C30800B8AF08008807800F01D10B6808E0091AC0000A68C2402023181A4B68834013430199C818029A0272291C0930BAF7B6FDE11C8807800F01D10B6808E0091AC0000A68C2402023181A4B68834013430199C8182830F17872688918C97801700498002802D023780133237023780A490879834202D3201CADF70FF80598122804D1AEF7C7F8AEF7FCF804E00398002801D097F762FB06B0F0BDBC9C080095
:FB9E8C00F0B586B0041C012203920292002200923249051C08682035EB7A012B02D1304A117801E02E4A5178A17406220240062A51D12C4A16683207120F019201070BD529490B68987B002805D0301CAFF736FF0090029000E00390244F019805282BD1EB7A012B28D83306D90F287B414023D1ACF736F879680491B968059104A90231062200F077FC002816D10398002813D00298002810D0201CAFF7FBFF009900290AD0201C6CF7E7F811490B68DB0703D4201C0021AFF7A4FE0E490B681B060AD50198052801D0032805D1391C3004000C0022ADF73AFA06B0F0BDC046BC8B0E005C150800A88B0E00B89C080080980E0008800E00E02C080010B5561B
:FB9F87004C822099F76BF9000600160022A15600290ED0CB10CA1AC310D2187F23DB439A4201DA181C04E07F207F2A01DC10060016010609162170494A1368002B01D14848C17710BD70B5002644480368002B01D184F7CAFC434C4449201C0F300522BAF7CDFC00252819C07B97F790FE36180135052DF7D33D48C36A5B011CD53C4803685B0518D400253B4803789E4213D001200A2D00D9022040194100374885F71AFC002805D0291C201C0F3085F725FC013E0135252DE7D3211C0F313048052200F0DBFB002809D0211C0F312C480522BAF795FC63690120834363616369DB0707D4FFF732FB616901229143104001436161002070BC08BC184700B585
:96A0820075F749FA00280BD11F480368002B07D114490B681D490868834201D1012000E0002000BD00B5B821194800F0E0FB00230B4A137000BD10B5041C15480368002B0BD0201C002185F7DAFB1821201C85F7D6FB4E21201C85F7D2FB10BDC04614AD0900B4C4080050370800F4460800F44E08005420080020040800A4030800E0340800004F080010CD0800E4C708009034080014CD0800CD
:FBA20400002809D1104A1068104A1368984201D1012801D1002002E08800411AC81E70470B4A1068C306990F01290BD14007400F052801D8002801D1002001E002490868024908607047C046901C08004CAB090004300E00002E02D00020E05504E0E35D002B01D0013BE3557BF781FC10B5A24C201C042100F0FAFA7F21C943A01D072200F0C4FAFF23236000239C4803709C4803709C4803709C4803709C4803709C4B9C4803600123DB029B48038080239B48037000239A4803709A4803709A480621BAF780FE14219948BAF77CFE14219848BAF778FE10BD30B5041C96480368002B04D000230360282300201855924D00216962A96277F759FB9048030B
:FBA2FF0068002B03D174F7C6FE002803D1012090F793FB04E075F7F9FD2834042020700023884A137088480378012213430370FFF79FFF281C8A300621BAF746FE30BDF0B5061C051C081C08356C4C2368FF2B20D076490330062200F053FA002819D16079022807D12068ABF706FDC38D012B10D1002711E001280FD1206874F7A3FEC1690906C90E0839062903D2FF210931475C02E0122333700EE0A11DE81D0722BAF7F1FA8021A01D072200F032FA00232371AF710823F370F0BD30B50C1C5B4D0331281C0622BAF7DEFA637A564803701422211C0A315648BAF7D5FA1422211C1E315448BAF7CFFA002347480370434CFF232360281C0021ABF7C7FC09
:FBA3FA00002803D1281C0121ABF7C1FC002806D0C38D012B12D1BE30007802210CE0281C74F77BFB002809D0C2691206D20E083A062A03D2006801212060617130BD0B7935480370CB78304803707047F0B5052630480378002B50D12A4C2768FF2F4CD02079811D0720BAF708FF05062D0E607902280CD1381CABF781FCC38D012B3CD1A31DEA560024012622490E7016E0012833D1381C74F719FEC1690906C90E0B1C083B062B29D2A31DEA56FF230933C45C0123174803700A2900D10326144800211D4B1B579A420DDA0278013202700278B24212D301700F4A1378002B0DD091F71FF90AE0154B1B5701709A4205DD06480378002B01D091F7F8F80167
:FBA4F50020F0BC08BC184718AA090002C108000FC10800840308008603080010C10800C05D00009C070800A007080099070800D8C20800ADC9080009C1080011C1080025C1080024C9080054200800DCCC0800EEC00800E00A0800381CFAF7ABFC6AF714F9281CFAF7C4FC6AF72DF981B000F003F873F74EFB0000F0B5041C0D1C7BF76BFC324E7379012B12D180213368095D8B420DD1A02210553179891988713079411C0720BAF76CFE30710023284A1370271C261C6436317F9F2038569F377BF7FAFB3870371CB37D0C37002B15D03368DB0508D41F4803691B010ED5301C8FF7D5FB002809D00023B3610123FB720023BB727B72301C8DF7FAFB3368CB
:68A5F0005806000F295C002904D0144B185CB072431E0DE010490B69DB000BD5104A11680A6853031B0F984204D193025B0F013BA3810CE0012333723B68FF20013083433B600D2307490B70301C73F777FBF0BD18AA090086030800542008009EBB05001C2B0800E8C0080068
:54A6800083780F2B02D1032311480360704700B50F480368002B05D0002303600F21181C79F7FCF900BD00B5094902060CD40868012807D102230B6018220F21002079F7CCF903E0032801D1022000E0002000BDF4A909004E
:18A6F000044A1088012149020140480A012250407047C046E8C4080048
:FBA7680000B500F071F8002320490B7000F074F800BD00B51E4B984202D1081C00F001F800BD00B5012100F006F800BD00B5002100F001F800BD30B50C1C144D15490B78012B1AD10178032901D0082915D18378002B12D100F048F8002C03D02B7801332B7008E0041C2878013803D3287002208BF7C7FF201C00F03FF830BD00B5FFF7D5FF00BD014908787047C04615AD0900B8520800540008007847000000C09FE51CFF2FE1FC4005007847000000C09FE51CFF2FE1CC4805007847000000C09FE51CFF2FE1E05105007847000000C09FE51CFF2FE1741005007847000000C09FE51CFF2FE160E801007847000000C09FE51CFF2FE17CD7040078470007
:FBA863000000C09FE51CFF2FE190D704007847000000C09FE51CFF2FE1304F05007847000000C09FE51CFF2FE1CC51050023000000414D0900240000003D4D090025000000454D090035000000514D090088000000914D09008D000000B54D09009100000047A409009200000000000000000000000300000259460200040001000000000000000000000000000000000000000000000000000000000095510200C3760900C9770900DF7909000000000000000000000000006754020000000000438009000000000000000000737F0900E97E090000000000FB7F09000000000029800900875102009F9504006D9904007F9304000000000051970900000028
:9AA95E000000A7960400000000000000000005990400C39304009F9504006D99040091A204000000000071980900000000001199090093A30400016809002F680900C3930400420500005E04000062040000420500006C04000062190000440500006C040000621900000A00000001002100A08601000C0019000200000000180000FF00000080020000800200001CA9090000180008030000000100000042
:E0BC000030B582B0041C30490B7E002B5AD12F490B68702003401D09A37BAB4252D02C490B68FE20034000D00123002B47D10020AEF7A2FD002842D126490B689B063ED487F7D8FC00283AD16946281C95F73DFF68466BF7C4FD684695F76AFF002095F7CAFF1D48002343628362009B9B089B00416B59180B011B0943631848016819E0251F237B212B15D1281C6DF7B5FC00984308606918184308990149096161E08BB9F7C8FAA083281C6DF704FB281C6DF771F807E00C1C09688442E1D102E0A07B95F799FF02B030BD2C2D080024860E00B4C4080008800E006C210800A80208001F
:00000001FF
