:020000040009F1
:280000000108006999994204204EB1FD0400FFFFFFFF4006000000A0027020020A00280009000000000000001D
:FB002800411A0042726F6164636F6D20426C7565746F6F74682044657669636500980100035C0100017206000300000800017A020000089304002000000068040012000C00690200E6005D0C000A64E6B000008898425A33435F09003C280100040004F70C0A6F0098160800C600F3025D0066033000C900E10268005C033600C300E2026A0053033C00C200E1026C004E034100C500D60272004A034300C300CE02790042034800C500C00283003A034E00C800BF0282003B034E00C900BC028400370352000808070707070707060606060505050502C0E40094FC0E00FFFF00005E02000030FC0E00FFFF0F006304000000FD0E00FFFF0F00660200008882
:FB012300FC0E00FFFF0000000200002CFC0E00FFFF00004904000070FC0E00FFFF00000B09000074FC0E00FFFF00002E010000D8FF0E00FFFF000062190000D0FC0E00FFFF000020C90000C8FC0E00FFFF000038850000DCFC0E00FFFF00001CC80000CCFD0E00FFFF0000048000005CFC0E00FFFF00000200000020FC0E00FFFF000019210000E0FC0E000080000000000000C0FC0E00FFFF000022000000948F0800FFFFFFFF00120012988F0800FFFF0000001200009C8F080000FFFFFF00030303C3140012651419783F0424306070007180764A3108290ACF090010000F6EF0B009F0601A2400FF0008080312FF10FB0EF70CF30AEF08EB06E70403123C
:FB021E00FF10FB0EF70CF30AEF08EB06E7040301000182D600FF0602020A233C5A6E7D80008000800080008000800080008000800080008000800014FF19840AFF200000000000000000000000000014FF19820AFF430000000000000000000000000014FF19000AFF660000000000000000000000000014FF19050AFF660000000000000000000000000014FF190B0AFF430000000000000000000000000014FF190D0AFF200000000000000000000000000041000000007B0000000041000000007B0000000041000000007B0000000041000000007B0000000041000000007B0000000041000000007B00000000861200041300400800004013000100013F
:FB03190080FF000112C15E0044041422A244041422A23B04B104B204B304B404B504B604B704B804B904BA04BB04BC04BD04BE04BF04C004C104C204C304C404C504C604C704C804C904CA04CB04CC04CD04CE04CF04D004D104D204D304D404D504D604D704D8280C000B0400A64B09000B0400404C09000B0400124D0900080F000084E0000030BD00B50000000000000817000188E0000087F0B4F80800F451090000F002F800BD000008170002586600008FF032F90800C0580900FFF793FF30BD00000B04005A5A09000B0400845A090008170003209E02006CF0A8F80800745F0900FFF7C0FF70BD000008150004C08400008DF0B4FD06002C60090091
:FB041400FFF7A6FF30BD082D0005B47702006EF03DFC1E003260090002B461684907C90F301C91F741FD02BC002902D0F06991F7B6FB91F7B8FB080F000624B500000FE0C046000000000000080F0007C44F000010E0C046000000000000086700081CF0030057F018F858005060090070B5061C0C1C151C002B21D104A8008840281DD105A80088202819D15A2917D8081C15D002F0E0FD002811D1032D0FD02204121408210748002302F0DDFD002806D1221C291C301CA9F77FF8012000E0002070BD18650800080F0009988000005808042B0000000000000817000A680C040055F01EFA0800A860090000F002F870BD0000080F000B9880000058080460
:FB050F002B0000000000000819000C64D4000088F08AFE0A007C610900281CFEF7D5FF77F784F90813000D08D6000088F0BDFD04008661090077F742FA080F000E80DA0000C046C0460000000000000815000F2452000090F0B1FF06008A61090000F001F8F0BD0B0400B0620900081700108002030066F06EF808006063090000F09AF899F7B3FF081700112848020071F09EFD08006863090000F02CFA8EF7B9FA08170012B473020070F00CF80800D0730900FFF774FE90F77FF8080F001334C40100C046201C000000000000081700141403030067F060F80800D8730900FFF794F86CF7E8FF081700152447020071F024FE08007063090000F0BDF98E7F
:FB060A00F7EBF9081700166847020071F006FE08007863090000F0CFF98EF703FA081700170C4D020071F038FB08008063090000F05CFA8EF7DAFC08170018404D020071F022FB08008863090000F072FA8EF7F4FC081700197C4D020071F008FB08009063090000F0BFFB8EF708FD0817001A7854020071F0A6FF0800C8730900FFF730FE8EF765F80869011BA444000093F01FFA5A01E678090000B526490B6824490B6022490B6820490B601C490B682B490B60414B42490B6033490B680120C00303430B603F490B78002B04D02E490B68400303430B602B4A13685B085B001360394B394A1360B1F711FDB2F73AF9B2F789FCB2F72FFE0D21354801F07A
:FB07050086F9344A9068002803D099F73AFEB1F7D6FB2148264A60E0C046C0B00800FFF2011A288E0900848FB002D08B0E00A0800E002C8E0900148B0E00308E09006CE50500348E09008C150800C77709000B780900D778090053780900BF7809005C000F0094830E00FF00FFFF608B0E0040230001E08A0E00E02C0800A4860E0088B2080005000080850000801C800E0014800E00848F080004830E00CCFC0E00548D09005C8D0900588D0900108B0E00C42C0800CC2C0800D02C0800BC8B0E00AD020000CC8B0E001CCD080010325476D48B0E00009D0800ECCC080013680360034A11680161034A1168416000BDC046CC2C0800D02C08000861001C001E
:FB08000044000093F066F95200D076090010B5A448002383700423437001230370A14BA2480360A24BA24C2360A24C2368A24C2360A24C2368A24C23602C22A249A248BDF73FF9A148A14C2060A149C160A1494162A1490161A14B8361A14BC36110BD080F001DD0B80400A5F809E00000000000000815001E20BA04004CF072FA0600087F0900FFF7D4FF30BD0815001F3CB004004CF067FF06000E7F090000F001F870BD08170020EC8A04004FF052FA0800947F090000F002F8F0BD0000081700213069040051F0FCFB08002C810900FFF7C4FFAEF71CFC08190022545D040052F0EEF90A0034810900B4F794FEFFF7B2FF30BD08190023E0A504004DF0BE
:FB08FB00ADFD0A003E81090000F003F803B0F0BD000008170024E88204004FF07CFF0800E481090000F002F830BD0000080F002584A80400C046251C00000000000008170026B0B104004DF092F80800D882090000F002F830BD0000082B0027DCC004004CF05EF91C009C830900FF233D3343430448C0189F300078002800D101207047C046349D0800081B002894AC04004DF09AFB0C00CC830900201C00F003F8B2F762FC0000081B0029ACAC04004DF0DAFB0C0064840900201C00F003F8B2F722FC00000823002A3CC104004CF03CF91400B883090029187F231B02FF339D4200D35D1EFF23B3F7BAFE0817002B981B030066F0DCFC080054850900FF68
:FB09F600F7D2FF30BD0000082B002C1C7B040050F036FD1C008C85090004910FB4FFF7E4FF012802D10FBC05B0F0BD0FBC062DAFF7BDFA0000081F002D18AC04004DF002FD10002086090003D1FFF7C1FFB2F7FAFAB2F7F9FA00000877002E7461030062F0E4FA68004087090010B500248DF7BCFC012803D309D0022820D102E0A0F706F901E0A5F76EFC041C18E00D490B78002B14D00C4A106803680B4A13600B4A1378002B0BD08B784978002B03D04B00FF21013101E04B00802199400160201C10BD481B0800E40A0800AC5808003A010800080F002F7C640200131C036000000000000008570030B462020072F078FA4800A887090000B50D49086885
:FB0AF100002804D003280FD0052811D104E009480378002B0CD007E0084B1868012200219AF7D8FF9DF7AAFB05490B680120186000BDB0C80800D1CA0800F40A0800E40A080008230031C0B903005CF016FF1400F087090003D100F007F8012802D0A000A3F7E2F8A3F7E2F8081900327847000094F0C8F90A000C8B0900381CFCF709F96BF734FE08190033AC47000094F0B3F90A00168B0900281CFCF722F96BF74DFE081B00343CDB00008AF0F0FF0C00208B090081B000F003F875F76EF8000008270035405B010082F06AFE180018880900002E02D00020E05504E0E35D002B01D0013BE3557DF7A1F9081B003650A704004DF0ECFF0C002C87090038BB
:280BEC001CFFF795F902B0B2F70EF80817003758A704004DF0EEFF080038870900FFF7B3F9B2F71BF8FE000031
:FB4B000010B52B482B4908602B482C49086001F0EDFB00F023FB00F037F900F0E7FA00F045FA00F057FA02F08BFF2548E42325491950254C236802242343234C236023490B68802293430B600023214C2370214B214C2360214B224C2360224B224C2360224B234C2360234B234C2360234B244C23601223234C2370234B244C2360244B244C2360244B254C2360254B254C2360254B264C2360264BC3620023254C236010BC08BC18472448244908607047C0467D510900BCC8080081510900F0C40800A01908001D5209006C010F0040150800FD07080041450000548D090020C90000588D09001CC800005C8D090062160000D8FF0E004205000088130875
:FB4BFB00006C0400008C130800901308002F450000781308000EC90000801308000AC800007C1308001E45000084130800268500007413080031860900508D0900014B09009000080070B500200F49104B4B6114E06B099C00EB06DB0E01259D400B592B430B5143004C69C50052195268012632432725AD03AA1A1A530130054AC3009D58922DE5D370BDC0464C1B08008C8E0900A88C090030B582781202437813439A05920D1B0AFC252B400C2B05D1032A2ED103F0F5FD01202BE00124FC2B22D1C22A0ED0C32A0FD0C62A1ED30FD0C82A10D312D0CB2A13D9E62A16D103F04FF814E001F040FCE6E701F081FCE3E703F009FEE0E703F043FEDDE703F0D0
:FB4CF60080FEDAE796F799FDD7E7042B02D10024201C00E0002030BC08BC18470248024908607047C046914C090018C9080030B5051C7AF7CCF9041C281C8AF75BFA8749201C2830062203F06CFF00280BD1844C2560012363717F21C943A01D072203F068FF00232371002030BD10B5041C0120A040C1437C4803680B40036089F78FF978480368A34203D1FF2303600023437110BD75487649C8607047F0B583B0041C012906D164300023C372251C9435AB73EB736F4803689B079B0F032B02D071F79AFAC8E00023A381E07B484000D1B6E070F735FD002803D1674803691B0101D5012100E00021271C64373E1CFB6880208343C8010343F3600C365F3A
:FB4DF1004A1078431006D0C3071B0E31688020814319433160594803691B0102D4381C94F712FABB69002B02D03B681B063BD4338868460380E37B012B0DD0251C94356B7B002B10D02B88042B0DD3EB7C022B0AD3AB7D002B07D1A72303201855009B78208343002106E00121E974009B78208343082003431F20800283438802034300931B041B0C3F4A1360012030723B4A13691B0152D400984006010F00231A1C012094F7F2FB45E0E07B002802D1A72301221A55012804D1E37C042B01D072F7E5FCF37A002B06D00023F372336801204002434033600121B172251C9435A97326480369DB0002D5201C87F7F5FD338824490B60B0884860381C70F7BA
:FB4EEC0015FD30684006030F2048C05C3072431EA381E37B002B0FD10121387F81401C4A1068084008D1E37C042B05D019480378AB7519480378EB75114803691B010FD5201C94F74BFF0BE0271C64373B727B7270F7A3FC636C002B02D05A231B5BA38103B0F0BC08BC184709C10800608D090000040800914D090000020800188B0E0054200800DCC80800CC8A0E009EBB0500B4010800F5010800F601080030B50D1C041C75F7E9FE6B075B0F012B05D1E37B002B02D1A07B9CF728FE30BC08BC184700B52C2204490548BFF7E6FC034804494161044B186000BD0CBD0500708D0900894F0900E402080010B53F4C3F4B1C602C223F49201CBFF7CFFC3E68
:FB4FE70048606210BDF0B5041C051C876A28353B4B42331878002866D1201C012172F743FA061E4BDD022804DB201C77F7BDFA002859D1618C8B1F9E4223DA304A13689C420BD0391CAB310878013800D30870731C5910201C77F74AF830E0731C5810E37B002B05D07B6C002B02D06B7F002B25D02F89B84222D36A89002A06D1A389002B03D1201C71F751FE18E0BA4200DA3A1C904201D90C2310E04B23A27C1B5D9A420CD102280AD36B7F002B05D014480378994201D9282300E03823A374211C4D31087800280FD00238087000060BD1E37B012B02D0237D0C2B05D0321C201C0523022177F7A6F9F0BC08BC18479C8D09000003080074BD0500ED4F83
:FB50E20009006C210800F402080000B52C2216491748BFF746FC1548164B18601649016100BD30B50D1C041C78F78EF8022D09D16B23185D002805D0201C87F777FB201C87F7AFFB30BC08BC184700B5011C6831CB78002B07D04B7A002B04D18B78002B01D087F786FB00BDC0462CBE0500C88D0900300308000551090000B52C2203490448BFF70EFC024B0348036000BDB0CB0500F48D0900F40308000020704730B5041C002921D001291BD1400511D41CE0124D291C1248B8F751F82988281C262902D102F0B1FF04E089000D4A8958C6F781FB0A48B8F75AF80028E9D00A4B1C4003E0022901D17CF75FF8201C30BC08BC18470548064908607047F47E
:1751DD00440800284508009CBE0500FFFBFFFF81510900F0C408000C
:FB51FC0000B5431E04490B6004490B78032B01D1C0F77CF800BDC046E08A0E0038080800F0B587B0061C0491081C00210391A94C2064211C4431009100238B70A6488568002D00D121E2AB7D002B09D0012203920023AB756361237810208343237006E06069002803D0012E01D970F795FF22691D27FF03002A50D0607A012803D19389002B4AD047E0954B1B5C002B43D1BB68DB0742D4137D092B3DD204281AD1012E18D196756261237810200343237023683B608B490B687233187802282DD0002388490B608849086888490B6803600B68036022E002280AD1012E08D196756261237810200343237023683B6015E0032803D17F498B78022B0FD00690
:FB52F7002801D0032805D1012E03D1BB689B0600D573E1122803D0102801D070F7BFFE704B985D029000284AD00123DB0733430193714B724908689863714901220A600099CB78012B30D06F490B689B0C9B040B600B686D49086803436A490B600099CA706A490B686A490B606A490B686A490B606A490B686A490B606A490B686A490B606A490B686A490B606A490B686A490B606A490B686A490B606A490B6856490B606949086869490860A87B2318042801D3187800E0205C6F229043187050E0A87B225C0F218A433107090F0A43225423180428049802D38107101C01E081071878490E6022904308431870434B584908689863009AD378002B30D01A
:FB53F20042490B689B0C9B040B600B685349086803433D490B600023D37050490B683D490B604F490B683D490B604E490B683D490B604D490B683D490B604C490B683D490B604B490B683D490B604A490B683D490B6049490B6829490B60484908683C490860002101912868826A281C0021C6F726FA002810D026231A5C002A0CD08368002B09D00298002804D0802301981843019001E0012200E00022237880208343D0010343237020200499084001D00120C003334908600499090704D432490B68802083430B600499880801214140A27880208243C8010243A27056E0C046642C08006C210800ECBB0500DC02080060000F00AC2C0800440208008822
:FB54ED002B08002CFC0E0060020800E08A0E00B88A0E005C0208006C130800D8FC0E0070130800E0FC0E0078130800CCFC0E0074130800C8FC0E007C130800DCFC0E0080130800D0FC0E0084130800D4FF0E00881308008C13080030FC0E00B82C080048020800BC2C0800C02C0800C42C0800C82C0800CC2C0800D02C0800D42C0800D82C0800DC2C0800648B0E00A4860E002868826A281C0321C6F794F9AD490B78012B01D077F734F905A9AB4A13687020034018099CF781F92369002B14D0637A032B11D188F7E2FC002806D1A3480368032B02D00368062B06D12B7C122B03D100980121817058E005988007800F06D003280ED1069B9A4908888342A0
:FB55E80009D30398012800D1656170F74FFD009901224A7043E00820B860A87B786223683B603B1C1833221D03929207920F02D1039909680FE00399891A0391D2000968D140049120218A1A03994968914001B40598014301BC1960BA69331C103B042B0DD2FF23013383407F4810401843B861102E07D17D4908687D49086002E07A481040B8610198002800D07861E5602672002300990B704B70281C8CF796FD012007B0F0BC08BC1847F0B5724CE568002D02D1201C0930A0E0EB7B012B09D1201C1830AB7BD90043586B4A13600B185B685360217A694F3868012901D1084301E04008400038602868826A281C0021C6F7EBF800281AD02623195C002C
:FB56E3002916D08368002B13D070F786FF5D4E237AF05C5D490B68002803D001204006034320E05A4803400B603B6802210B4318E055490B68554803400B60524E237AF05C002802D05249887901E052490868236CDB0601D4504908603023DB432E3338680340391C0B602868826A281C0121C6F7ADF8071E12D00368002B0FD04749086900010BD41022391D4548BFF709F9386844490B6883210B40184303E0414A1068832108403F490860207A335C3E4A002B136814D0012189030B4313603B490B683B490B403B490A78520213433A4E33603A4E33683026B3431021194308E038490B401360314A1368334A1360334A1168344A116060720023E3608A
:E257DE00201C0830256100220270F0BD10B51B4C1E4B607A185C002802D070F7BCFF15E06069002801D070F7C6FC28490868637A012B01D1274A00E0274A13680360116801600023254A136070F7D1FE002323490B60E3602361637244340120207010BDC046D4C1080024860E001C840E00E4B60800FFF0FFFF9406080064FC0E00642C080018820E00A8860E00ECBB05001C800E00FFFFFFFD002D08007C030800108B0E005420080080810E00E88A0E00808B0E00B02C0800FFC1FFFF9013080088FC0E00B42C0800FFBFFFFFCCFD0E00AC2C0800400208004402080060000F0018800E00EE
:FB58C80070B582B0061C65480168890602D5022072F77FFC624C2568A3682360002D26D0002E18D19EF754FA002814D0C30703D52A68916900290BD1430703D52A68D169002905D1830706D52A68116A002902D0281CC5F7CCFF9EF758FA011C2A685269002A04D0002802D0281CC5F7BDFFA0680026A84218D0002D21D02A681269002A03D0281C0521C5F7AFFFAE8123699D4200D126612B7D092B11D3281C73F748FE281C73F7CDF90AE0002808D06369984205D166613B4800220121B7F77DFF3A48C16E002904D0A368002B01D1C5F78FFFFFF77AFEA06800284BD08681037D092B20D26369984205D166612E4800220121B7F762FFA068A84206D1012B
:FB59C300684968002902D00523037508E0017D032901D0042905D101684968002901D0C5F768FFA0680223037501680A69002A02D00221C5F75BFFA068807B1D4A136870210B401909884216D169469BF74AFF70F7C0FC002801D0174800E01748028800998907890F04D0032905D1019B934202D33F2301201855A0688CF740FA01208CF750FAA66066603C3426716671012002B070BC08BC18470948044988617047C046C4C408006C2108000C2D0800201A080024860E006602080064020800C9580900A248A3498865704700B5A24A9007800F01D1116808E0121AC0001368C3402021081A516881401943C90F9B4801709B4A1068002817D09A4A026093
:FB5ABE009A4A82609A4AC2600123994A13700023994A1360994A1360994A1360012902D100F007F802E04068C5F7E5FE08BC1847000000B500F003F808BC1847000010B564238F48037000238F4803608F4803608F4C236000F04FF8804A9007800F01D1116808E0121AC0001368C3402021081A51688140194301204007014015D084490B68001403430B6083490B68834803400B6004390B680120800303430B607F4B80490B6003037F490B606B4A9007800F01D1116808E0121AC0001368C3402021081A516881401943C90011D5774C2368002B02D0201CB7F765FC7449201C00231A1CB7F740FC72480168201CB7F746FC8EF7C2FA10BD10B56F4C2336
:FB5BB90068012423436D4C236001239B036C4C2360534A9007800F01D1116808E0121AC0001368C3402021081A516881401943090105D561480368022003435F480360604800218160F421C16020210161E8218161E9214161102141624021C161016205239B04036010BDF0B582B0041C01910B1C0026009653490F683F0C3F045B0051481D5A51498D4211D180231A5D5048135C1B014F4818188388002B07D04B4D1035837A012B06D1484D203503E0002D01D12E1CBEE0201C8CF724FC002800D0402545480368002B07D0602D01D1E0251BE0702D08D1D02517E00198042801D0022801D101263604302D06D17023185D002802D0354D703507E0502DE7
:FB5CB40005D1236FDB0502D501235B041E432E432F4B70339D4203D02B093148C15C0091302D0BD17023185D002807D1201C2830037D807A19180906090E0091009803031E43E37B002B02D00123DB031F43E37C032B49D1608CC306180F43E08D5A0900A0190800C005080030C8080044060800F15A0900215C0900FB5D0900B805080034C8080038C808003CC80800D005080040C8080048C808004CC808009C800E0010800E00FFBFFFFFFF030000BC820E0010000C0068500800673D0200D405080070010F005C000F0074820E00D8050800100100009005080024500800D4C408002406080003021F43402D25D14B480378002B06D0201C8DF701FF0312
:FB5DAF00071B0A1E431AE00123DB041E43A07B9BF78CFD4008434A1060434A11689BF720FD424A1060424A1368984204D2201C8DF7C7FE002802D00123394803703D480660476002B0F0BC08BC1847F0B582B00F1C051C0022009201908CF758FB354E002844D034682E48017800291AD1A87B9BF75CFD40082B4A10602B4A11689BF7F0FC2A4A10602A4A1368984204D2281C8DF797FE00281BD0012321480370264B1C4015E06B6E1B0612D4012910D1281C8DF787FE00280BD1A87B9BF737FD41081A4A11600023164A13700123DB041C4314480378002B03D001988CF7C1FF0090174B1C40009803071B0A1C433460042F01D0022F05D133680121090450
:CA5EAA000B43012107E00F480378002B06D033680E490B40002133600B48017002B0F0BC08BC1847C046B805080038C8080034C808003CC80800CC05080070820E00FFFFF7FFFFFF0FFF45C80800FFFFFEFF70B503685A06120F092A04D0847F9B05DB0FA34204D0C368144C2343C36012E04B03C36806D4114CA343C3600823104D2B7008E00D4D2B43C36001236340837705230B4E33700B4C23680133012B04D0082A02D10123084A137002234372436804221343436078F796F870BD00010000E8C00800E08A0E00EAC008004D
:B05F7C0030B5041CC37C032B27D1037D0C2B24D11830437B002B20D121490B699C4202D18B68002B13D0418900680B1858010509A07B9BF794FC854201D3281A03E0431B01200007C01A831F1648834205D3201C73F714FB201C72F7A2FF237D022B03D0032B01D0042B07D10F480379002B16D0201C70F7EBFD12E00C480369002B02D0201C70F780F806494123585C012804D0002804D10B689C4201D172F70EFB30BD6C210800FBFFFF07A42C0800642C080035
:CC60B00070B500252F4B83602F4B0361041C0830AAF76BFF2168086063681D60AAF7D4FF201C1030AAF761FF216808600420AAF7E3FF6061062801DAAAF7C6FF201C0830AAF753FF216808606368002018600420AAF7D2FFE060201C1030AAF746FF216808606368002018600420AAF7C5FF6061E368C61A301CABF715F8042817DD01350C2D14D0301C042E08DDABF70BF88100081A2169081802382061CFE7ABF702F88100081AA168081A0230A060C6E7A16820690B1AE3614018C30F18184310236270BDC046FF03000001FCFFFFB4
:FB619000F0B5444D2B68987B9BF79FFB46082B68996C301C9BF734FB041C2868011C94314A88002A10D094420ED9037D0B2B0BD00D2B09D070F703FC2B686433197F012000037BF7D5F864E00B7D002B06D0CB88F31A1B041B0C9C4200D81C1CC36F6430002B06D00B89F31A1B041B0C9C4200D81C1C8A88B31A1A04120C944200D8141C0B881F1FBA4204D3CB7C022B01D30023CB74214E33889C4204D80020BA422ED303202CE073889C4201D8042228E0B3889C420BD9007F74F725FF002814D0037C112B11D115494B889C4203D829689431052215E08B889C420DD82968943106224A745E2383740CE0F3889C4203D829689431062204E02968943107F4
:D5628B002200E0021C4A740B7E012B04D1531F012B01D804234B74F0BDB421080034020800EC02080010B5094C2C220949201CBEF763FB0849E160084B1C6010BDC27B4A4002D0838C05490B607047C046648F090034CC0500C962090010040800CC8A0E000C480D4908600D480D4908600D480E4908600E4B0E490B600E4B0F490B600F4B0F490B600F4B10490B60104B10490B607047C0461B6A090064C80800B168090068C80800E56D090080C808001964090054C80800A166090070C8080021720900908F0900556E090078C80800D08C0900B00608006E
:FB63980070B5051C7CF755FB011C041CEA691204D20F2273032363730C34324B186800090226800706D5F42043599B0702D5A6702D480660F4204359DB0601D4002A01D1002000E029484860281C90F7E6FF0023274A137070BD30B5041C0D1C7CF729FB24494B681A7BD207D20F0273052343738573214A4260011C201C90F7CEFF30BD70B5051CF4352B68DB0603D50321FFF7E2FF1EE0061CAC68002C03D0201CB7F714F80AE014209BF769F8041E11D0A860321C12490023B6F7E9FFF1690906C90E201C0A2902D1FF21913100E01021B6F7E8FF08494B68987B0349086070BC08BC1847C046641B080088500800D34902005CC80800F4440800D36A09AE
:FB64930000D345020010B5041C654A1068C00702D4112323702BE008790002C9780843012178F78FFB002803D0F8221158490701D51223EEE7C169090403D4F4210B589B060DD5574B19684906490FF42212589207920F914203D153490B78002B01D00C23D7E701230B7028342370FFF74BFF10BD30B5051C0C1C08790002C9780843012178F75FFB002805D0F8221158490701D40B2019E0C169090417D4F43003685B0601D40E2010E02823012058553C4908684006400F022808D13B4A1188601D01F035F8002801D10D20287030BD30B58A7B002A02D1122303703BE0314CCB7820680225002B06D00123184320602F4803682B4305E0012398432060FC
:FB658E002C480368AB4303602B480B7903704B7943708B7983702848CB79202B02D1274B186002E02748402BF9D0487A00020B7A18434010244B1860C0006080C87A00028B7A18431A4B1880487B0002097B08431E4908801E48028030BD124A1168C907C90F817314490B78C3734B7803748B784374124A1168090A8174124A11684900C174090A0175094A11884175090A81750E4A1188C175090A01760C490B8843760C23C3707047641B08005CC80800488D0900301B0800A80608001E200000940608003A400000900608004A8D09004C8D090010B5041CFF20052194F7ADFA002806D016238370C470210A017194F72FFA10BD10B5041CFF2005219421
:FB668900F79DFA002806D018238370C470210A017194F71FFA10BD10B50024201C00F084FB0134042CF9D31821B448BEF788FC00F092FEB2480268D10708D55106490F022904D1AF4A116872230B4313600023AD490B70AD490B704088C010AC49086010BC08BC184730B5051C002429236343A8481818811C281C062202F089FA002803D1201C00F051FB02E00134042CEDD330BD00B50021292048439E4A8218507800021278104302D08EF70EF804E001310429F0D38EF741F900BDF0B5061C04250024944F29206043C019811C301C2830062202F05DFA002801D1251C02E00134042CEED3042D0DD1002429206043C119487800020978084301D1251CCF
:FB67840002E00134042CF2D3042D18D229236B43DC19311C2831A01C0622BEF7F1F85C20805B2070000A6070311C201C083000F0EBF9311C283179480622BEF7E1F8F0BDF0B5041C0F1C002629207043724BC518A91C381C062202F01DFA002803D00136042EF1D326E0201C78F7B7FD291C0831201C00F03DFAE0690F21C9050843E061201C0F2303863030868D69780C022A781443A64205D0624A0121B14013688B4313605F4A0123A3401168194311608485012000E00020F0BD10B582B0062259496846BEF79DF800246946062363434C481818062202F0DEF9002801D0012003E00134042CF0D3002002B010BDF0B582B0071C06224C496846BEF782BE
:FB687F00F80024404E0622151C65436946A81902F0C3F9002806D1391CA8190622BEF772F8012003E00134042CEBD3002002B0F0BD70B582B0041C0D1C161CFF2001302058002801D0B6F7CDFDF823185920218843F107890E0843231CF8331860C00773D5002D71D0002E00D188E01868800700D484E0E069000409D5002301A883706846831D2B480122002194F794FB201C6DF7E9FFE069F821884340210843E061F821085904218843F8210851201C91F7A3F8206800216EF711F8251C5C35298800231A1C181C94F7D7FB2888FFF799FE201C28308DF7E6FEE069000407D48DF703FF8EF7D3F9012801D18DF7F2FE002308490B70A36B1B074BD5E06939
:FB697A00000448D40D491AE0C046908E0900641B0800301B08005CC808005DC8080090060800A88E0900B7C10800D0200800C08C0900C88C0900B6FC0000181B08004B681B0528D5201C01218EF789F923E0BB490868800715D5F82210590821084310518021E069000400D44900B54A11600120000779F766F9002D0DD1201C8EF712F809E0E069000403D5201C8EF7BEF802E00123AC480370012002B070BC08BC184730B503685B01A849CD18041CFFF78CFEE069000403D4201C00218EF750F920687DF707F8E0690006C00E0A2817D10121206881409E4803688B430360201C75F71CF8E069F821884340210843E061206884F73FFB201CA030042102B7
:FB6A7500F0F0F8211C281C012290F737F8E069F821884318210843E061F82108590721084360218843F8210851206801218140CA4389490B6813400B606DF769FE5C342088FFF7D3FD012030BC08BC184700B5011C1D2079F76CF908BC1847000070B5061CC169090417D4051CFC352C68002C03D0201CB6F7BBFC0AE014209AF710FD041E09D02860321C74490023B6F790FC0C21201CB6F797FC70BC08BC1847F0B5071C00246E4E0622151C6543391CA81902F078F8002805D1A8190621BEF74AFA012003E00134042CECD30020F0BD70B5061C002529236B4362481C18A11C301C062202F05FF8002803D00135042DF1D310E0221C25329107890F01D1F0
:FB6B7000106808E0521AC9001368CB402020411A50688840184300E0002070BD30B500296FD000286DD0CA695205520F0270CA699204520F42704A6B831C9C07A40F01D11A6006E01A70120A5A70120A9A70120ADA708A6B831D9C07A40F01D11A6006E01A70120A5A70120A9A70120ADA70CA6B031C0A339C07A40F01D11A6006E01A70120A5A70120A9A70120ADA700A6C031C0E339C07A40F01D11A6006E01A70120A5A70120A9A70120ADA700C1C503422888274120AC274A3780375E3784375CB7B83758B7EC375CB7E0376284A137843760D1C98352A68520F8276E289C276120A0277F4310968021C1D329007800F01D1116006E01170080A50700028
:FB6C6B000A9070000AD07030BD70B5002800D199E0002900D196E04A78D4000B785B075B0F1C43C3693F2212029343A206920C1343C3618C1CA3079B0F01D122681DE0E41ADB002568DD402022D31A13E0641B0800D45008005DC808007C290800E4C70800B4C40800C36A0900908E0900A88E0900288D090062689A402A4342638C1DA3079B0F01D1226808E0E41ADB002568DD402022D31A62689A402A4382630C1C0A34A3079B0F01D1226808E0E41ADB002568DD402022D31A62689A402A43C2630C1C0E34A3079B0F01D1226808E0E41ADB002568DD402022D31A62689A402A430264041C5034CA7C12028B7C1A4322804B7DE3700B7DA3708B7DC373AF
:FB6D6600CB7D83760B7EC3768A7E98263358DB00DB0852071343061C983633600A7F1202CB7E1A43E281F4300A1C1D329107890F01D1136808E0521AC9001468CC402023591A53688B402343036070BD10B5042810D22921414307484418002020706070A01C0621BEF7FDF8044A1188201C0830BEF7F7F810BDA88E09002A8D090010B59D49007803029C4C2068000418430860606800042268120C104348600020C860012010BC08BC184710B5041C00290AD18EF7FDF970342078042815D190484379012B11D10EE0022906D15030407F77F727F90023A38107E0052905D100F0E7F8002801D18DF7C3FF10BC08BC184770B5844D2B68FF2B56D10020775F
:FB6E6100F7EAFE2860FF2850D001237F4803607F4803707F4C0323E3747F480168201C6FF727FD25232374022363743323A374201C7030042303700023437023632384764803685B006384242000230355E3818EF77BFC286878F77DF9714E30607368802003437360286878F7FCF8211C503103680B77C269C8680726B0433240104301225202104380221043C8600023CB750B6813430B6001238B7702234B77614961488DF7B2FF201C6FF766FC012070BC08BC184770B5061C041C00235B48036053480378002B04D1402350490B60980527E04B0704D570342078042867D144E08B0724D5351C70352B78022B5FD169784A4802684E4803684B43301CE1
:FB6F5C00934213D95300638418360123737304232B703323A37400236B706FF7CCFE20233B4E3360D80578F79BFE42E0013169701EE0CB073DD5351C70352878022838D315D0042817D334D13B490868430E3B490B603B488DF74EFF02232B704823A37434490B685B006384183401236373301C6FF7A1FE1DE0102325480360180678F76FFE274803685B00638418340123637304232B7000236B70301C6FF7EAFC29492948062201F00AFE002802D127486FF7E0FC70BC08BC184725498868002805D0007C2438012801D8012000E00020704700B51D21104801F011FE19211B4801F00DFEFF231B4A1360084A136000231A4A1370FF23194A13608DF7BE32
:FB705700FE00BDC046B8890E0038800E00A42C08008C060800D4500800BEC10800F0500800B00608009006080000820E00D85008006400080018800E009806080098830E00E4500800E05008004C8F0900E8500800645108006C21080088060800BFC10800388D0900F0B582B00C1C01D1042099E0051C4D480268002A08D0281CC4F7ECFB002803D0FF300006000E8BE0F82148590007800F012828D1E869000425D4237B5B0822D04149086880071ED5281C28308DF719FEF822505902229043F8225051201C9AF711FA0821281C7FF765F98DF74CFC0123364A1370364A1168281C8DF733FC281C8DF76FFDC0E72F687B0132481E18F37F012B50D0237B40
:FB7152005B0809D1637B2E490091052B09D0DB002D48C218009204E0201C0C307BF73BFA009000990B7963770023236001F073FD01900099486840010BD4B068002805D003682360B3681C60B46011E0B46024600EE0F068002805D003682360F3681C60F46001E0F4602460211C281C90F76DFD0123BB401549086818430860019801F052FDE8690006C00E0A2803D1381C74F786FC09E0082807D1381C6DF739FB03E0201C9AF7A4F964E7002002B0F0BDBCC80800641B0800BFC10800885008007C290800B88C09006CCF05007429080070B582B00023019360490868202800D1B6E010285AD15E49086877F743FF051C5C4E301C77F766FC002811D004DA
:FB724D001CF822135801221343F8221350EB69C06907210B4088431843E061286877F77CFE0CE02C1C311C281C28300622BDF783FBF820435902208343F8204351311C201C8DF7C9FA002805D0F820035901200343F8200351201C8DF7A0FC01F0DEFC012321688B40414A11681943116001F0DDFC20686DF7DDF9E369F820834310200343E361206801216DF741FB201C90F77DFB201C8DF71AF9FF233248036059E0FF23013398424AD12F4877F70DFC041E50D078F779F8E369012000068343F820834310200343E361E36C5B005B08E364EC210B59000683430B51201C00217CF7F1F8201C00217CF748F96B4601AA211C4C31201C283096F748FF002814
:8073480006D0019B002B03D0201C7BF740FD03E0211C002078F722FDFF231348036015480368012B18D1E3691B0415D412480368002B03D1114803680F4803608DF7E4F90AE0402802D18EF7BCF905E001235B02984201D18EF74DF9012002B070BC08BC1847C046D45008008C060800E8500800B4C4080088C8080088500800308D090000
:FB73E000A048002303608360704770B59E490B68180A9E4A402803D19D49D1609D4906E09D490143D160030219189C4BC9189C4D29609C4C9C4963685B0E2468E407E40F634009D0402807D17F2464020B68974D2B400125ED0406E0FD2424020B68934D2B400325AD040B600B682B430B6000238F4E336003040B21090459182143032631438C4E31600F30106070BD10B5041C7C480368002B05D1201C6FF7A8FA201C00F096F810BC08BC184710B5041C8248416A002902D1836A022B09D9032904D1836AFF203630834202D2201C6FF7EAFC60237A48195D405C80210143784A116070480368774A136043681720800603435360FFF78AFFA37B734A13AB
:FB74DB00600023734A1360082113206EF75AFB10BD00B500290ED1FFF7CAFF5B4A11686D4841435A4A1068000A0430BDF779FE6A4A106014E0022907D1012368490B604030407F76F7B2FD0AE0052908D1002363490B60FFF771FD002801D18DF74DFC08BC1847000000B5484A011C1368002B0DD09368002B0AD19389936060310A780023022A00D2531C0B706FF7D5FB08BC184700003D49037D022B07D10868431E00D30B608868431E00D38B60704710B5037D092B0CD14A4C4B4A106877F70DFE20606068802188436060474AD078206210BC08BC184700B50821444800231A1C93F73BFD00BDF0B5061C0F1C274C6368FF2B07D1012077F732FB60603B
:FA75D600FF2801D1002041E03B4D0123EB742169281C6FF773F92760A389A3602F4979431C480068000A0430BDF7FDFD2C49086024232B7402236B743123AB74281C6030002303700123437000238370C3702B625D2002234355606877F7C1FDA8730123EB73124F391C301C8DF714FC606877F7B6FD391C6EF7B7FF311C1C480622BDF796F92169281C6FF748F90120F0BD348D090094060800C8890E0040C07DC0447E000000D07DC0043E00008C800E00208E0900B88A0E00FFFFC3FF94830E0098830E006C210800A8060800A4860E0040820E0000830E00F8800E00710200009C830E00F0FC0E0000820E00388D09004C8F0900B6FC000064510800CD
:FB772200F0B5051C13235B049F4F3B60082105206EF734FA9D4F3B689D4803403B603B68C00703433B608B4F3B6802273B43894F3B60974C984820620123974F3B60974FB868606278686065A8692430C17880220A43934F3A60934E8378B07B002B0ED1924D0021B0F75DFFB169081C243042781302007B18430022B1F76AF909E00121B0F74FFF8A4D8A4A13680120400603431360884805608848838A8848036000232360F0BD05238381836926331878012819D18348844A13680360834A11680161834A116841600022D343814A136000235360784A1368802003431360754A1368800403431360704700B5C369002B1CD013235B04644A13605A4A132E
:C9781D0068584A1360564A1368544A1360504A13685F4A13606C48704A13680360704A116801616F4A1168416060486FF73AF908BC1847000030B5052383816A4A116806220A40062A02D181692A3108E08B0702D481692C3103E04B0704D481692E310B8801330B8013235B0448490B604F49CB69002B12D1514C2568C37B012B0CD1236880208343236002209AF772FA80231D43A06899040843A060256030BC08BC184713235B04394803604048C369002B02D1424803680360704700B5002901D1FFF721FF08BC1847000060
:FB7A400000B52C22B049B148BCF79CFFAF48B04B1860B0494160B049816100BD30B5041CBE342178FF233D334B43AC495918FF2208328B18FF211970A9493C30062201F0CBF800280CD1A74D23782B6002236B717F21C943A81D072201F0C6F800232B7130BD30B5041CBE342078FF233D3343439A495D18203083F719FB281C6EF7C6FF86F7E8FA9748036821788B4203D1FF2303600023437130BD00B5017D032901D0042902D1B3F74BF909E0037D062B02D100F008F803E0092B01D1B3F771F908BC1847000070B582B0051C041C8034E37A002B08D0036DBE3319780820AFF7B0FB0023A376E3726378032B28D0A87B99F7D4FE4008218C431A1E043676
:FB7B3B000C618C00291DD08E421BD36078012806D1688CBDF77DFB062803D13E2002E0042803D008202B6DAF33187003236370281C6EF72FFF2B6DBE3319780520AFF782FB31E06068002808D00090002301936946A87B99F7F6FF002363606378032B11D0FF201930285A864209D8A87B86F716FA002804D1281CB3F750FC002802D05B49C8780CE06378002B07D1594BA87B185C032802D25549887801E054494878A874281CB3F72CFB02B070BDF0B581B0041C051C80350027AF81EF76FF230533C618F37D0133F375C37B012B13D17378002B19D1484803689B0715D5A07B99F75FFE80084100A06981420DD099F7F3FD4000686008E0012373703C4848
:FB7C36000378A3740123DB07B361B7703B4800680090830739D539490B685B0602D40098430710D5A07B99F73DFE400828846B78012B08D102236B70236D588900016884201CB3F784F9F37D012B05D17EF7E3F8011C201CAFF77AFB25484379022B14D1236DBE330068197888420ED17EF7D3F81F4B991D1A7988541879411C0720BDF7DEFA1A4B18711E4B1F7000980621014006293AD1236DBE33187886F7B3F9201CB0F708FFF078012804D8164980000B5C01330B54E37B0099201C002B02D1B3F772F901E0B3F79EF9201CB0F7A9FCAF7230E078E40500608E090078150800D97A0900E77B0900349D080009C10800608D090074150800E3C00800BCFB
:FB7D31008B0E004015080086030800ECB00800B77583070AD5A87A0A490B78984205D2E37B002B02D00130A87206E02B7E002B00D02F76201CB3F722FA01B0F0BC08BC1847C0461CCD0800F0B581B0051C0C1C08790002C978084350D00020AEF732F8FF2801D109234AE0071CADF7ECFF0023038121790902E27811438186C186051C83F735FD2E1CB03673885808E8806379252B0ED2384800900521BDF7FDF86179C8084907490F01228A40009B195C11431954B07BFF233D334343304819180091281CB0F7E8F92E488566B2F7A8FA307B0021B0F71FFC0523AB80381CB0F76AFA00999E3101200870381C002100F035F8A279E179381C00F005F801E000
:DC7E2C0012232B7001B0F0BDF0B50C1C171CADF79CFF061C201DB5F77BF8051E1ED0B18D0B051B0D012040031843210408432B1CA907890F01D1186006E01870000A5870000A9870000AD8703A06120E2104090C281D91F7F7FD281CB3F7E6FBF0BD30B50C1CFF233D3343430548C51800F0E6FEA2352C8000F0EAFE30BDC046F44E0800349D080038B00800F0B5061E20D00768002F1DD0407CADF758FF051C707C182141430C484418786891F7F7FB99F778FB381C99F72FFB00233360217A01312172217A05480278A88D91F72CFB00232372F0BDC046F4B008007C15080015
:807F140070B5051C0E1C041C8034A37F002B1ED0B0F7FBFE184A537C012B09D9E37E002B02D1A08BC10603D5311C281CB0F7C0FECD23585D00280AD0FF230533E818837D002B04D04378002B01D1012383700B490B681B070FD56378022B0CD1FF201630285C002807D0A0898004800E0023002800D10123237670BDECCC0800E02C0800F2
:707F9C00F0B5041C051C3A4806689835A8880712F306D90FE9707307D90F0307DA0F002F04D0344803685B0300D5111CFF231533E0184378002B03D1002901D0012343708A4216D0AB79002B15D1002F08D0D0231859C168C91BC16002D48368DB1983600122AA71201CB3F711FA201CB0F704FA9B
:FB800C0001E0002383713307DA0FA8884307D90F8A4234D11C4F397C0A0702D5B304990E2DD1184A13689B0303D5B3079B0F032B25D004214840A880251C5035AE87B304980E1CD020221149BB68181D00F016FECC342078800712D50D490B68012080030340580B0BD02B68BE331878ADF77DFEAF303D210170012028870023AB87F0BDA88B0E00E02C0800ECCC080080980E00BC8B0E0010B51F4C2068002805D08008800099F747FA0023236010BDF0B5051CC668B469002C16D0B0F7BBFF002812D1154F3A1C211C1331E01CB0F793FE381C00F00AF80023AB60EB60A008800099F729FA0023B361F0BD00B582B0262369460B800190081C77F7ADFD02EF
:25810700B000BD00B54368002B04D010220448002192F78CFF00BDC046E49C0800528F09001720000068
:9C814800F0B583B00291FF233D3343432248C618356D00F085FD371C90372C1CB0348E239A5B02998A1A1204120C638853433A6FD21851014909019100F07AFDF37B012B0ED16B8B5B000093288B4000019A101841014909181CBDF749F8A0800098E080281C83F738FBF37B002B0ED1E68870086883A188019899F727FBE288011C101CBDF734F8301A400828830298431E3B800123BB7203B0F0BD349D080006
:EC81EC00F0B581B00090ADF7C0FD041C0027344E336BDB071FD5B4421DD0251C2C354223A97D9A5D914216D1291C1031301C3C30062200F0FBFC00280DD100F01FFD051CBE36307800F032F8281C00F01FFD3078B0F776F803E0C03601370F2FD8DB0098B3F7C7F9251C0123EB852C35201C81F7AFFC00980021AEF7AFFE1A4A13681021DB0603D5A971201CB4F73BF8201CB2F7F9F9BE342178FF223D325143124BC9187F23FF2023300B5401B0F0BD10B5FF233D3343430C48C418201C80304178012907D1418C608CBCF7CBFF062803D13E2002E0042903D00820236DAF33187010BD2890080040150800349D080058
:BC82E000F0B5061C046D2B4803689E4201D1B0F713FF301CB0F74FFD351C8035288901380ED32881288904236B70002808D1301C6EF75DFBBE3421780520AEF7B1FF38E0687800281FD1B07B99F7D7FA4008B034A16899F76DFA01239B0698420CD267883B1859014909381CBCF758FF7843A168081840014009A060A06800236B700223F374B06112E0022810D1AB7E002B0DD0E889298A431A1804000C074B984205D2EB7A002B02D1301CB2F7A7FE301C6EF7C0FCF0BD6C210800FF7F000040
:8C83D800F0B5051C1F49FF230533C418E378980000230B544318581C00230370AF692B6D1889421C267C688C5043B04063681B1858014009381A01239B06984220D2B31D20789840A368D901EB7B002B00D15143E268824200D3101CBCF7E4FE011C802800D980219F352970074803789E4202D2701C207404E000230434191C381C0BC4F0BDC046ECB008006F1508000F
:E4847000F0B5061C071C9C373888102101401D490BD01D4BF518EB7898000A5C9301AA68D218AA604318597811E0174BF518EB7898004118487800280DD08C78097861438901BCF7A3FEA9680918A960211C8B01E868C018E8602B7C002B11D1E86800280ED0AB68D901F37B002B03D1336D1A8901325143BCF78AFE802800D98020F870F0BDC046ECB0080004010000F0B50D1C114C20600B68DB0701D599F780F90F4E0020706637680E483840306099F78CFC99F78AFC2868E0606868A0600220706699F782FC99F780FC99F77EFC37600020E060A060F0BDC04600820E001C800E00FFFFFFFDE3
:30855C0000B54068084A13681979002909D1074A13681B0605D4002801D098F7E3FF012000E0002000BDC046C04F0800E02C0800F1
:7885A80030B5041C80304378002B1BD10323E374252101230B55837E002B07D0236DD98B09014184A36903840123C372618CA06975F79AFB238C984204D02084216DB03188800880FF230133E158E518A06999F70BF9216DB2310A88011C101CBCF7FAFD011C201CB2F74EFEA3692B60201CB0F75CFD00236B7130BDB8
:FB863000F0B581B02F4806682F4805682F480378002B52D12E480368AB4203D12D480368B3424AD02C4C2D4FFE20284007D1002D03D02B480368DB0301D5002E1CD063681B071B0F022B02D0022099F761FC25480078606324480078A06367F7DFFD00F003FB822141432068642250436430BCF7ADFD431C3B6018E063681B0702D0002099F746FC00206063A063184A13680093174A1088392109014143181CBCF796FD386014490098BCF791FD134908603868A06107490D6007490E6001B0F0BC08BC1847C04614CD0800B4C4080008C30800B8CA0800508D09000C000F00DC5E0800FC0A080009C308000AC30800C02D0800E80A080020CF01009C000F7A
:15872B0000381CFFF795F902B0B2F70EF8FFF7B3F9B2F71BF8A2
:FB88040003490B680020012B00D101207047C046901C0800002E02D00020E05504E0E35D002B01D0013BE3557DF7A1F910B5A24C201C042100F00EFA7F21C943A01D072200F0F0F9FF23236000239C4803709C4803709C4803709C4803709C4803709C4B9C4803600123DB029B48038080239B48037000239A4803709A4803709A480621BCF7A0FB14219948BCF79CFB14219848BCF798FB10BD30B5041C96480368002B04D000230360282300201855924D00216962A96279F779F890480368002B03D176F7E6FB002803D1012092F7B3F804E077F719FB2834042020700023884A137088480378012213430370FFF79FFF281C8A300621BCF766FB30BDF0D6
:FB88FF00B5061C051C081C08356C4C2368FF2B20D076490330062200F07FF9002819D16079022807D12068ADF726FAC38D012B10D1002711E001280FD1206876F7C3FBC1690906C90E0839062903D2FF210931475C02E0122333700EE0A11DE81D0722BCF711F88021A01D072200F05EF900232371AF710823F370F0BD30B50C1C5B4D0331281C0622BBF7FEFF637A564803701422211C0A315648BBF7F5FF1422211C1E315448BBF7EFFF002347480370434CFF232360281C0021ADF7E7F9002803D1281C0121ADF7E1F9002806D0C38D012B12D1BE30007802210CE0281C76F79BF8002809D0C2691206D20E083A062A03D2006801212060617130BD0B7988
:FB89FA0035480370CB78304803707047F0B5052630480378002B50D12A4C2768FF2F4CD02079811D0720BCF728FC05062D0E607902280CD1381CADF7A1F9C38D012B3CD1A31DEA560024012622490E7016E0012833D1381C76F739FBC1690906C90E0B1C083B062B29D2A31DEA56FF230933C45C0123174803700A2900D10326144800211D4B1B579A420DDA0278013202700278B24212D301700F4A1378002B0DD092F73FFE0AE0154B1B5701709A4205DD06480378002B01D092F718FEF0BC08BC1847C046608D090002C108000FC10800840308008603080010C10800C05D00009C070800A007080099070800D8C20800ADC9080009C1080011C1080025D1
:FB8AF500C1080024C9080054200800DCCC0800EEC00800E00A0800381CFCF709F96BF734FE281CFCF722F96BF74DFE81B000F003F875F76EF80000F0B5041C0D1C7DF78BF9324E7379012B12D180213368095D8B420DD1A02210553179891988713079411C0720BCF78CFB30710023284A1370271C261C6436317F9F2038569F377DF71AF93870371CB37D0C37002B15D03368DB0508D41F4803691B010ED5301C91F7F5F8002809D00023B3610123FB720023BB727B72301C8FF71AF933685806000F295C002904D0144B185CB072431E0DE010490B69DB000BD5104A11680A6853031B0F984204D193025B0F013BA3810CE0012333723B68FF20013083438E
:FB8BF0003B600D2307490B70301C75F797F8F0BD608D090086030800542008009EBB05001C2B0800E8C008007847000000C09FE51CFF2FE1FC4005007847000000C09FE51CFF2FE1CC4805007847000000C09FE51CFF2FE1E05105007847000000C09FE51CFF2FE1741005007847000000C09FE51CFF2FE1304F05007847000000C09FE51CFF2FE17CD704007847000000C09FE51CFF2FE190D704007847000000C09FE51CFF2FE160E801007847000000C09FE51CFF2FE1CC51050091000000078A09009200000000000000000000000300000200000000000000000000000000000000000000000000000000000000955102000F6E0900156F090025540200
:658CEB00000000000000000000000000006754020000000000897509000000000000000000ED7409006D7409000000000041750900000000006F75090087510200010021000C0019000200000000180000FF0000008002000080020000FC8C090000180008030000006E
:00000001FF
