:020000040009F1
:280000000108006999994204204EB1FD0400FFFFFFFF4006000000A0027020020A00280009000000000000001D
:FB002800411A0042726F6164636F6D20426C7565746F6F74682044657669636500980100035C0100017206000300000800017A020000089304002400000068040012000C006A3600030012000000B0000000A0000000420000005310080480000000900000006200000072000000C1000000D000000022000000320000007C04000100000209080068000F00030000006F210002331F05CF000000AA147F8C00AA00800A9200000000140000000000006C584E6CA1040000000080690200D5045D0C000A64E6B000008898425A33435F09003C280100040004F70C0A6F0098160800C600F3025D0066033000C900E10268005C033600C300E2026A0053033C5C
:FB01230000C200E1026C004E034100C500D60272004A034300C300CE02790042034800C500C00283003A034E00C800BF0282003B034E00C900BC028400370352000808070707070707060606060505050502C0500194FC0E00FFFF00005E02000030FC0E00FFFF0F006304000000FD0E00FFFF0F006602000088FC0E00FFFF0000000200002CFC0E00FFFF00004904000070FC0E00FFFF00000B09000074FC0E00FFFF00002E010000D8FF0E00FFFF000062190000D0FC0E00FFFF000020C90000C8FC0E00FFFF000038850000DCFC0E00FFFF00001CC80000CCFD0E00FFFF0000048000005CFC0E00FFFF00000200000020FC0E00FFFF000019210000E0FCE5
:FB021E000E000080000000000000C0FC0E00FFFF000022000000948F0800FFFFFFFF00120012988F0800FFFF0000001200009C8F080000FFFFFF0004040478000F00FF0000FF0500000030010F00FF000000050000008C000F0000F0FF0F0000800034010F000F000000070000001C010F000000FF000000250074000F00000000FF000000300C010F00000000FF00000030B0010800FF0000000500000068000F00FFFF000003000000D07B0001040A08FC0E00FFFF00002E3600000CFC0E00FFFF00002CAE000010FC0E00FFFF00002AAC000014FC0E00FFFF0000A222000018FC0E00FFFF00001D2000001CFC0E00FFFF00000D15000020FC0E00FFFF008F
:FB03190000858D000024FC0E00FFFF00008311000028FC0E00FFFF00000001000098FF0E00FFFF00003E410000C3160012651428783F0444306070047180764A3108290B7E07CF090010000F6EF0B009F060D10900010403036B1438206B1A2400FF00080804120010FC0EF80CF40AF008EC06E80404120010FC0EF80CF40AF008EC06E8040301000182D600040602020A233C5A6E7D80008000800080008000800080008000800080008000800014FF38840AFF610000000000000000000000000014FF38820AFF610000000000000000000000000014FF38000AFF610000000000000000000000000014FF38050AFF610000000000000000000000000014A4
:FB041400FF380B0AFF610000000000000000000000000014FF380D0AFF610000000000000000000000000040FFFF68027B0000000040FFFF68027B0000000040FFFF68027B0000000040FFFF68027B0000000040FFFF69027B0000000040FFFF69027B0000000082D600FF0602020A233C5A6E7D80008000800080008000800080008000800080008000800014FF28840AFF200000000000000000000000000014FF28820AFF430000000000000000000000000014FF28000AFF660000000000000000000000000014FF28050AFF660000000000000000000000000014FF280B0AFF430000000000000000000000000014FF280D0AFF2000000000000000004F
:FB050F00000000000041000000007B0000000041000000007B0000000041000000007B0000000041000000007B0000000041000000007B0000000041000000007B000000008612000413004008000040130001000180FF000112C15E0044041422A244041422A23B04B104B204B304B404B504B604B704B804B904BA04BB04BC04BD04BE04BF04C004C104C204C304C404C504C604C704C804C904CA04CB04CC04CD04CE04CF04D004D104D204D304D404D504D604D704D8280C000B0400002A09000B0400EC2A09000B0400342D0900081D00005018010081F0F6FC0E004032090030B4201CFFF7C8FF30BC7EF710FB08190001086501007CF0A1FE0A004EEA
:FB060A00320900FFF7A7FF83F773F9000008250002B0DB010076F02EFD160010460900281CFEF72BFE281C5F3000210170391C321D89F7C7FA080F000384E0000030BD00B50000000000000817000488E0000085F0A2F90800D033090000F002F800BD0000081D0005C46200008DF0B3FB0E002E3A090001B4FFF769FF01BC72F74FFC000008150006586600008DF0E6F90600283A0900FFF796FF30BD0B0400CE3B0900081F0007484800008FF072FD100030430900A56498231D53201C00F002F870F787FA0B0400F83B090008150008C08400008BF0F4FE0600AC420900FFF7A6FF30BD08350009B47702006CF07DFD2600B242090002B42168490700294C
:FB07050005D061684907C90F301C93F7FDFB02BC002902D0F06993F772FA93F774FA080F000A24B500000FE0C046000000000000080F000BC44F000010E0C0460000000000000867000C1CF0030055F05CF95800D842090070B5061C0C1C151C002B21D104A8008840281DD105A80088202819D15A2917D8081C15D005F0B0FB002811D1032D0FD02204121408210748002305F0ADFB002806D1221C291C301CAAF73BFF012000E0002070BD18650800080F000D988000005808042B0000000000000817000E680C040053F07AFB08006043090000F002F870BD00000819000F64D4000086F0FEFF0A0064440900281CFEF77FFE79F710F80813001008D6000A
:FB0800000086F031FF04006E44090079F7CEF8080F001180DA0000C046C04600000000000008150012245200008FF025F906007244090000F001F8F0BD0B0400D445090008190013845C02006EF0CFFC0A00264609009B005859EF1891F72CFB0817001464F8000084F0E4FE08003046090000F002F8F0BD0000081700153CF5000085F0E4F808000847090000F002F830BD0000082F0016C4F6010075F05EF8200084470900054B30B4054CE57949190C06211630BC19548AF797FFC046903408008C03080008170017487C02006CF0ACFD0800A447090000F002F870BD0000082B0018D4BA000088F0A2FE1C001C4809000AB4201C311C00F009F80ABC01AB
:FB08FB002803D0042B01D177F752F977F753F9081F00192CF0000085F011FC10005248090001B485F72FFB01BC00F024F87AF7E7FB0825001AE4A203005AF0BDFA160062480900002806D100F007F8002802D10120A5F764FDA5F73AFD0817001BC06A02006DF0FAFE0800B848090000F002F830BD00000823001CC47202006DF098FB1400F849090008B4301C0122012300F004F808BC92F761FC00000817001D2C6A01007EF0C2F80800B44B0900FFF7DDFF00BD0000080F001E587B02006DF044F80000E44B0900087B001F0C7702006DF08CFA6C00284C0900F0B5061C0F1C93300078002803D00B795B08072B24D17DF704FF041C0C301422391D051CA4
:FB09F600BFF79AFE7268002A03D0291C301CC6F729FE3368E3770023A37709490868002804D00368236004600C6001E00C6024600121890403480022B8F7FCFDF0BDC046ECC40800FC4408000815002098AE020069F0FCFE0600944C090000F00AF870BD081700210C13010083F0C5FC08009A4C090000F035F87CF738FB08190022FCBE020068F0D1FE0A00A24C0900281C00F03BF897F72DF908230023B47102006DF0BEFD1400344D090002D0E86992F73EFA281C211C00F002F892F750FA081F00249C6E02006DF068FF1000704D09000FB4201C00F004F80FBC92F793F80000081300251CF0000085F0BCFE0400984D09007AF747F9920600A30080001F
:FB0AF100141908270026A06D020070F046FB1800307409000198311C3A1CFFF7C1FFFF2801D18FF7C7FC8FF75CFD0000080F002734C40100C046201C000000000000081700285845020072F048FE0800EC710900FDF73BFF8DF7EDF9081700296847020070F0A3FB0800B24E090000F0AFFB8FF766FC0817002A7854020071F0A4FE0800C4710900FFF737FA8EF767F90817002B0C57020071F05EFD0800CC710900FFF760FA8EF7EAFA0817002C4C58020071F0C2FC0800D4710900FFF706FF8EF751FC0817002D5C46020072F0CAFD0800F4710900FDF7E6FE8DF73FFA0817002E34AE01007CF096FA08006473090002B0FFF757FF70BD0817002F086E0031
:FB0BEC000090F0E8F90800DC710900FFF7D3FB6FF74EFE08170030B8AC02006CF06EFB080098730900FEF790F893F7C4FC08170031884B020070F097F90800BA4E090000F04FFC8FF791FE08170032C449020070F07DFA0800C24E090000F06FFD8FF783FD08170033202E010082F053F80800CA4E090002F0D3F87DF7CAFF08230034BC65010080F078FF1400B07409000FB5201CFFF7D4FF0FBD37490B687FF77FF80000082B00353CBB02006BF030FC1C00A07309000FB4201C311CFEF7E4F8002802D00FBC94F7CEFB0FBC94F7CEFB000008170036A46301007EF081FD0800AA4E090000F0EAFE81F786FA081D003708F0000085F040FF0E008C4E090015
:FB0CE7000FB4201C00F0A8FD0FBC7AF7C0F8081F00386CE8000086F015FB10009A4E09000FB4381C00F0A1FD0FBC3C1C79F7EBFC08170039B47302006FF016FF0800E4710900FFF701FD90F775F90815003A2C6B01007EF0D1F90600D24E090002F0F8F830BD0817003BD0ED000086F082F80800D84E090002F011F979F7BCFF082B003C1871010080F070F81C00FC7109000FB4FFF7D2FF002803D00FBC00207FF7D2FF0FBC041C436B7FF782FF087F013DA444000093F016F97001D476090000B528490B6826490B6024490B6822490B601E490B682D490B60434B43490B6034490B680120C00303430B6040490B78002B04D02F490B68400303430B602DB1
:FB0DE2004A13685B085B0013603A4B3B4A1360B1F71AFEB2F743FAB2F792FDB2F738FF0D21364802F0BBF9364A9068002803D099F743FFB1F7DFFC2448244A11684160244A60E0C046C0B00800FFF2011A5C9D0900848FB002D08B0E00A0800E005C9E0900148B0E00609E09006CE50500649E09008C150800BB750900EB750900C576090041760900AD7609005C000F0094830E00FF00FFFF608B0E0040230001E08A0E00E02C0800A4860E0088B2080005000080850000801C800E0014800E00848F080004830E00108B0E00C8FC0E00C42C0800CC2C0800D02C0800C82C0800D42C0800D4FF0E00BC8B0E00AD020000CC8B0E001CCD080010325476D48B17
:FB0EDD000E00009D0800ECCC080011684161054A11688160054A13680360044A1368044A136000BDC046D02C0800C82C0800D42C0800D4FF0E000861003E0044000093F060F85200C474090010B5A448002383700423437001230370A14BA2480360A24BA24C2360A24C2368A24C2360A24C2368A24C23602C22A249A248BDF745FAA148A14C2060A149C160A1494162A1490161A14B8361A14BC36110BD080F003FD0B80400A5F809E00000000000000817004020BA04004CF0D0F90800C47D0900FFF7D4FF30BD0000081700413069040051F054FB0800DC7F0900FFF7C4FFAEF7C4FC08190042545D040052F046F90A00E47F0900B4F73CFFFFF7B2FF30F2
:FB0FD800BD08190043E0A504004DF005FD0A00EE7F090000F003F803B0F0BD000008170044E88204004FF0D4FE08009480090000F002F830BD000008170045B0B104004CF0EEFF08009081090000F002F830BD0000082B0046DCC004004CF0BAF81C0054820900FF233D3343430448C0189F300078002800D101207047C046349D0800081B004794AC04004DF0F6FA0C0084820900201C00F003F8B2F706FD0000081B0048ACAC04004DF036FB0C001C830900201C00F003F8B2F7C6FC0000082300493CC104004CF098F814007082090029187F231B02FF339D4200D35D1EFF23B3F75EFF0817004A981B030066F038FC08000C840900FFF7D2FF30BD000052
:FB10D300082B004B1C7B040050F092FC1C004484090004910FB4301CFFF7E3FF012802D10FBC05B0F0BD0FBC062DAFF760FB081F004C18AC04004DF05EFC1000D884090003D1FFF7C1FFB2F79EFBB2F79DFB0000080F004D1C730400C046C0460000000000000817004E807A040050F0F8FD0800748609000420AFF70EFE10BD0817004F9882040050F0F0F908007C860900FFF7CAFF30BD0000081700506CA804004DF0BEFF0800EC870900FFF74AFFF0BD00000815005194A304004EF0CAFB06002C8B0900FFF7E8FF10BD080F00520CA3040000F01DF800000000000008230053489400008FF073FB1400328B0900012B02D10020287001E070F790FC6255
:FB11CE006870F7CCFC081D0054A4CC04004BF04FFF0E00468B09002878B3F72DF8201C00F001F830BD080F0055C4A904005E4A2068000000000000080F0056A4630400FE23F533000000000000081F0057D472000091F048FC1000688B0900301C049900F004F8009988426EF7B0FB08170058989704004FF014FA0800C48B0900FFF79FFEF0BD000008170059E49D04004FF0D4F80800908F090000F002F8F0BD00000815005AD09901007FF028FC060024920900FFF7B2FF00BD0815005B68E901007AF05FFC06002A920900FFF7C2FF00BD0821005CA4E901007AF044FC1200309209000FB4301CFFF7C6FF0FBC0A22311C85F7B3FB0825005DE896040056
:FB12C9004FF0ABFD160042920900281C00F008F8237E002B01D0B0F74EFAB0F75EFA00000817005E70EF00008AF0C8F9080004930900FFF7C2FF75F738FE081D005F645F040053F0D2F90E000C930900607D01386075FFF7C7FFACF728FE0817006014FF000089F001FA08001A930900FFF7E2FF76F7FEFD08290061D07E000091F027FA1A002293090009D5281C112806D0082804D0002088F7C6FD6CF7DAFF30BD0000087700627461030063F0E2F868003C93090010B500248CF7BEFE012803D309D0022820D102E09FF708FB01E0A4F770FE041C18E00D490B78002B14D00C4A106803680B4A13600B4A1378002B0BD08B784978002B03D04B00FF210122
:FB13C4003101E04B00802199400160201C10BD481B0800E40A0800AC5808003A010800080F00637C640200131C036000000000000008570064B462020073F076F84800A493090000B50D490868002804D003280FD0052811D104E009480378002B0CD007E0084B1868012200219AF7DAF99CF7ACFD05490B680120186000BDB0C80800D1CA0800F40A0800E40A0800081B0065C0B903005DF014FD0C00EC930900211C00F00BF8061CA2F7E8FA081F0066B49D03005FF020FB1000F893090002B400F015F802BC0C68E306A0F7D8FC081900677847000094F0F0FF0A005C970900381CF9F7FFFA6BF70CF808190068AC47000094F0DBFF0A0066970900281C84
:FB14BF00F9F718FB6BF725F8081B00693CDB00008BF018FE0C007097090081B000F003F874F746FA00000827006A405B010083F08CFC18005C940900002E02D00020E05504E0E35D002B01D0013BE3557CF77FFB081B006B50A704004DF056FF0C0000860900381CFFF7E7F902B0B2F7A4F80817006C58A704004DF058FF08000C860900FFF705FAB2F7B1F80821006DB03C010085F0DAFD12006898090001B4301C00F010F801BC75F727FC7AF71DFA081D006E5CB503005EF08DF90E007A98090001B400F00FF820BC6B01A1F76CFE0817006FA8A003005FF0EEFB08008898090000F015F8A0F728FC082B0070CCB203005EF00AFB1C00E4980900137800B1
:FB15BA002B07D103B400F008F8012803BC01D1A1F7ECFCA1F7F6FC0000081B007174B403005EF050FA0C001899090000232B7500F02CF8A1F7AAFD081D00721C69020073F002F80E002499090003D100F027F8A2F75DFF8CF7F8FF0827007330BB03005DF0FFFE180032990900012D03D1002E01D100F05BF8A068A2F778FE0021A2F7F6F8082700740862020073F09FFB18004A990900201C08B4019900F01BF808BC9C4201D08CF757FC8CF761FC082500759CBC03005DF061FE1600629909001B0705D400F049F8002801D1A2F797F9A2F7C2F900000A05002DCB080001081B007630AB03005EF06EFF0C00109A090005B400F003F805BCA1F78CF85B0910
:0D16B50000FD0344042804080803FE0000A3
:FB28E000F0B54C4C4C4B4D4803604D4B4D4803604D4B4E48036002F057FAFF232D334C48038000F0A9FC00F05DFA00F00DFC00234848037000F068FB00F07AFB05F04AF8454A151CE435454B2B60454E336802263343434E33604348036880218B4303600023414E337041490B1C2333404E3360404B414E3360414B414E33600B1C1233404E3360404B414E33604148414B424E3360031C0E33414E33601223404E33700B1C11333F4E33603F4B404E3360404B404E3360404E3160404B414E3360414E3368414E3360414B414E3360414B6B67414B061C071DC8C40E36404FC8C4991C0E30061CC2C43E4BD36200233D4E336006F086F83C4B6B65E420A0A0
:FB29DB00F743FC00233A490B703A48E8623A490B683A490B6002F0EEF8002339490B70F0BC08BC184700B537483749086037480B49C86400F09FF900BDE09B0900A5320900BCC80800B9320900F0C40800A13209000CC50800800208002D9F0900A0190800F93309006C010F0040150800FD0708001E4500004C9C090020C90000509C09001CC80000549C0900589C0900388500005C9C09005E04000044050000881308008C13080090130800781308000EC90000801308000AC800007C130800841308002685000074130800D8FF0E00609C090062160000649C0900AD3909004205000062190000E9840900489C09006D470900D49E0900D990090028FC46
:FB2AD6000E00E8030800D59E0900E1280900900008009945090070B500200F49104B4B6114E06B099C00EB06DB0E01259D400B592B430B5143004C69C50052195268012632432725AD03AA1A1A530130054AC3009D58922DE5D370BDC0464C1B0800C09E0900D09A0900002070470020704700B5002812D0AC231A581204D20E0F290ED1012A03D0042A01D0062A02D179F717F803E0002A01D0032A01D1012000E0002008BC184700000020704710B5037814490B700620ABF745FE041E10D00E230370042343700023437101238370F723C370FC230371ABF75FFE201CABF736FE012010BC08BC18478105890D030AFC201840FC2803D1F72901D1034800D8
:FB2BD100E000207047C046D49E0900812B090004280AD106480378002B06D0054803785B065B0E0370012000E000207047C046D49E090039C3080030B582781202437813439A05920D1B0AFC252B400C2B0CD1032A03D01A2A00D080E003E006F057FC01207CE002F0D0FB78E00124FC2B63D1342A49D0B52A20D0B62A21D0C22A22D0C32A23D0C62A66D32CD0C82A2DD32FD0CB2A30D9D02A1FD0E62A0BD0F52A18D0FA2A1CD0FF2302339A4227D003339A4251D126E004F0DEFD4EE002F017FACFE702F04EFACCE702F08AFAC9E702F0CAFAC6E702F033FBC3E702F0F2FAC0E702F058FBBDE706F049FCBAE706F083FCB7E706F0C0FCB4E798F7B3FDB1E781
:FB2CCC0004F0BCFBAEE702F082FBABE718490869C00122D5174A106920431061101C117D8B0706D5FD231940017500207FF757F813E0002103207EF7B4FF0EE0202B0FD0042B0DD1132A02D0192A06D102E002F07DFB03E002F092FB00E00024201C00E0002030BC08BC1847034804490860704754200800CC2F0800092C090018C908000020704701480249886070474D2D0900201A080030B5051C7CF7AEF9041C281C8CF73DFA8749201C2830062206F062FE00280BD1844C2560012363717F21C943A01D072206F05EFE00232371002030BD10B5041C0120A040C1437C4803680B4003608BF771F978480368A34203D1FF2303600023437110BD754876B7
:FB2DC70049C8607047F0B583B0041C012906D164300023C372251C9435AB73EB736F4803689B079B0F032B02D073F77CFAC8E00023A381E07B484000D1B6E072F717FD002803D1674803691B0101D5012100E00021271C64373E1CFB6880208343C8010343F3600C365F4A1078431006D0C3071B0E31688020814319433160594803691B0102D4381C96F7F4F9BB69002B02D03B681B063BD4338868460380E37B012B0DD0251C94356B7B002B10D02B88042B0DD3EB7C022B0AD3AB7D002B07D1A72303201855009B78208343002106E00121E974009B78208343082003431F20800283438802034300931B041B0C3F4A1360012030723B4A13691B0152D493
:FB2EC20000984006010F00231A1C012096F7D4FB45E0E07B002802D1A72301221A55012804D1E37C042B01D074F7C7FCF37A002B06D00023F372336801204002434033600121B172251C9435A97326480369DB0002D5201C89F7D7FD338824490B60B0884860381C72F7F7FC30684006030F2048C05C3072431EA381E37B002B0FD10121387F81401C4A1068084008D1E37C042B05D019480378AB7519480378EB75114803691B010FD5201C96F72DFF0BE0271C64373B727B7272F785FC636C002B02D05A231B5BA38103B0F0BC08BC184709C10800689C090000040800CD2D090000020800188B0E0054200800DCC80800CC8A0E009EBB0500B4010800F552
:FB2FBD00010800F601080030B50D1C041C77F7CBFE6B075B0F012B05D1E37B002B02D1A07B9EF70AFE30BC08BC184700B52C2204490548C1F7C8FC034804494161044B186000BD0CBD0500789C0900C52F0900E402080010B53F4C3F4B1C602C223F49201CC1F7B1FC3E48606210BDF0B5041C051C876A28353B4B42331878002866D1201C012174F725FA061E4BDD022804DB201C79F79FFA002859D1618C8B1F9E4223DA304A13689C420BD0391CAB310878013800D30870731C5910201C79F72CF830E0731C5810E37B002B05D07B6C002B02D06B7F002B25D02F89B84222D36A89002A06D1A389002B03D1201C73F733FE18E0BA4200DA3A1C904201D94B
:FB30B8000C2310E04B23A27C1B5D9A420CD102280AD36B7F002B05D014480378994201D9282300E03823A374211C4D31087800280FD00238087000060BD1E37B012B02D0237D0C2B05D0321C201C0523022179F788F9F0BC08BC1847A49C09000003080074BD0500293009006C210800F402080000B52C2216491748C1F728FC1548164B18601649016100BD30B50D1C041C7AF770F8022D09D16B23185D002805D0201C89F759FB201C89F791FB30BC08BC184700B5011C6831CB78002B07D04B7A002B04D18B78002B01D089F768FB00BDC0462CBE0500D09C0900300308004131090000B57EF7A6FA00BD10B5041C031C9A3313201870E3691B06DB0E0AC6
:8D31B3002B03D10A21201C7DF780FA201C83F755FA201C83F780FB201C83F76CFA20687BF7C8FE10BD30B5011C2831041C7BF7D7FC051C1ED0F82043595B0703D5281C02F0C4FB06E0EB699B021AD40E490B681B0403D5281CFFF7CAFF12E0E369834310200343E36199230B201855201C83F75DF906E05023044988881853201C94F7D2FB30BDC0468C070800D4200800C4
:FB32580000B52C220B490C48C1F790FB0A4B0B48036000BD0A49CB6ADB0007D5094AD3885B00418C8B4201DC012100E000215A3001707047B0CB0500FC9C0900F4030800542008009420080000207047087B4008072801D101488860002070471D4B090030B5041C002964D0012953D140051BD421E0344D291C3448B9F7B5FF2988281C262902D104F06DFE0EE0042902D17EF700FA09E00F2902D105F06CFC04E089002A4A8958C8F7DBFA2748B9F7B4FF0028DFD0274B1C4020020AD57CF7DDFE0121C905244800230122B9F775FF224B1C4020042ED521490868037921490B7000230371B4F71CFF7BF7A9FE002803D11D48437D002B09D01C487CF7DBB4
:7D335300FE83F724F81321162005F0AEFF01E07CF792FE174B1C400EE002290CD1C00308D510490878012804D10D490B681871B4F7EDFE7DF780FF201C30BC08BC18470D480D4908607047C046F4440800284508009CBE0500FFFBFFFFFC440800FFFF7FFFC04F0800D59E0900E44E08001C450800FF7FFFFFB9320900F0C4080026
:FB33D80000B5431E04490B6004490B78032B01D1C1F78EFF00BDC046E08A0E0038080800F0B587B0061C0491081C00210391A34C2064211C4431009100238B70A0488568002D00D16EE2AB7D002B09D0012203920023AB756361237810208343237006E06069002803D0012E01D972F7A7FE22691D27FF03002A50D0607A012803D19389002B4AD047E08F4B1B5C002B43D1BB68DB0742D4137D092B3DD204281AD1012E18D196756261237810200343237023683B6085490B687233187802282DD0002382490B608249086882490B6803600B68036022E002280AD1012E08D196756261237810200343237023683B6015E0032803D179498B78022B0FD00688
:FB34D3002801D0032805D1012E03D1BB689B0600D5C0E1122803D0102801D072F7D1FD6A4B985D029000287DD00123DB07334301936B4B6C490868986301236B490B606B490B689B0C9B040B600B6869490868034366490B6001230099CB7066490B6866490B6066490B6866490B60287C1A281DD164490B6864490B6064490B6864490B6064490B6864490B6064490B6864490B6064490B6864490B6064490B6850490B60634908686349086063492DE063490B6855490B6062490B6855490B6061490B6855490B6060490B6855490B605F490B6855490B6019280ED1FF2017302B562A3309DD5B490B683E490B605A49086851490860594908E059490B68A5
:FB35CE0039490B60584908684C4908605749086857490860A87B2318042801D3187800E0205C6F2290431870C2E0A87B225C0F218A433107090F0A43225423180428049802D38107101C01E081071878490E6022904308431870234B464908689863009AD378002B00D1A1E022490B689B0C9B040B600B684049086803431D490B600023D3703D490B681D490B603C490B681D490B603B490B681D490B603A490B6821490B6039490B681B490B6038490B681B490B6037490B681D490B6036490B6809490B6035496BE0642C08006C210800ECBB0500DC02080060000F00AC2C080044020800882B08002CFC0E0060020800E08A0E00B88A0E005C0208006CE6
:FB36C900130800D8FC0E0070130800E0FC0E004C9C0900CCFC0E00549C0900DCFC0E00509C0900D0FC0E005C9C0900C8FC0E00589C0900D4FF0E00F89B0900FC9B090030FC0E00009C0900781308007C130800801308007413080084130800E09B0900E49B0900E89B0900EC9B0900F09B0900F49B0900D8FF0E00B82C080048020800BC2C0800C02C0800C42C0800C82C0800CC2C0800D02C0800D42C0800D82C0800DC2C080008689349086093490B6893490B60002101912868826A281C0021C8F793F8002810D026231A5C002A0CD08368002B09D00298002804D0802301981843019001E0012200E00022237880208343D0010343237020200499084071
:FB37C40001D00120C0037F4908600499090704D47D490B68802083430B600499880801214140A27880208243C8010243A2702868826A281C0321C8F759F874490B78012B01D078F7F9FF05A9714A13687020034018099EF746F82369002B14D0637A032B11D18AF7A7FB002806D16A480368032B02D00368062B06D12B7C122B03D101230098837058E005988007800F06D003280ED1069B60490888834209D30398012800D1656172F714FC012300994B7043E00820B860A87B786223683B603B1C1833221D03929207920F02D1039909680FE00399891A0391D2000968D140049120218A1A03994968914001B40598014301BC1960BA69331C103B042B0D28
:FB38BF00D2474B1340FF22013282401343BB61102E07D1444908684449086002E040481040B8610198002800D07861E5602672002300990B704B70281C8EF75BFC012007B0F0BC08BC1847394B3949087A185C39490B68002814D00120800303430B60364A136836480340364A117849020B43354A1360354A1368302083431020184308E0324803400B602C490B682E490B602E4908682F490860704710B5254C234B607A185C002802D072F705FF15E06069002801D072F70FFC27490868637A012B01D1254A00E0254A13680360116801600023234A136072F71AFE002322490B60E3602361637244340120207010BD002803D1034803680348036000201B
:6E39BA00704730FC0E00609C0900D8FF0E00648B0E00A4860E00D4C1080024860E001C840E00E4B60800FFF0FFFF9406080064FC0E00ECBB0500642C0800808B0E00B02C0800FFC1FFFF9013080088FC0E00B42C0800FFBFFFFFCCFD0E00AC2C0800400208004402080060000F0018800E00A9
:FB3A3C0070B582B0061C65480168890602D5022074F7C5FB624C2568A3682360002D26D0002E18D1A0F79AF9002814D0C30703D52A68916900290BD1430703D52A68D169002905D1830706D52A68116A002902D0281CC7F712FFA0F79EF9011C2A685269002A04D0002802D0281CC7F703FFA0680026A84218D0002D21D02A681269002A03D0281C0521C7F7F5FEAE8123699D4200D126612B7D092B11D3281C75F78EFD281C75F713F90AE0002808D06369984205D166613B4800220121B9F7C3FE3A48C16E002904D0A368002B01D1C7F7D5FE72F75CFBA06800284BD08681037D092B20D26369984205D166612E4800220121B9F7A8FEA068A84206D10173
:FB3B3700684968002902D00523037508E0017D032901D0042905D101684968002901D0C7F7AEFEA0680223037501680A69002A02D00221C7F7A1FEA068807B1D4A136870210B401909884216D169469DF790FE72F706FC002801D0174800E01748028800998907890F04D0032905D1019B934202D33F2301201855A0688EF786F901208EF796F9A66066603C3426716671012002B070BC08BC18470948044988617047C046C4C408006C2108000C2D0800201A080024860E0066020800640208003D3A0900A248A3498865704700B5A24A9007800F01D1116808E0121AC0001368C3402021081A516881401943C90F9B4801709B4A1068002817D09A4A02603C
:FB3C32009A4A82609A4AC2600123994A13700023994A1360994A1360994A1360012902D100F007F802E04068C7F72BFE08BC1847000000B500F003F808BC1847000010B564238F48037000238F4803608F4803608F4C236000F04FF8804A9007800F01D1116808E0121AC0001368C3402021081A51688140194301204007014015D084490B68001403430B6083490B68834803400B6004390B680120800303430B607F4B80490B6003037F490B606B4A9007800F01D1116808E0121AC0001368C3402021081A516881401943C90011D5774C2368002B02D0201CB9F7ABFB7449201C00231A1CB9F786FB72480168201CB9F78CFB90F708FA10BD10B56F4C237B
:FB3D2D0068012423436D4C236001239B036C4C2360534A9007800F01D1116808E0121AC0001368C3402021081A516881401943090105D561480368022003435F480360604800218160F421C16020210161E8218161E9214161102141624021C161016205239B04036010BDF0B585B0061C0C1C554D021C002100910190031C02AF19C70F1C01235B02514C23604E4C2068000C000468602960049C242C02D0252C1FD102E008240A230AE070321278022A02D10824474A01E00124464A1178012322011B031A432A600B071B0D18436860F37B002B00D139E10122D20302436A6034E1049B5B003C481C5A3C498C4211D180239A5D3B48135C1B013A48181880
:FB3E28008388002B07D0364C1034837A012B06D1334C203403E0002C01D12C6017E1301C8EF738FB002800D0402430480368002B07D0602C01D1E024B0E0702C0BD1D024ACE00498042801D0022804D12B680120000403432B60302C51D149E0013C0900A0190800C005080030C8080044060800653C0900953D090089400900B805080034C8080038C808003CC80800D005080040C8080048C808004CC808009C800E0010800E00FFBFFFFFFF030000BC820E0010000C0068500800673D0200D405080070010F005C000F0074820E00E89E09000C800E009806080090060800D8050800100100009005080024500800D4C408007023985D002802D0A74C70FD
:FB3F2300344EE0502C0BD1336FDB052B6804D50120400403432B6043E0A1480340FAE79F4B30339C420DD101992031C87A002801D1071C31E00128FBD00228F9D003282BD1F6E7964B60339C4213D1039880304278002A01D1171C02E0022A00D10127837E012B00D10227437E012B00D103273B06D0E78A4B40339C4212D1029B28335879012801D0002800D1071C02990B8D58107F2801DC43062B603B062868184328602A6822437D4B70339C4203D023097D48C15C0091302C0BD17023985D002807D1301C2830037D807A19180906090E0091009803031A432A60F37B002B04D06B680120C00303436B60F37C032B06D1708CC306180F0302686818437D
:FB401E006860402C28D169480378002B08D0301C8FF7BFFD03071A0A2B6813432B601BE00120C00410432860B07B9DF747FC400860490860604A11689DF7DBFB5F4908605F490B68984204D2301C8FF782FD002802D00123564803702B68594803606B68436005B0F0BC08BC1847F0B582B00F1C051C0022009201908EF711FA514E002844D034684A48017800291AD1A87B9DF715FC4008474A1060474A11689DF7A9FB464A1060464A1368984204D2281C8FF750FD00281BD001233D480370424B1C4015E06B6E1B0612D4012910D1281C8FF740FD00280BD1A87B9DF7F0FB4108354A11600023324A13700123DB041C432F480378002B03D001988EF77AEF
:FB411900FE0090324B1C40009803071B0A1C433460042F01D0022F05D13368012109040B43012107E02B480378002B06D0336829490B40002133602648017002B0F0BC08BC18472549C37B002B04D1FF220632805C012806D108680002000A0122920602430A600B681848036070471C480378002B18D01448C16BCB0714D581691022114381610521C26BD20708D503680822134303600368934303600139F3D18169102291438161704710010000FFFFFDFF24060800B805080038C8080034C808003CC80800CC05080070820E00FFFFF7FFFFFF0FFF45C80800FFFFFEFFE89E090030C8080030B5041CC37C032B27D1037D0C2B24D11830437B002B20D17C
:9842140021490B699C4202D18B68002B13D0418900680B1858010509A07B9DF754FB854201D3281A03E0431B01200007C01A831F1648834205D3201C75F7D4F9201C74F762FE237D022B03D0032B01D0042B07D10F480379002B16D0201C72F7ABFC12E00C480369002B02D0201C71F740FF06494123585C012804D0002804D10B689C4201D174F7CEF930BD6C210800FBFFFF07A42C0800642C08007F
:20434000A823195C002903D0011C64318B8ECB86011CC36F6431002B01D08B8E0B877047C3
:FB43680070B5041C00253848436912219B0708D5364A1068364A106050304079122800D8011C43209EF75CFF324BA360324B2361201C0830ACF7FDFD2168086063681D60ACF766FE201C1030ACF7F3FD216808600420ACF775FE6061062801DAACF758FE201C0830ACF7E5FD216808606368002018600420ACF764FEE060201C1030ACF7D8FD216808606368002018600420ACF757FE6061E368C61A301CACF7A7FE042817DD01350C2D14D0301C042E08DDACF79DFE8100081A2169081802382061CFE7ACF794FE8100081AA168081A0230A060C6E7A16820690B1AE3614018C30F18184310236270BDC046181B0800D4CC0800F09E0900FF03000001FCFF7A
:01446300FF59
:FB447800F0B5444D2B68987B9DF72BFA46082B68996C301C9DF7C0F9041C2868011C94314A88002A10D094420ED9037D0B2B0BD00D2B09D072F78FFA2B686433197F012000037CF761FF64E00B7D002B06D0CB88F31A1B041B0C9C4200D81C1CC36F6430002B06D00B89F31A1B041B0C9C4200D81C1C8A88B31A1A04120C944200D8141C0B881F1FBA4204D3CB7C022B01D30023CB74214E33889C4204D80020BA422ED303202CE073889C4201D8042228E0B3889C420BD9007F76F7B1FD002814D0037C112B11D115494B889C4203D829689431052215E08B889C420DD82968943106224A745E2383740CE0F3889C4203D829689431062204E0296894310764
:9D4573002200E0021C4A740B7E012B04D1531F012B01D804234B74F0BDB421080034020800EC02080010B5A5F7C3FA0B494B699B070FD50A48036801200343084803600A249DF740FC013CFBD1044803685B085B00036010BC08BC1847181B0800F0FC0E0010B5094C2C220949201CC0F7D1F90849E160084B1C6010BDC27B4A4002D0838C05490B607047C046F49E090034CC0500ED45090010040800CC8A0E0084
:D0463800F0B581B0041C00210091C56D8726F600002D04D1301C9CF796FF051E03D0301C9CF791FF0090264F3B68002B08D1301C08309CF788FF3860311C0831C0F7A8FC20480368002B0DD1301C08309CF77BFF1C4A1060311C0831C0F79AFC19480368002B07D03B68002B04D0002D02D00098002817D1E02300201851E565E4210B59DB0208D46358104803430B515022206807217FF7C6F90D480368002B0DD19CF75EFF0AE0E5656060E4221359064883431351206807217FF7D5F9002001B0F0BD444408009C44080000001000600308006A
:7447100030B5E4221358012109058B431350051C7BF71AF90024002800D0EC65E86D002802D09CF74BFFEC656868002802D09CF745FF6C60074D2868002802D09CF73EFF2C60054D2868002802D09CF737FF2C6030BDC046444408009C44080000231360012805D10123DB040B6007239B03136070470000B6
:7047AC00B0B503685B011948C21880270F404906490E9068002827D00568281C041C002F06D0437B8B4201D0002300E0012306E0037B5B088B4201D0002300E00123002B0FD0A84205D1137C002B02D1D37F022B0AD0111C08319DF7ACFC201C9CF79AFE02E00068A842D9D1B0BDC0467C290800E7
:1A48380010B5002907D0041C72F788F8201C6FF7F3FF012000E0081C10BD12
:4048780000B50D48B8F7F7FC00BD30B5051C00240A49A300C818C378AB4204D1A300C8180421C0F795FB0134082CF1D330BD00B50068FFF7EAFF00BDB85208005047080027
:FB48C00030B5104D0D24281C0022111C92F710F9281C92F703F92035013CF4D130236343094818182C23195C022904D1406A002801D09CF76BFE0134022CEFD392F7B8F830BDC0467C29080080590800F0B582B0051C0E1C041CB0346946207B9CF7C3FF2C482D4A1178431AF6000198991940182A4B984201D3032005E00121284B984200D30221081C009943185808031D5808860176092188301C9CF75AFF6788391C79F7D6F9381A4308AB80831958014009A0601422291C1B4805F082F802B0F0BD10B5041C184908680007000F01280BD80B683F2000020340190A144A906EFFF7B5FF134A9378A37410BC08BC184710B5041CB4F7A7FF0F498B78009F
:3D49BB002B07D1A37C0B498878834202D0201CB5F777FD10BC08BC18470E020000049C0900A90300007102000000980E00A88B0E0038B0080074150800AC21080052
:FB4A0C00F0B584B0061C181C01AB07C300252C1C05F038F800902F1C0199002918D0F37F022B15D1337C351C002B01D00C3500E008352A68101E00D01068002A07D01168914201D12C6001E00B6813600C6014E0357412E00A6801928A4201D1F76001E013680B6001990F60002C04D0236813602260141C01E0141C1260F1680029E9D115E01A680193111C9A4201D1B76004E0136801B40298036001BC0F60002C04D0236813602260141C01E0141C1260B368002BE6D1002D0BD02A68002A05D0136803602B681860286007E02860006004E0F37F022B01D10323F377009804F0DAFF12E02068051CA04201D1002401E0036823602F600399002904D0026C
:AD4B07009900229EF721FD01E09CF716FD002CEAD104B0F0BD00B592F725FF08BC1847000070B5C369DB021AD5061C041C9034E278002A16D1002914D181F743FE051CB66C002E0BD0A0880C214843124941431248C0F750FB011C301CB8F76BFCE570012000E0002070BC08BC184700B50B48072104F09AFF0A48B8F770FC0A4A1368002B00D00123002B01D076F77EF88B230648036000BD71020000D43000002C2D080020C50800EC2F0800EC8A0E00C0
:6C4BBC0000B50121C90505480022B8F75BFE08BC184700000248034948607047FC440800BD4B09009C45080000F002F892F7CFFF10B5041C8168002917D00868002814D0037B5B08132B10D1E37F022B0DD10A688A4202D10023A36001E013680B60002313609CF78FFC0323E37710BD10
:884CAC0070B5041C0E1CEC300068002807D5E069C00104D5211C3C31201C96F79FFCE06940021AD5656C07232B70FF236B70AE70211C2831E81C0622BFF74EFE00236364E069012189058843E061EC210859400040080851281C95F7EBFE70BDC169012292051143C161EC2319585A07114319507047C169032252051143C161EC2319585A0711431950704765
:284D480010B50C1C0368002B0AD191F755FF002806D00121207F8140024803688B43036010BDC046742908002B
:184D800010B5041C04F084FEE369012189048B43E36104F085FE10BD6F
:F04D9C0000B5FFF7F1F908BC1847000000231C490B701C490B70FF2341331B490B601B481B4908601B481C4908601C481C4908601C4B1D490B601D4B1D490B601D4B1E490B601E4B1E494B601E4B1F490B601F4B1F490B601F4B20490B6000231F490B700323DB021E490B800123DB021D490B805A231D490B6000231C490B707047C046389C0900399C0900409C09001B58090064C808002756090068C80800474F090054C80800C355090070C808007563090078C80800309B0900B00608006D730900000208009759090060C808005C9B0900AC0608000F6009007CC80800239F0900189C09001A9C0900289D0900D69E0900A6
:FB4EE00030B5041C7DF7B1FD011C021CE0690004C00F1073032353730C32664B186800090225800704D5F42003599B0700D5957000234B60201C92F74CFA30BD30B5041C0D1C7DF792FD5C494B681A7BD207D20F0273052343738573584A4260011C201C92F737FA30BD10B5041C0321FFF7E6FF201C00F028FD10BC08BC184770B5041C7DF773FD011CE2691204D20F027304234373F8231D59837B0126B34335402B438373F8263559AD07ED0F0226B3436D002B4383730C30002A0CD1414A537815785B199578EB18D578EB181579EB185279D31800E00023C3703A484860201C92F7F8F970BDF0B5041C374D00232B70C0690004314A51683DD534484248
:FB4FDB00780378D3188278D218C3789B180279D218407983181806000ECB7B834220D020686FF7F2FB071C04F045FD061C381C71F77AF8012120688140264803688B430360301C04F03FFD20686FF7AEFB2878224A1378984218D20130287090F731FA13E08B7BD807C00F9B07DB0F590001436970201CFFF785FF07E0897B8B07DA0FC907C90F201C8FF7F4FCF0BD00B5406800280ED0F82319580A04520ED30708D50F4B13407F22520291435A021143F82211508FF72AFC00BDC046641B0800F44408004B590900E8500800135A0900209F090064000800B4C40800059C0900FEFF000010B5041CB34A1068C00702D4112323702FE00123B04A1370087905
:FB50D6000002C9780843191C79F77AFD002810D0F82319580A04520ED30716D4012313437F22520291435A021143F8221150490701D51223DEE7A04B19684906490FF42212589207920F914201D00C23D2E7283401212170FFF7D9FE10BD70B5051C0C1C0123964A1370031C283301201870924A10684006400F02281FD101F07DFC00281BD020790002E1780843012179F738FD061E12D0F830006840070ED5002388480370FF2388480360611D87480622BFF7FEFB90F788F9002802D10C232B700AE0F82290590122920210430821884303221043F822905170BD30B50123784A13708B7B002B01D1122337E00C1C734DCB782868002B05D001210843285D
:FB51D1006000F0EFF907E00122904328607148036871490B40036070482379037063794370A3798370607A0002217A084340106B4A1060C0006880E07A0002A17A0843684A1080607B0002217B0843664A1080A37B664A1380E37B654A1370237C6548037030BD0123574A1370554A1168194081735A490B78C3734B7803748B7843745D4A1168090A8174554A11684900C174090A0175534A11884175090A8175524A1188C175090A017650490B88437650490B7883764F490B78C3760E23C370704730B5051C0C1C01233E4A1370031C28330120187001F0D3FB002818D0E01C79F731FC002801D00B2312E0FF2337480360E11C37480622BFF75DFB314909
:FB52CC0008684006400F022819D190F7E1F8002802D10C232B7012E0E01C79F715FCF82319588822114303239943F8231950A17A0902627A1143324A51405E30018030BD30B5051C041C01231F4A137008790002C9780843191C79F758FC002802D112232B7017E05C21095AA173090AE1730834F4300068211C08318A07920F01D1086006E00870000A4870000A8870000AC8700623EB7030BD00B501230B4A1370C878002806D0174A1370022100208FF712FB06E014490870002313490B7090F7BFF900BDC046641B0800D69E0900BDC1080088060800B7C10800301B0800CDFEFFFFA806080090060800329C0900309C09001C9C0900389C0900399C0959
:FB53C700009406080006330000249F0900BFC10800704730B5051C041C0123234A137008790002C9780843191C79F7F1FB002802D112232B700BE05C21095AA173090AE173F83000684007C00F20740323EB7030BD30B5051C0C1C08790002C9780843012179F7D5FB002806D0F8300068400702D50C232B7003E0211C281C96F793FC30BD30B5041C0D1CC81C79F760FB002806D0F8210A58520702D50C23237003E0291C201C96F7D8FC30BDD69E090030B5041C0D1CFF20062195F7A2FB002807D016238370C470210A0171457195F723FB30BD30B5041C0D1CFF20062195F790FB002807D018238370C470210A0171457195F711FB30BDF0B582B0041CD8
:FB54C2000F1C00230193081C79F7FBFD061CC069400409D56B4601AA311C4C31301C283098F778FE002831D0032095F777FB051E2CD0381C79F7DEFEE8725C239F5B311C2831681D0622BFF73CFA2006000EA870EF703F0A2F7198218959C900C90F2973011C301C00F089FA012803D1281C9CF706F80BE0281C95F7D0FAAB78002B05D1194A506F012109048843506702B0F0BD10B5041CFF20052195F734FB002806D039238370C470210A017195F7B6FA10BD10B583B00C1C417AE0690004C00F88420DD0094B684603800723837002A84170074A6946201C83F7D0FE002000E0012003B010BDC046D42008000B0800009B6A0100B6480368FF2103310B86
:FB55BD00430360704710B5B34CB4490A68D00705D55006400F022801D1FFF7EDFFAF494888C310AE490B600023AE490B706378002B08D101236370AB49AC4800231A1CB7F712FF02E0A948B7F72DFF0023A848037010BC08BC1847704700B513225C300188002095F70DFC00BDF0B583B00E1CA04D041C00F0E6F9F8210859C0075DD5002E55D0201C6FF74FF9E069F822904340221043E061F821085904218843F8210851201C92F709FA206800216FF777F92068002101F010FA8A480378002B0AD0E069000430D48C4A90798C4A1178014001D1002826D1F821085900050CD5E069000418D4864B69460B8007238B70854A201C83F745FE0EE0261C5C3696
:FB56B800318800231A1C181C95F719FD30880021FFF7E6FE201C00F008FA00232B70724803707748037038E001232B70201C00F0FCF932E00859400502D4201CFFF78FFF201C79F730FEE269012000068243E261E06C40004008F8210B596C4F3B40EC273D5901263607B5433D5108210B43F8273B5198273B59B3433B5103239B069843E0641204D20F301C002A01D1331500E080235F490B607AF7B5FA012003B0F0BC08BC184710B5041CF830006859490840F8210851400626D5E06900040CD48EF7F6FF206801218140CA4353490B6813400B606EF7FBFF19E050490B7850490878834210D2206801218140CA434A490B6813400B606EF7EAFF48480351
:FB57B30078013303708FF770FE2CE0002344480370E069000426D5211CF8310A6810060ED5101C0C218843F82210513F4A1168042095F766FAFF21201C00F062F912E0101C3A4A1040086008215C23185BFFF74AFEF822105904221043F82210510821201C80F7ECFD10BD70B5041C244D03685B012F48C618E069000403D4201C00218FF751FA20687EF708F9201C00F0D1F8E0690006C00E0A2817D1012120688140254803688B430360201C76F71AF9E069F821884340210843E061206885F73DFC201CA030042104F01AF9E069F821884318210843E061F821085907212DE0301B0800229F0900641B080090060800389C0900F3450200349D0900D69E38
:FB58AE000900229F09002C9D0900399C09000B0800009B6A0100FFF5FFFFD4500800FFF7FFFFB4C40800209F0900059C090088060800FFFBFFFF7C290800E4C70800084340218843F8210851206801218140CA439F490B6813400B606EF73DFF211C301C012291F7EEF8E069000402D42B78012B05D05C23185B0021FFF7A5FD01E000232B70F821085992490840F8210851201C83F718FE012070BC08BC184700B5011C1D207AF728FA08BC1847000030B5051C89480378002B0AD0884C884A11688848BFF745FC011C201CB7F760FDA56030BD002808D0F8221158490704D5C169914340221143C161704700B58FF74FFE012008BC18470000704770B506A1
:FB59A9001C051CFC352C68002C0DD114209BF7ADFD2860002810D07449321C0023B7F72DFD2C68002C08D0714A11686E48BFF711FC011C201CB7F72CFD70BD10B5041CFC342068002806D0B7F737FD20689BF7A3FD0023236010BD00B560480378002B02D05F48B7F729FD00BD10B5041CC16909040CD50068002101F038F85D4908788307DA0FC107C90F201C8FF70BF810BC08BC184710B5041C002935D1F830006880218843F8221051011C0007800F15D0081C0C218843504A1040F8221051400503D4201C002195F72CFBE069000405D4201C28308FF77DF98EF771FEF82210590104490E8B070FD5444A0A407F214902884351020843F8231851132151
:FB5AA4005C342088FFF7F6FC012000E0002010BD10B5041C9A231954C0690006C00E0A2803D10B21201C7AF7F8FD201C80F7FBFE201C80F7E7FD206879F743FA10BD10B582B0041CF83000682E490840F8210851E06900041CD48EF734FE98210859C00020D5E06C28498843E064284B69460B8003238B705C23185BC870000A01A9087001234B70224A6946201C83F705FC09E098210859C00003D5E06C1B498843E0648EF73DFFA36B1B070AD5E069000407D418494B681B0503D5201C01218FF7BAF8E069012189058843C9018843E0619C340020207002B010BDB4C40800FFFDFFFF239F0900349D0900089C0900D4300000D34502000C9C0900219F09A7
:FB5B9F0000FFF7FFFFFDFF0000FFFBFFFF0000000C13040000AB750100181B080070B5041E3CD0F83000680104490E4B0736D5000734D43448437E002B18D08069C0032DD58B070ED530480A1C0240F82319592F48814350020143195108215C23185BFFF74BFC0821201C80F7F3FB17E028480A1C0240F826315925488143500201433151251C5C3529880022101C95F764FA28880021FFF731FC201CFFF753FF70BD10B582B0041C00230193C069C00819490840042814D16B4601AA211C4C31201C283098F7B9FA002806D0019B002B03D0201C7CF718FF03E0211C00207AF793F802B010BD10B50124201C79F71CFAC1690906C90E022902D3132180F7B6
:FB5C9A00AAFB01340B2CF1D910BD2C2D0800FDFF000000FE0000FBFF00001F10000070B5041C061C037D022B36D1807B9BF708FE251C1835A74A13685900884201D2091AA548401AA54A1368618C49005918884206D90123DB06984202D23723A3741BE0201C73F79FFC002816D170363078042812D0A07B9BF7E4FD2B685900884201D2091A9448401A431F9548834204D201236B73201C70F7F0FF70BC08BC184730B5904A9049006843075B0D1078C407240D2343181C8D4D2B681B0418430860686800042B681B0C18434860507888600020C860012030BDB0B5041C837B844A13600123834A1360834D844A106879F715FA28606868802108436860802A
:FB5D9500480168C94361674368A3672964A06F6904084368647C4AD07828627023185D022829D0042844D1784A1368180A4300D91C774A1160031F764A1360764A1160744A1368754A13600023754A1360606FA861A06FE86173484178CB0101781943807883030B4351070B436F4A13601021081C6FF7CAFE1CE04923684A13606B4A136880200343664A1360282112206FF7BCFE674A1368674803401360634A13685B065B0E802018430302614A106818431060614C0027E05780F706F803061B0E5E4D2868000A000218432860E0577FF7FBFF0006010C2868564A104008432860B0BD10B5041C00290AD1FFF777FF7034207804281ED152484379012BEA
:FB5E90001AD115E002290DD1807B9BF71EFD80084000324908606D23185D78F7ECF80023A38109E0052907D100F0B1FB002803D18EF788FF00F04CFE10BC08BC184700B53049086879F7F6F8C2693F4B1968072399431A4011433C4A11602A490B680360C16901221205114352119143C161F822115804221143F822115000BD3348C3890360704710B5324C208A2189884203D36068884200D9081C208020882D4941431B4A1068000A0430BFF760F9E1690818294A1060A0F7B0FA011C0320BFF772F9638A21898B4206D9E368984203D1411C0320BFF767F9E06010BDC046349C090000000010409C0900FBFFFF07389C0900B8890E0038800E0000830EDC
:FB5F8B000098830E0000820E008C0608000C47080064000800940608009C060800A0060800108B0E00148B0E00A4860E00A8060800009A0E00E4500800648B0E00FF00FFFF9203080004830E00A42C0800609D0900249C0900209C0900710200009C830E0002234377C368012149020B4380210B43C3600023C37503680B430360012383777047F0B5B24CB34E301C78F77DFDB24D002802D0C16909040AD4012078F706FE2860FF2801D1002050E079F745F801E003682B60C169F822914318221143C161F822115804221143F8221150311C28300622BEF791FC0123A0480360A0480370FFF74EFF0123E3749E4F3968201C70F72AFC2423237402236374AC
:FB6086003523A374201C60300023037001234370002383702362286879F789F8A0730123E373211C6431301C8EF7DCFE286879F77EF8211C643170F77EFA201C4030FFF792FF3968201C70F710FC002000F0CFFC0120F0BC08BC184710B5037D092B0ED1834C7E4A106879F762F820606068802188436060794AD0782062FFF708FF10BC08BC184700B5002902D100F045FB16E0022907D1012376490B604030407F77F7AFFF0CE005290AD1002371490B6000F073FA002803D18EF74AFE00F00EFD08BC1847000030B5041C051C61352878012803D102232B7051230FE002281ED165490B680120C004186064490B68002B09D0FFF7CDFE01232B703523A318
:FB61810074201C70F7C5FD0BE0201C70F71FFC042355490B60980679F790FD012000F069FC30BC08BC184710B585B0041C1422E92109036846BEF7E5FB00984207520F21680723994311432160010A6170010CA170039B1B0609D4030EE37001982071010A6171000CA071062200E00222611C3B4803F025FC002801D0002000E0012005B010BD30B5041C6034A3780133A370051C6FF776FFA378281C032B13D90023A37037490B68002B08D170F7D0FB04232D490B60980679F741FD08E00123637070F767FD03E00223637070F7BDFC30BD30B5051C041C60346378022B24D1294A1168043A1068CB0719D4430317D54A0315D50722D2040A4011D143065E
:FB627C00180F03280FD18B05D80E11280BD11F48FFF78CFF002806D00023A3700323637004E0CB0702D4281CFFF7AEFF30BC08BC184710B5041C011C6131087803283ED10949086878F700FF002821D00F4B1A68C169072399431A401143C16118E0C046749D0900B7C1080088060800D4500800BEC10800AC06080000820E00F0FC0E00AC2C0800249C09002C8B0E00609D09000223B04A1360D80679F7D2FC211C6431AD487DF7C9F9AD4A106878F745FF211C643170F745F9201C70F74BFB0CE0A84A1388002B08D1012806D102230B705123A374201C70F7DFFC10BC08BC1847A049037D022B07D14868431E00D34B600888013800D30880704730B59A2E
:FB6377004C9A4D2B68FF2B49D1002078F759FC2860FF2843D00123904A1360954A13700323E374944A1168201C70F797FA25232374022363743323A374201C70300423037000234380236323848B4A13685B006384242000230355286878F7F0FEA0730023E373FFF778FD286878F770FE6C2103680B55C169E06D0722904311400843E065201C5030FFF7F6FD211C74317B488EF730FD784A1168201C70F76EFA012030BC08BC1847F0B5021C73490D6874490B8859088D4200D8291C724F3B68C918041C7034668873438B4213D96B005384252101230B5404232370332393740023638070F75BFC20235C480360D80579F72AFC01E070F752FCF0BD30B54D
:FB647200051C041C5B49086878F723FE002808D0C1695E4A106807229043114008435B4A10605B490868430E5B490B605848FFF74AFC7023022058554823A37453490B685B006384183401236373281C70F728FC30BD70B5444D2B68FF2B1FD04F4E4049301C062203F0B3FA002817D1286878F7F0FD041E0DD0C069C0020AD5301C78F710FB002805D0844203D0FF21201CFFF7D8FAFF232B60414870F723FA70BD10B5041C10232E4A1360180679F7CEFB334A13685B006384252001230355211C703104230B7000234B80201C70F747FA10BD70B5051C041C324A1368324803401360254A1378002B06D140231C490B60980579F7ABFB2FE04B0711D5706A
:FB656D0023585D042829D1332600F06AFA002800D13126A674183401236373281C70F7C2FB1BE08B0704D570342078022815D10DE0CB0712D57034207802280ED306D0042808D30AD1281CFFF75CFF06E0281CFFF72EFF02E0281CFFF7A4FF70BC08BC1847C046D4500800B7C1080088060800209C0900E09D09008C060800BEC10800B00608009006080064000800289C090098060800609D090098830E00E4500800E8500800749D090018800E00FFF0FFFF70479F498868002805D0007C2438012801D8012000E00020704700B51F21994803F038FA1B21984803F034FAFF23974A1360974A13600023964A13708EF7BCFB00F080FA00BD10B583B0041CA1
:FB6668000C22E92109036846BEF788F9694600200A78013122548D4B1A5401300628F7D34B78A37103B010BD00B5002388490B70814870F7D7F983490868FF2804D078F75EFCFF237F490B600123824803607E480378012B04D18EF7BCFF00237A490B7000BD10B5041C70342378022B27D17A4B1968043B1A68CB0717D4530315D54B0313D50723DB040B400FD153061A0F032A0BD18B05DA0E082A01D00C2A05D16F48FFF7ABFF0323237009E0CB07638804D40133638070F7F9FA01E00133638010BC08BC1847664A13681802664A1060664A13681802043A11680B0E1843634A1060704710B562480368180A62490143624C216003021918614A8B18618F
:FB6763004C2360614C236861490B4023602368032189040B43236000235D4C236003040B2109045918FD221202114303242143594C21600F30584C206010BDF0B5041C574D574F404A106878F703FD38607868802188437860534AD0783862A37B524A13602B68524AD05C0843514A1060261C606E3864A06E60361521890608437864707801281BD12C48416A002902D1836A022B09D9032904D1836AFF203630834202D2201C70F73DFB301DFFF79DFF0023414A1360082113206FF7C0F999E0022800D096E03D4B2F4A13603C4B2C4A13600123304A1360201C002171F7ABF9384A106838490B1C4343591821624300581CA081E36C782083431820034396
:FB685E001F2080028343032080020343E364236D2F4883436322134323654034A3892C4A1360238A5360EB23DB00234A1360FFF74EFF282101206FF783F9264A4DE06C210800E09D0900749D0900880608008C060800BFC10800E8500800BEC10800D45008002C8B0E002C9D090038800E00B8890E003C800E00BC890E009406080000D07DC0D4890E00043E00008C800E00B88A0E00FFFFC3FF94830E0098830E00C8890E002C9C090000820E00B7C1080000830E00A8060800A4860E00F8800E00447E000040C07DC098060800E2040000F81F0000CC8A0E00648B0E0013688C48034013602B688B4AD05C802101430902894A13680B431360884C00202007
:FB695900567FF77FFA03061B0E864E3068000A000218433060002020567FF773FA0006010C30687B4A104008433060F0BD30B582B0041C7C490B7E002B5AD17B490B68702003401D09A37BAB4252D078490B68FE20034000D00123002B47D10020B3F7DFFE002842D173490B689B063ED48CF715FE00283AD16946281C9BF77AF8684670F701FF68469BF7A7F800209BF707F96948002343628362009B9B089B00416B59180B011B0943636448016819E0251F237B212B15D1281C72F7F2FD00984308606918184308990149096161E08BBEF705FCA083281C72F741FC281C72F7AEF907E00C1C09688442E1D102E0A07B9BF7D6F802B030BD52480368002B17
:FB6A540000D00123002B09D0007D002806D0072801D0002000E00120002800D0012070473121002800D0332147488174704700B59BF70CF9430818335B089B01580900BD30B50D1C6DF790FE041E14D0002D0BD05C23A3743D4A1370807BFFF7E8FF011C201C6DF771FF06E090340021C9432160362336490B7030BD00B532486FF7BCFF00BD334A1368180A32490143324A11600023324A1360704710B5041C304B2E490B603048FFF71EF90723DB012B490B60E36D7F208343182003431F2080028343032080020343E365236E274883438820034323665034A38924490B60238A4B6010BD00B5C37B4B400BD07022115C022904D0042907D1FFF7C4FF0488
:FB6B4F00E0FFF7CCFF01E08EF71DFB08BC1847000018480368184803607047C046FF00FFFFA8060800648B0E009203080004830E002C2D080024860E00B4C4080008800E006C210800A8020800749D0900E09D0900F40108009406080000D07DC0D4890E00F8800E0040C07DC0609D0900F81F0000CC8A0E005C9D090094830E00037B0C30FF2B02D14378202B05D0F8225058400A0422104000D001207047F0B582B00C1C01D1042097E0051C4C480268002A08D0281CC4F755FE002803D0FF300006000E89E0F82148590007800F012821D1237B5B081ED0291C201CFFF7D0FF002818D13F490B78201C002B06D09AF781FC5C352888FEF786FC6DE0F822DC
:FB6C4A00515902229143F82251519AF774FC0821281C7FF7C8FBC7E72F687B0133481E18F37F012B55D0237B5B080ED1637B052B02D12E4900910DE02E490091042B09D0DB002C48C218009204E0201C0C307BF7A6FC009000990B7963770023236002F0F2FE01900099486840010BD4B068002805D003682360B3681C60B46011E0B46024600EE0F068002805D003682360F3681C60F46001E0F4602460211C281C90F7D8FF0123BB401449086818430860019802F0D1FEE8690006C00E0A2803D1381C74F7F1FE09E0082807D1381C6DF7A4FD03E0201C9AF70FFC66E7002002B0F0BDC046BCC80800D69E09007C290800209B0900289B09006CCF0500743D
:FB6D450029080070B5041C0D1CF82253580122D2021343F8225350C3699343E361061C5C36308878F7A5F820233380291C201C78F72AF8291C201C90F7BBFE286878F7F0F870BD70B5FFF79FFEB04E30687CF75BFEAF4877F7BCFE041C306878F790F9051C002C0AD0F8210B5904210B4340208343F8210B51201C8DF7E2FE002D07D0002C05D0A54203D0FF21281CFEF770FEFF23336070BD30B59D4877F799FE9B4D041E09D0C3691B0406D4286878F768F9211CFFF7A7FF05E0F820035995480340F8200351286878F75BF9041C2B682360FF232B6002F03AFE012321688B408E4A11681943116002F039FE20686DF725FC20686DF7C1FC9423195B6DF74E
:FB6E4000C1FD20680121FFF725FEE369F820834310200343E361206801216DF77EFD201C90F7BAFD201CFEF778FDFFF72FFE30BDF0B581B00026FFF725FB7949086878F721F9051C774F381C77F744FE041E3FD0C3691B06DB0E083B062B02D2FCF780F936E0F82003595B0732D50126235803200343F8200351E3691B0405D5211C281CFFF742FF2C1C36E05C23585B195B884201D077F7F0FF2F68E8690090FF221132211C281CBDF74EFD2F60EB690720834300984007400F0343EB61381C90F796F9206878F730F82C1C281C90F765FD12E05349086878F7D6F8391C041C28300622BDF730FDF820035903208343F8200351206890F77BF9201CFEF70F7C
:FB6F3B00FD201CFEF70DF802F0A5FD012321688B40434A11681943116002F0A4FD20686DF790FB20686DF72CFC9423195B6DF72CFD20680121FFF790FD002E05D1E369F820834310200343E361206801216DF7E7FCFF23344A1360354A1378012B03D1022100208DF7FFFC01B0F0BD10B52E4877F7B3FD041E17D0C369F8218B4320210B43C36100217CF7A6FA201C00217CF7FDFA274A1368012B06D1E3691B0403D40021081C8DF7DFFC10BD00B522490868042802D1FFF7CBFE2BE0022802D1FFF7EFFE26E080280BD1144877F786FD00281FD0C369F8218B4328210B43C36118E0202816D0102802D1FFF725FF11E0FF230133984202D1FFF7B9FF0AE09F
:FB703600402802D18EF766FB05E001235B02984201D18EF7F7FA012000BD88060800B7C10800FFF7FFFFB4C408008C060800E8500800249F090088C80800D450080010B5C1698B0203D500217CF785FA1FE0041C0806C00E08281AD2F8210B591B0703D5201CFEF7D1FD12E0E3691B0409D4201C7BF796FEE369F820834328200343E36105E0042803D1211C002078F770FE10BD30B5051C3A4CF82043591B0709D4A369DB0302D4637E002B03D1617E281C93F7F1FFA369DB03D90F281C012282F70EFA281CFEF760FD30BDF0B502232D4A1360C7690568F12301221A541A1C0E1C041CBDF735FC1E22311CF231201CF230BDF72EFC201C00238364483025E9
:9371310060E36907218B437907490F1943E161F369DB135A1C0B1C0121C9038B43D107090C0B43E361F82109590B0507D4174A1188818101829423154A10881853E3693F2000028343092000020343E361EC221359072000068343012000060343135198221059400F0021002800D10121281C83F7ACF8F0BDF8300068430A04201840800870472C2D080040440800560308005803080027
:FB72180070B582B0051C0024200123181B0145481E18F821885940071AD4306877F7BEFF6968884214D1301C78F7E4F800280FD03D4B69460B8002238B705C23985BC870000A01A90870394A6946301C82F76AF801340B2CD8D30123354A1376686873F712FE686874F726FB6868B3F753F9696830486FF708FE69682F486FF704FE69682E486FF700FE69682D486FF7FCFD6C68002C45D10C2363432A481D18A87A022831D304280ED32ED1281C83F7E4FE061C288000236B72E87977F7F8FEA03006810C3028E0281C83F7D6FE288000236B72EB7999005B189B011B495E18311CB831487100230B71C436B379002B15D073792B80B3796B8033796B722824
:517313001C83F7BBFE7071301D07E0002807D0281C83F7B3FE2880281C09300023037001340E2CB9D302B070BD88380800530C000043720100CC2F0800B42E0800682E08001C2E0800D037080040490800140B080041
:2C736C0010B5041C6DF774FD237D072B01D0082B06D190340021C9432160362302490B7010BC08BC1847C046F40108000B
:7473BC0070B5061C0C1C151CF82043585B0728D5CB691B0425D4144803689B0721D513480378002B09D01104090C301C8FF78CFD281CFEF7B0F8002014E0081C28308DF7A0FC2904090C301C8FF77EFD0821201C7EF7F0FF8DF7D7FA0123054A1370042000E0FF2070BDC046641B0800D69E0900BFC108008B
:68744800044A137883730123C3702830022101707047C046249F090010B5041CF8210B581804400E83071BD50E4B011C1940F82213597F204002834348020343135122215C23185BFEF704F8E369F820834340200343E361F822135904229343F822135110BDC046FDFF000003
:FB751600F0B5051C13235B049F4F3B60082105206EF73AFB9D4F3B689D4803403B603B68C00703433B608B4F3B6802273B43894F3B60974C984820620123974F3B60974FB868606278686065A8692430C17880220A43934F3A60934E8378B07B002B0ED1924D0021B1F763F8B169081C243042781302007B18430022B1F770FA09E00121B1F755F88A4D8A4A13680120400603431360884805608848838A8848036000232360F0BD0523838183692633187801280FD10021CB4382490B6000234B607D490B68802003430B607A490B68800403430B60704700B5C369002B23D013235B04694A13605F4A13685D4A13605B4A1368594A1360554A1368644A13CB
:C3761100607248724A11684160724A11684161714A11688160714A13680360704A1368704A136061486FF743FA08BC1847000030B5052383816C4A116806220A40062A02D181692A3108E08B0702D481692C3103E04B0704D481692E310B8801330B8013235B0449490B605049CB69002B12D1524C2568C37B012B0CD1236880208343236002209AF77BFB80231D43A06899040843A060256030BC08BC184713235B043A4803604148C369002B02D1434803680360704700B5002901D1FFF724FF08BC184700000B
:FB784400F0B581B0051C0C1C08790002C978084352D00020AEF7CCFAFF2801D109234CE0071CAEF786FA0023038121790902E27811438186C186051C83F7CFFF2E1CB03673885808E8806379252B0ED2394800900521BDF797FB6179C8084907490F01228A40009B195C11431954B07BFF233D334343314819180091281CB0F782FC2F4885662521281CFDF71FF8307B0021B0F7B7FE0523AB80381CB0F702FD00999E3101200870381C002100F035F8A279E179381C00F005F801E012232B7001B0F0BDF0B50C1C171CAEF734FA061C201DB5F713FB051E1ED0B18D0B051B0D012040031843210408432B1CA907890F01D1186006E01870000A5870000A9890
:FB793F0070000AD8703A06120E2104090C281D92F78FF8281CB3F77EFEF0BD30B50C1CFF233D3343430548C51802F092F8A2352C8002F096F830BDC046F44E0800349D080038B0080000B5FCF7E9FB00BD10B5041CC37B012B05D1A9480378002B01D101230370201CB3F787F9201CFFF7EBFF10BC08BC184700B52C22A149A248BCF7E2FFA048A14B1860A1494160A1498161A149C16100BD30B5041CBE342178FF233D334B439D495918FF2208328B18FF2119709A493C30062202F023F800280CD1984D23782B6002236B717F21C943A81D072202F01EF800232B7130BD30B5041CBE342078FF233D3343438B495D18203083F75DFB281C6FF70AF886F72F
:FB7A3A002CFB8848036821788B4203D1FF2303600023437130BD00B5017D032901D0042902D1B3F78FF909E0037D062B02D100F008F803E0092B01D1B3F7B5F908BC1847000070B582B0051C041C8034E37A002B08D0036DBE3319780820AFF7F4FB0023A376E3726378032B28D0A87B99F718FF4008218C431A1E04360C618C00291DD08E421BD36078012806D1688CBDF7C1FB062803D13E2002E0042803D008202B6DAF33187003236370281C6EF773FF2B6DBE3319780520AFF7C6FB31E06068002808D00090002301936946A87B9AF73AF8002363606378032B11D0FF201930285A864209D8A87B86F75AFA002804D1281CB3F794FC002802D04C49C8DC
:FB7B3500780CE06378002B07D14A4BA87B185C032802D24649887801E045494878A874281CB3F770FB02B070BD70B5041C0E1C354D2878002802D0013828702878012804D83D4A13683D490B401360002816D0201C9830C378002B02D18188CA060ED58379002B11D0311C201CB1F7BEF82B78012B0AD9311C201CB1F78AF805E0201CB0F74FFD201CB3F7F8FA70BDF0B581B0041C051C80350027AF81EF76FF230533C618F37D0133F375C37B012B13D17378002B19D1224803689B0715D5A07B99F772FE80084100A06981420DD099F706FE4000686008E00123737015480378A3740123DB07B361B77015480068009083075CD514490B685B0602D40098A9
:FB7C3000430731D5A07B99F750FE1FE0FDCC080078E40500909E090078150800517A0900C17B09008D790900349D080009C10800689C090074150800E3C008001C800E00FFBFFFFFBC8B0E0040150800400828846B78012B08D102236B70236D588900016884201CB3F776F9F37D012B07D17EF7D5F8011C201CAFF76CFB01F0F1F92C484379022B14D1236DBE330068197888420ED17EF7C3F8264B991D1A7988541879411C0720BDF7CEFA214B1871214B1F707EF7B4F8B074009906220A40062A1ED1236DBE33187886F7A0F9201C00F0A6F8F078012804D8184980000B5C01330B54E37B0099201C002B02D1FFF720FF01E000F054F8201CB0F796FCAF7E
:997D2B007214E0B7758B070AD5A87A0D490B78984205D2E37B002B02D00130A87206E02B7E002B00D02F76201CB3F72BFA01B0F0BC08BC1847689C090086030800ECB008001CCD0800F0B5061E20D00768002F1DD0407CADF7FAFF051C707C182141430C484418786891F799FC99F71AFC381C99F7D1FB00233360217A01312172217A05480278A88D91F7CEFB00232372F0BDC046F4B008007C15080065
:FB7DCC0070B5051C0E1C041C8034A37F002B1ED0B0F79FFF184A537C012B09D9E37E002B02D1A08BC10603D5311C281CB0F764FFCD23585D00280AD0FF230533E818837D002B04D04378002B01D1012383700B490B681B070FD56378022B0CD1FF201630285C002807D0A0898004800E0023002800D10123237670BDECCC0800E02C0800F0B5041C051C3A4806689835A8880712F306D90FE9707307D90F0307DA0F002F04D0344803685B0300D5111CFF231533E0184378002B03D1002901D0012343708A4216D0AB79002B15D1002F08D0D0231859C168C91BC16002D48368DB1983600122AA71201CB3F7B9FA201CB0F7ACFA01E0002383713307DA0FA88A
:FB7EC700884307D90F8A4234D11C4F397C0A0702D5B304990E2DD1184A13689B0303D5B3079B0F032B25D004214840A880251C5035AE87B304980E1CD020221149BB68181D01F0BAFDCC342078800712D50D490B68012080030340580B0BD02B68BE331878ADF725FFAF303D210170012028870023AB87F0BDA88B0E00E02C0800ECCC080080980E00BC8B0E0010B51F4C2068002805D08008800099F7EFFA0023236010BDF0B5051CC668B469002C16D0B1F763F8002812D1154F3A1C211C1331E01CB0F73BFF381C00F00AF80023AB60EB60A008800099F7D1FA0023B361F0BD00B582B0262369460B800190081C77F755FE02B000BD00B54368002B04D09C
:1A7FC20010220448002193F734F800BDC046E49C0800D79E09001720000050
:107FF800F0B583B00291FF233D3343432248C618AE
:8C800800356D01F041FD371C90372C1CB0348E239A5B02998A1A1204120C638853433A6FD21851014909019101F036FDF37B012B0ED16B8B5B000093288B4000019A101841014909181CBDF7F1F8A0800098E080281C83F7E0FBF37B002B0ED1E68870086883A188019899F7CFFBE288011C101CBDF7DCF8301A400828830298431E3B800123BB7203B0F0BD349D080008
:F4809C00F0B581B00090ADF768FE041C0027364E336BDB071FD5B4421DD0251C2C354223A97D9A5D914216D1291C1031301C3C30062201F0B7FC00280DD101F0DBFC051CBE36307800F036F8281C01F0DBFC3078B0F71EF903E0C03601370F2FD8DB0098B3F76FFA251C0123EB852C35201C81F757FD00980021AEF757FF1C4A13681021DB0603D5A971201CB4F7E3F8201CB2F7A1FABE342178FF223D325143144BC9187F23FF2023300B54A623FF2017300B5401B0F0BD10B5FF233D3343430C48C418201C80304178012907D1418C608CBDF76FF8062803D13E2002E0042903D00820236DAF33187010BD2890080040150800349D080098
:BC819800F0B5061C046D2B4803689E4201D1B0F7B7FF301CB0F7F3FD351C8035288901380ED32881288904236B70002808D1301C6EF701FCBE3421780520AFF755F838E0687800281FD1B07B99F77BFB4008B034A16899F711FB01239B0698420CD267883B1859014909381CBCF7FCFF7843A168081840014009A060A06800236B700223F374B06112E0022810D1AB7E002B0DD0E889298A431A1804000C074B984205D2EB7A002B02D1301CB2F74BFF301C6EF764FDF0BD6C210800FF7F0000C6
:8C829000F0B5051C1F49FF230533C418E378980000230B544318581C00230370AF692B6D1889421C267C688C5043B04063681B1858014009381A01239B06984220D2B31D20789840A368D901EB7B002B00D15143E268824200D3101CBCF788FF011C802800D980219F352970074803789E4202D2701C207404E000230434191C381C0BC4F0BDC046ECB008006F150800B3
:E4832800F0B5061C071C9C373888102101401D490BD01D4BF518EB7898000A5C9301AA68D218AA604318597811E0174BF518EB7898004118487800280DD08C78097861438901BCF747FFA9680918A960211C8B01E868C018E8602B7C002B11D1E86800280ED0AB68D901F37B002B03D1336D1A8901325143BCF72EFF802800D98020F870F0BDC046ECB0080004010000F0B50D1C114C20600B68DB0701D599F724FA0F4E0020706637680E483840306099F730FD99F72EFD2868E0606868A0600220706699F726FD99F724FD99F722FD37600020E060A060F0BDC04600820E001C800E00FFFFFFFD04
:3084140000B54068084A13681979002909D1074A13681B0605D4002801D099F787F8012000E0002000BDC046C04F0800E02C08009C
:7884600030B5041C80304378002B1BD10323E374252101230B55837E002B07D0236DD98B09014184A36903840123C372618CA06975F73EFC238C984204D02084216DB03188800880FF230133E158E518A06999F7AFF9216DB2310A88011C101CBCF79EFE011C201CB2F7F2FEA3692B60201CB0F700FE00236B7130BDCA
:FB84E800F0B581B0344806683448056834480378002B5CD133480368AB4209D132480368B34205D131490B683149086883424ED0304C314FFE20284007D1002D03D02F480368DB0301D5002E1CD063681B071B0F022B02D0022099F7FFFC29480078606328480078A06367F77DFE01F0B5FA822141432068642250436430BCF74BFE431C3B6018E063681B0702D0002099F7E4FC00206063A0631C4A136800931B4A1088392109014143181CBCF734FE386018490098BCF72FFE174908603868A06109490D6009490E600A490B6808490B6001B0F0BC08BC1847C04614CD0800B4C4080008C30800B8CA0800489C0900289D09008C0608000C000F00DC5E08E3
:9185E30000FC0A080009C308000AC30800C02D0800E80A080020CF01009C000F00381CFFF7E7F902B0B2F7A4F8FFF705FAB2F7B1F830B5041C13490B685D78B1F711FE022C01D0042C16D1281C203082F75DFD042C07D10D4800231A1C191C92F7F9FC022102E0022C03D10821281CAEF7B9FC281CADF736FC05490B689879012801D1ADF798FC30BDC49C08000E200000C89C08003C
:FB868400F0B5041C00216EF700FF002803DA01234E4843716FE0061C251C7835687A00280DD1A07B99F717F94008236DB833196899F7B3F8002804DC687A002805D0002E03DD201CB2F771FD55E0E37B012B03D1002801D101236B72A878802101433C4A1160082105206DF758FA384A5379002B41D1B0F70FFD374F381C052101F0D6F903233B74201C00F037F8B0F7C0FCEB8A002B0AD1FF201630205C002805D1B0F7F9FC3B7C082003433B740023AB74FF230533E6180023F375201CB2F73CFE264A13780021002B00D101211170F078FF2806D16B7A022B03D1081CF070A3697360012805D8F1708B001C48C0187B7C8370201CAFF761FEF0BD30B5846F
:6D877F007C18490B788374051C012200216EF71DFDAC742C6DB223195B0239884200DB081C11494143E5208000BCF728FDFF210531695C884200D3081C32342178490701D5012801D8002800D101200349487430BDA42C0800A4860E00ECCC08006C150800ECB008007415080071020000FE
:FB87F400F0B583B0012100910027C0237B431A481C18206BC00729D5251CBC356B78002B24D1261CE38D2C36002B1FD0B379002B02D00021009119E0211C0C310F48052201F004F9002811D00223B371201CB3F7DEFC01A9201CB3F7C6FC01A9A878B2F760FD082201A9A878B3F7E2FD01370F2FCBD3009803B0F0BD28900800004F080010B5002912D140498B79002B0BD03F490B69834207D13E4C2368DB0603D54631012008700EE0B0F705FE0BE0022909D1011C48318A880B7E9B18013383814B889B1A4B8010BC08BC184730B5314A11680B06D90F884218D12F4D2C68ADF74CFBC1780B02817819430279130419434279130619438C4208D12A1F1363
:FB88EF00681A0C41780B0200781843824201D0002000E0012030BDF0B583B0051C00910026041C58342379002B2CD0012601A8B1F7D7F8071C6379002B13D0E378012B07D13023585DFFF7C3FF002801D1061C19E02835AB79012B04D101A9381CB0F775FF061C0F480378002B0CD0012F0AD1029B03208003034001208003834202D1012300980360301C03B0F0BDC046AC210800642C080008800E00A88B0E0088980E006C9C0800F0B50D1C041C002D14D14B488379002B0CD04A480369A34208D1494A1368DB0604D5031C46330120187036E0201CB1F769FC32E0FFF754FF022D2ED1414A131C5421085B0004271C52373988084318644433251C5635F7
:FB89EA00A807800F01D12E6808E02D1AC0002968C1402026301A6E6886400E431E60A36B002B0CD1A06EC16B91603C30457908212D0200792843D06013680B431360A06E806A9064F0BC08BC1847F0B582B0041C051CB0F70FFF58352B79002B31D0EB78012B10D1201C28308379012B0BD16B79002B08D1007AFFF72DFF002803D1201C6DF74AFB1DE0EB78012B1AD8A66E6846B1F729F86B79002B0CD1071C6946301C3C300622BBF779FF423637706C340120207012E02E231B5D012B02D16946B0F7C7FEA37C0B498878834202D1201CB1F71CFD201C0121B0F7C6FD02B0F0BC08BC1847AC210800642C080008800E00808B0E0074150800034B0448035A
:478AE50060044B044803607047C046889B090050150800B49B09006415080010B5041C6DF7FDFA201C6DF760FF4A23002018536523195D0220AEF7B1FBA36EBC3318780021AFF78DFD10BD67
:148B540000B5011C32310B78FB2213400B70AEF799FF00BD70
:4C8B7800F0B5061C0F1C104D2C68A07B98F7A9FE80084300991C608CA26983185801400998F73AFE041C002F0BD0B17B2B68987B6EF76FFE002804D1032C01D8002400E0033C201CF0BDC0466C21080068
:FB8BCC00F0B586B0061C4568039581780A07120F0092C07802908F0943191A79059200200490C74A13681879002804D1C5490B681B0600D4BCE10098062800D9BDE10598002808D0122806D0301CAFF737F9002800D1ADE1B1E1BC4C2378BC490879834202D3201CAEF726F9B8484188002923D00378002B10D06378002B04D0B44899F711FA002818D000236370A370AF4A508850214143AE4805E02378AD48002B04D15022514399F7B3F906E099F7FBF9002802D0201CAEF7FEF820782923191C41430191E11C8807800F01D10A6808E0091AC0000B68C3402022101A4A6882401A4301989C4B0099C95C815480180099032901D0052957D1934A13681B45
:FB8CC7000600D441E1477002998B1F0372291C09300622BBF753FE0635E11C8807800F01D10A6808E0091AC0000B68C3402022101A4A6882401A43019880180230291C0622BBF73CFE0098052817D10635E11C8807800F01D10B6808E0091AC0000A68C2402023181A4B68834013430199C8180F30029A0C3A291CBBF721FEE11C8807800F01D10B6808E0091AC0000A68C2402023181A4B68834013430199C8182830F17872688918C9780170F1E0FF07FF0F0098042806D0634A1368F07871684018C078587260490868C379012B18D1391C281CAEF7A4FB009A042A05D1AEF7C1FB002800D1D7E03BE0FF2803D1391C281CAEF7EAFBAEF7CAFB002800D133
:FB8DC200CBE02FE057490B78002B2BD0009A042A18D1291C54481030062200F030FE002800D0BAE05049887D03071B0FBB4200D0B3E08023034000D1AFE04006400E494988750FE00922835601200856834200DAA3E0291C45480622BBF7B3FD80233B434148837501210491E11C8807800F01D10A6808E0091AC0000B68C3402022101A4A6882401A43019880184770291C02300622BBF796FD2F480378002B19D0E11C8807800F01D10A6808E0091AC0000B68C3402022101A4A6882401A4301998818F17872688918AEF79CFC0006000EFF2863D106350298FA300006000E02900098E11C012812D18807800F01D10B6808E0091AC0000A68C2402023188C
:D38EBD001A4B68834013430199C8180021017215E08807800F01D10B6808E0091AC0000A68C2402023181A4B68834013430199C818029A0272291C0930BBF745FDE11C8807800F01D10B681CE0091A12E0C046C04F0800E02C08005DC30800BC9C080093C3080014E3050068C30800B8AF0800C8AF0800C0000A68C2402023181A4B68834013430199C8182830F17872688918C97801700498002802D023780133237023780B490879834202D3201CADF78AFF0598122804D1AFF742F8AFF777F804E00398002801D098F7DDFA06B0F0BDC046BC9C0800E5
:FB8F9800F0B586B0041C012203920292002200923249051C08682035EB7A012B02D1304A117801E02E4A5178A17406220240062A51D12C4A16683207120F019201070BD529490B68987B002805D0301CB0F7B0FE0090029000E00390244F019805282BD1EB7A012B28D83306D90F287B414023D1ACF7B0FF79680491B968059104A90231062200F011FD002816D10398002813D00298002810D0201CB0F775FF009900290AD0201C6DF761F811490B68DB0703D4201C0021B0F71EFE0E490B681B060AD50198052801D0032805D1391C3004000C0022AEF7B4F906B0F0BDC046BC8B0E005C150800A88B0E00B89C080080980E0008800E00E02C080010B5569D
:FB9093004C82209AF7E5F8000600160022A15600290ED0CB10CA1AC310D2187F23DB439A4201DA181C04E07F207F2A01DC10060016010609162170494A1368002B01D14848C17710BD70B5002644480368002B01D185F744FC434C4449201C0F300522BBF747FC00252819C07B98F70AFE36180135052DF7D33D48C36A5B011CD53C4803685B0518D400253B4803789E4213D001200A2D00D9022040194100374886F794FB002805D0291C201C0F3086F79FFB013E0135252DE7D3211C0F313048052200F075FC002809D0211C0F312C480522BBF70FFC63690120834363616369DB0707D4FFF73EFB616901229143104001436161002070BC08BC184700B587
:96918E0076F7C3F900280BD11F480368002B07D114490B681D490868834201D1012000E0002000BD00B5B821194800F07AFC00230B4A137000BD10B5041C15480368002B0BD0201C002186F754FB1821201C86F750FB4E21201C86F74CFB10BDC0462C9F0900B4C4080050370800F4460800F44E08005420080020040800A4030800E0340800004F080010CD0800E4C708009034080014CD080040
:AC92580030B5041C0A4D2B78002B0FD07CF7F2FD01216956884209DA251C5C356B78002B04D1201C6CF741FF00232B7030BDC04668C3080000B575F701FF002805D11848437D002B01D176F740FF00BD00B575F7F5FE002805D11248437D002B01D176F734FF00BD70B5051C0E1C0024C02363430C481818036BDB0703D5321C291CB2F7D9FE01340F2CF1D370BD00B5064876F710FF7DF759F813211620FFF7E3FF00BDE44E0800289008009C4508006B
:FB940800002809D1104A1068104A1368984201D1012801D1002002E08800411AC81E70470B4A1068C306990F01290BD14007400F052801D8002801D1002001E002490868024908607047C046901C0800BC9E090004300E00002E02D00020E05504E0E35D002B01D0013BE3557CF77FFB10B5A44C201C042100F018FB7F21C943A01D072200F0E2FAFF23236000239E4803709E4803709E4803709E4803709E4803709E4B9E4803600123DB029D48038080239D48037000239C4803709C4803709C480621BBF77EFD14219B48BBF77AFD14219A48BBF776FD10BD30B5041C98480368002B04D000230360282300201855944D00216962A96278F757FA9248035B
:FB95030068002B07D175F7C4FD002807D18F48437D002B03D1012091F78DFA04E076F7F3FC2834042020700023894A137089480378012213430370FFF79BFF281C8A300621BBF740FD30BDF0B5061C051C081C08356C4C2368FF2B20D076490330062200F06DFA002819D16079022807D12068ACF700FCC38D012B10D1002711E001280FD1206875F79DFDC1690906C90E0839062903D2FF210931475C02E0122333700EE0A11DE81D0722BBF7EBF98021A01D072200F04CFA00232371AF710823F370F0BD30B50C1C5B4D0331281C0622BBF7D8F9637A564803701422211C0A315648BBF7CFF91422211C1E315448BBF7C9F9002347480370434CFF23236044
:FB95FE00281C0021ACF7C1FB002803D1281C0121ACF7BBFB002806D0C38D012B12D1BE30007802210CE0281C75F775FA002809D0C2691206D20E083A062A03D2006801212060617130BD0B7935480370CB78304803707047F0B5052630480378002B50D12A4C2768FF2F4CD02079811D0720BBF702FE05062D0E607902280CD1381CACF77BFBC38D012B3CD1A31DEA560024012622490E7016E0012833D1381C75F713FDC1690906C90E0B1C083B062B29D2A31DEA56FF230933C45C0123174803700A2900D10326144800211D4B1B579A420DDA0278013202700278B24212D301700F4A1378002B0DD092F719F80AE0154B1B5701709A4205DD064803780046
:FB96F9002B01D091F7F2FF0120F0BC08BC1847689C090002C108000FC10800840308008603080010C10800C05D00009C070800A007080099070800D8C20800ADC9080009C1080011C1080025C1080024C9080054200800DCCC0800E44E0800EEC00800E00A0800381CF9F7FFFA6BF70CF8281CF9F718FB6BF725F881B000F003F874F746FA0000F0B5041C0D1C7CF763FB324E7379012B12D180213368095D8B420DD1A02210553179891988713079411C0720BBF764FD30710023284A1370271C261C6436317F9F2038569F377CF7F2FA3870371CB37D0C37002B15D03368DB0508D41F4803691B010ED5301C90F7CDFA002809D00023B3610123FB720023F2
:7497F400BB727B72301C8EF7F2FA33685806000F295C002904D0144B185CB072431E0DE010490B69DB000BD5104A11680A6853031B0F984204D193025B0F013BA3810CE0012333723B68FF20013083433B600D2307490B70301C74F76FFAF0BD689C090086030800542008009EBB05001C2B0800E8C00800BA
:5498900083780F2B02D1032311480360704700B50F480368002B05D0002303600F21181C7AF7F4F800BD00B5094902060CD40868012807D102230B6018220F2100207AF7C4F803E0032801D1022000E0002000BD449C090019
:18990000044A1088012149020140480A012250407047C046E8C4080045
:9899780000B500F089F8002320490B7000F08CF800BD00B51E4B984202D1081C00F001F800BD00B5012100F006F800BD00B5002100F001F800BD30B50C1C144D15490B78012B1AD10178032901D0082915D18378002B12D100F060F8002C03D02B7801332B7008E0041C2878013803D3287002208CF7BFFE201C00F057F830BD00B5FFF7D5FF00BD014908787047C0462D9F0900B85208005400080092
:FB9A1C000F2304480360044803600448036004480360704730300E0030340E0030380E000C200E007847000000C09FE51CFF2FE1FC4005007847000000C09FE51CFF2FE1CC4805007847000000C09FE51CFF2FE1E05105007847000000C09FE51CFF2FE1741005007847000000C09FE51CFF2FE160E801007847000000C09FE51CFF2FE17CD704007847000000C09FE51CFF2FE190D704007847000000C09FE51CFF2FE1304F05007847000000C09FE51CFF2FE1CC51050023000000412B0900240000003D2B090025000000452B090028000000294B09002E0000009D4D0900350000007D2B090088000000BD2B09008D000000E12B0900910000005396099D
:FB9B170000920000000000000000000000030000025946020004000104000000001D66090000000000376B0900775E090043650900CB6609000000000000000000B95C09006754020000000000DF60090000000000000000000B6109004B61090051620900AF620900000000005B630900875102009F9504006D9904007F930400000000007588090000000000A7960400000000000000000005990400C39304009F9504006D99040091A20400000000009589090000000000358A090093A3040081490900AF490900C3930400420500005E04000062040000420500006C04000062190000440500006C040000621900000A060000A0860100C47A0200A861EE
:369C1200000021000C0000180008010000003C000000001800003C000000000000000008001800000000000000001E0000004001000001000000BE
:00000001FF
